S022000050695F6265726563686E756E675F4D69636861656C4D656965722E73726563C5
S11300000C949F010C94C8010C94C8010C94C80171
S11300100C94C8010C94C8010C94C8010C94C80138
S11300200C94C8010C94C8010C94BE270C94C8010C
S11300300C94C8010C94C8010C948F180C94C8013A
S11300400C94C8010C94C8010C94C8010C94C80108
S11300500C94C8010C94C8010C94C8010C94C801F8
S11300600C94C8010C94C8010C94C8010C94C801E8
S11300700C94C8010C94C8010C94C8010C94C801D8
S11300800C94C8010C94C8010C94C8010C94C801C8
S11300900C94C8010C94C8010C94C8010C94C801B8
S11300A00C94C8010C94C8010C94C8010C94C801A8
S11300B00C94C8010C94C8010C94C8010C94C80198
S11300C00C94C8010C94C8010C94C8010C94C80188
S11300D00C94C8010C94C8010C94C8010C94C80178
S11300E00C94C8010C94C8010C94C8010C94C80168
S11300F00C94C8010C94C8010C94C8010C94C80158
S11301000C94C8010C94C8010C94C8010C94C80147
S11301100C94C8010C94C8010C94C8010C94C80137
S11301200C94C8010C94C8010C94C8010C94C80127
S11301300C94C8010C94C8010C94C8010C94C80117
S11301400C94C8010C94C8010C94C8010C94C80107
S11301500C94C8010C94C8010C94C8010C94C801F7
S11301600C94C8010C94C8010C94C8010C94C801E7
S11301700C94C8010C94C8010C94C8010C94C801D7
S11301800C94C8010C94C8010C94C8010C94C801C7
S11301900C94C8010C94C8010C94C8010C94C801B7
S11301A00C94C8010C94C8010C94C8010C94C801A7
S11301B00C941F280C94C8010C94C8010C94C80119
S11301C00C94C8010C94C8010C94C8010C94C80187
S11301D00C94C8010C94C8010C94C8010C94C80177
S11301E00C94C8010C94C8010C94C8010C94C80167
S11301F00C94C8010C94C8010C94C801D723D723CC
S1130200D72324240C242124D723D72324240C24C7
S11302100C947A160C940C240C941B230C94BE2975
S11302200C9476250C94A8240C94D7230C94A41C29
S11302300C9424240C9421240C94B6256E616E0035
S1130240696E660000407A10F35A00A0724E1809D5
S11302500010A5D4E80000E87648170000E40B5429
S1130260020000CA9A3B000000E1F50500008096F8
S11302709800000040420F000000A086010000002A
S1130280102700000000E8030000000064000000E4
S113029000000A00000000000100000000002C76AD
S11302A0D888DC674F0823DFC1DFAE59E1B1B796C8
S11302B0E5E3E453C63AE651997696E8E6C2842625
S11302C0EB898C9B62ED407C6FFCEFBC9C9F40F201
S11302D0BAA56FA5F490055A2AF75C936B6CF9677D
S11302E06DC11BFCE0E40D47FEF520E6B500D0ED42
S11302F0902E0300943577050080841E08000020AA
S11303004E0A000000C80C333333330F986E128347
S11303101141EF8D2114893BE65516CFFEE6DB181B
S1130320D1844B381BF77C1D901DA4BBE4242032E0
S113033084725E228100C9F124ECA1E53D271124D9
S11303401FBECFEFCDBFDFE3DEBF00E00CBFEFE8A1
S1130350FDE28AEA90E48193E030F907E0F310E2E9
S1130360A0E0B0E2E4EAFEE600E00BBF02C00790C2
S11303700D92AE35B107D9F72DE2AEE5B0E201C07A
S11303801D92AF38B207E1F70E94DC270C94503776
S11303900C9400002F923F924F925F926F927F9243
S11303A08F929F92AF92BF92CF92DF92EF92FF9281
S11303B00F931F93CF93DF93DC011B012A01F901F3
S11303C0102F8C91808311968C91119781831296B2
S11303D08C911297828313968C911397838314962E
S11303E08C911497848315968C9115978583169612
S11303F08C9116978F70868317822C9111963C915D
S1130400119712964C91129713965C911397149628
S11304106C91149715967C91159716968C91169756
S113042017969C91179704E30E94FC34822E932E16
S1130430340187E07822E2016882798261147104D0
S113044049F4108211821282138214821582168258
S1130450178208C0DFEF6D16D7E07D0619F086819C
S113046080618683208131814281538164817581D9
S113047086819781012F0E94E13420833183428356
S1130480538364837583868397832C9111963C915F
S1130490119712964C91129713965C911397149698
S11304A06C91149715967C91159716968C911697C6
S11304B017969C910FE30E94FC34F1012083DF9195
S11304C0CF911F910F91FF90EF90DF90CF90BF904D
S11304D0AF909F908F907F906F905F904F903F90E0
S11304E02F9008952F923F924F925F926F927F9236
S11304F08F929F92AF92BF92CF92DF92EF92FF9230
S11305000F931F93CF93DF9300D01F92CDB7DEB725
S11305105C0169836A01D901EC911196FC911197F0
S11305201296BC91BC83D9011396BC91BA83D901AC
S11305301496BC91BB83D9011596FC901597169619
S11305401C9116971796EC902E2F3F2F4C815A81B1
S11305506B817F2D812F9E2DA0E00E943F3509F4F1
S11305601CC120E030E040E050E060E0707E0E947A
S11305703F3501F52E2F3F2F4C815A816B817F2D02
S1130580812F9E2D08E00E94E134E22FF32F4C834B
S11305905A836B83F72E182FE92EB8E0CB1AD108B3
S11305A0707E20E030E040E050E060E0A0E00E9497
S11305B03F3501F320E030E040E050E060E070E0DF
S11305C0812F807F9E2DA0E00E943F3509F52E2FBC
S11305D03F2F4C815A816B817F2D812F9E2D01E00D
S11305E00E94E134E22FF32F4C835A836B83F72E5E
S11305F0182FE92E21E0C21AD10820E030E040E0B3
S113060050E060E070E0807FA0E00E943F35F9F2A6
S113061020E030E040E050E060E070E080E09E2DBB
S1130620A0E00E943F3549F41AC1E82DF22D3C8226
S11306304A825B82F62C172DE92C2E2F3F2F4C81FA
S11306405A816B817F2D812F9E2D04E00E94FC3402
S1130650822E232E342E452E562E672E782E992E3A
S113066084E0C80ED11C20E030E040E050E060E0BF
S113067070E080E0992DA0E00E943F35B1F6872D0F
S1130680807E0E943F3531F52E2F3F2F4C815A81B9
S11306906B817F2D812F9E2D03E00E94FC342170FD
S11306A0E82DF22D3C824A825B82F62C172DE92C30
S11306B036C08E2E2F2E3C804A805B806F2C712E8C
S11306C09E2C08C08E2E2F2E3C804A805B806F2C7F
S11306D0712E9E2C282D322D432D542D652D762DD3
S11306E0872D992D01E00E94FC34E22FF32F4C83D7
S11306F05A836B83F72E182FE92E9FEFC91AD90A54
S113070020E030E040E050E060E070E0812F807E47
S11307109E2DA0E00E943F35A9F6282D21702223AA
S1130720C1F12E2F3F2F4C815A816B817F2D812F58
S11307309E2DA1E00E942135422E532E642E752E4B
S1130740862E972E082FE22FF32F4C835A836B8328
S1130750F72E182F20E030E040E050E060E070E039
S1130760807EA0E00E943F35A1F0242D352D462D3A
S1130770572D682D792D802F01E00E94FC34E22F43
S1130780F32F4C835A836B83F72E182FAFEFCA1ABB
S1130790DA0A1C141D044CF01BC0BFEFCB16B7E0E3
S11307A0DB0604F5C12CD12C23C02FEFC21627E0A1
S11307B0D206F4F0E0E0F0E01C821A821B82F12CF5
S11307C010E00F2ECC24CA94F7E0DF2EF02D10C0D9
S11307D0E0E0F0E01C821A821B82F12C10E0C12CB4
S11307E0D12C06C00F2ECC24CA94F7E0DF2EF02DB6
S11307F0298130E040E050E060E070E080E090E08B
S11308000FE30E94E134A92F1F70E22BEF2EE32A9D
S1130810BC81B42B9A80952A8B80862AF72A182BC0
S11308209D2D990F990B2C2D3D2D492F592F692F53
S1130830792F892F04E30E94E1342E2BF5012083C4
S11308403E2931834B2B428359295383682964837E
S11308507F297583812B86839A2B97830FC020E091
S113086030E040E050E060E070E0812F807E9E2D1B
S1130870A0E00E943F3509F01CCF8BCF2496CDBF5A
S1130880DEBFDF91CF911F910F91FF90EF90DF902A
S1130890CF90BF90AF909F908F907F906F905F901C
S11308A04F903F902F900895AF92BF92CF92DF92D6
S11308B0EF92FF920F931F93CF93DF937C01DC01A0
S11308C0DC901196AC9011971296BC91FC01C381F7
S11308D0D4811581C680078120E030E040E050E0FB
S11308E060E070E080E0902FA0E00E943F3509F0C6
S11308F078C0B12C2D2D3A2D4B2F5C2F6D2F712FDD
S11309008C2D902F08E00E94E134D22EA32EB42F18
S1130910C52FD62F172FC82E092FF8E0BF0E20E0C1
S113092030E040E050E060E070E080E0A0E00E9451
S11309303F3591F0F701D082A182B283C383D4837F
S11309401583C682978390780E943F3509F058C07A
S1130950FFE3FB157CF454C080E4B812CBCFF7015D
S1130960D082A182B283C383D4831583C682978342
S113097047C0B12C2D2D3A2D4B2F5C2F6D2F712F8D
S11309808C2D902F01E00E94E134D22EA32EB42F9F
S1130990C52FD62F172FC82E092FB39420E030E08F
S11309A040E050E060E070E080E09078A0E00E94D9
S11309B03F3551F0F701D082A182B283C383D4833F
S11309C01583C68207831CC0FFE3FB159CF6F70161
S11309D0D082A182B283C383D4831583C682078362
S11309E00FC020E030E040E050E060E070E080E0E4
S11309F0902F9078A0E00E943F3509F4BACFB12C33
S1130A008B2DDF91CF911F910F91FF90EF90DF908D
S1130A10CF90BF90AF9008952F923F924F925F92E4
S1130A206F927F928F929F92AF92BF92CF92DF92FA
S1130A30EF92FF920F931F93CF93DF93CDB7DEB75F
S1130A40A197CDBFDEBFDC01FB01342E8C918E83D8
S1130A5011968C9111978F8312968C911297888797
S1130A6013968C911397898714968C9114978C8F75
S1130A7015968C9115978D8F16968C9116978E8F4F
S1130A8017968C918F8F2E813F81488559856C8D67
S1130A907D8D8E8D9F8D00E20E94FC3429A338A3A6
S1130AA04A875B876C877D878E879F8740805180CC
S1130AB0628023808481888F8581898F86818A8F53
S1130AC087818B8F242D352D462D522D688D798D60
S1130AD08A8D9B8D0E94FC34288B398B4A8B5B8BCF
S1130AE06C8B7D8B8E8B9F8BA9A0B8A0CA84DB8472
S1130AF0EC84FD840E851F85242D352D462D522D25
S1130B0060E070E080E090E00E94783400E20E94AF
S1130B10FC3429833A834B835C836D83772E882E40
S1130B20992EA888B988CA88DB88EC88FD880E8944
S1130B301F892E813F814885598560E070E080E0FF
S1130B4090E00E94783400E20E94FC34A22EB32E7E
S1130B50C42ED52EE62EF72E082F192F29813A817F
S1130B604B815C816D81772D882D992D0E941835DC
S1130B7029833A834B835C836D83772E882E992E49
S1130B80A888B988CA88DB88EC88FD880E891F8903
S1130B9029A138A14A855B856C857D858E859F85D5
S1130BA00E947834A22EB32EC42ED52EE62EF72E14
S1130BB0082F192F29813A814B815C816D81772D12
S1130BC0882D992D0E941835922E3A834983B52F8A
S1130BD0F62FE72F782E892E30FE26C02E813F81F6
S1130BE0488559856C8D7D8D8E8D9F8DA0E00E94EA
S1130BF03F35D4F4292D3A8149815B2F6F2F7E2F05
S1130C00872D982DA42CB52CC62CD22CE88CF98CCD
S1130C100A8D1B8D0E942D35922E3A834983B52F60
S1130C20F62FE72F782E892E31FE26C0242D352D60
S1130C30462D522D688D798D8A8D9B8DA0E00E9462
S1130C403F35D4F4292D3A8149815B2F6F2F7E2FB4
S1130C50872D982DAE80BF80C884D984EC8CFD8C00
S1130C600E8D1F8D0E942D35922E3A834983B52F08
S1130C70F62FE72F782E892E292D3A8149815B2F73
S1130C806F2F7E2F872D982DA196CDBFDEBFDF91CC
S1130C90CF911F910F91FF90EF90DF90CF90BF9075
S1130CA0AF909F908F907F906F905F904F903F9008
S1130CB02F9008952F923F924F925F926F927F925E
S1130CC08F929F92AF92BF92CF92DF92EF92FF9258
S1130CD00F931F93CF93DF93CDB7DEB7E297CDBFCA
S1130CE0DEBFFC018080898E91809A8EA280AB8EBB
S1130CF0B380BC8EC480CD8ED580DE8EE680EF8E30
S1130D00F780F8A2282D392D4A2D5B2D6C2D7D2DD1
S1130D108E2D9F2D00E20E94FC34822F932FA42F4E
S1130D20B52F8DA79EA7AFA7B8AB098D1A8D2B8DB4
S1130D303C8D33237CF49C01AD012F5F3F4F4F4F1B
S1130D405F4F2DA73EA74FA758AB232B242B252B52
S1130D5009F4C1C18DA49EA4AFA4B8A895014427E9
S1130D605527C9019F77892B29F52401350166246C
S1130D707724411451046104710459F4298D3A8D86
S1130D804B8D5C8D6D8D7E8D8F8D98A10E94D1349D
S1130D90AEC1440C551C661C771C440C551C661CC7
S1130DA0771C7094609450944094411C511C611CB5
S1130DB0711C8DC02F3F0FEF300769F44DA45EA462
S1130DC06FA478A87094609450944094411C511C72
S1130DD0611C711C7CC0B90176956795CB01A0E0BC
S1130DE0B0E0BC01CD0160957095809590950E940E
S1130DF04E342F5F3F4F6901E12CF12CB701A6015E
S1130E00032E31E1440F551F661F771F3A95D1F722
S1130E10302D8DA59EA5AFA5B8A980959095A095D8
S1130E20B0954A015B01880E991EAA1EBB1E89A6B5
S1130E309AA6ABA6BCA6D701C60112961C012D0129
S1130E40A90160E070E080E090E0DC0129A35AA3EE
S1130E506BA37CA38DA39EA3AFA3B8A78DA59EA5CA
S1130E60AFA5B8A98C019D01A82EB12EC22ED32EF8
S1130E70E12CF12C00E010E029A13AA140E050E07F
S1130E8060E070E080E090E00E947834A22EB32EFF
S1130E90C42ED52EE62EF72E082F192F222D332DF2
S1130EA0442D552D60E070E080E090E00E9478349D
S1130EB000E20E94FC34822E932EA42EB52E49A467
S1130EC05AA46BA47CA4481859086A087B088DA40A
S1130ED09EA4AFA4B8A895018401A82CB12EC22E5B
S1130EE0D32EE12CF12C00E010E0A301920160E08C
S1130EF070E0CB0149A23AA34BA35CA36DA37EA3EC
S1130F008FA398A761E070E080E090E00E947834BD
S1130F108DA49EA4AFA4B8A8B694A79497948794DC
S1130F206501540145015601ABA2BCA2A82CB92C01
S1130F30CBA0DCA0E12CF12C0E94183529873A873C
S1130F404B875C876D877E878F87988BC22ED32EC5
S1130F50E42EF52E00E20E94FC342223C9F04DA5B4
S1130F605EA56FA578A9DB01CA018C0D9D1DAE1D80
S1130F70BF1D8C159D05AE05BF0508F42F5F0FEF4F
S1130F80401A500A600A700A6C017D012111EBCFEE
S1130F9053014201242D392D4A2D5B2D60E070E070
S1130FA080E090E00FE10E94E134222E332E442EA3
S1130FB0552E662EF72E182F722E832E49A359A76D
S1130FC06DA779AB8AAB9068992E29823A824B82BD
S1130FD05C826D82FE821F839887298D3A8D4B8DAA
S1130FE05C8D6D8D7E8D8F8D98A101E00E94E13422
S1130FF0298B3A8B4B8B5C8B6D8B7E8B8F8B988F75
S113100040E0BE016F5E7F4FCE0101960E940C0549
S1131010A22EB32EC42ED52EE62EE72F082FF92F9D
S1131020222D332D442D552D662D7F2D812F992D65
S1131030FE2E1F2F0E9418350E94D134A22EB32EEB
S1131040C42ED52EE62EF72E082F192F29873A877E
S11310504B875C876D877E878F87988B40E0BE01C6
S1131060675F7F4FCE0101960E940C05222E332E1E
S1131070442E552E662EB72FF82FE92F2A2D3B2DFF
S11310804C2D5D2D6E2D7F2D802F912FA0E00E9481
S11310903F3544F4712C812C19A219A61DA619AA56
S11310A01AAA912C222D332D442D552D662D7B2FDC
S11310B08F2F9E2FA1E00E942135A72CB82CC9A008
S11310C0D9A4EDA4F9A80AA9192D0E94183501E0A4
S11310D00E94FC340CC019861A861B861C861D8649
S11310E01E861F86188A412C512C320151CFE2965C
S11310F0CDBFDEBFDF91CF911F910F91FF90EF9095
S1131100DF90CF90BF90AF909F908F907F906F9023
S11311105F904F903F902F9008956F927F928F929F
S11311209F92AF92BF92CF92DF92EF92FF920F9372
S11311301F93CF93DF93CDB7DEB7A597CDBFDEBFA7
S11311403C010E8B1F8B288F398F4A8F5B8F6C8FDE
S11311507D8F8E8E9F8EA8A2B9A2CAA2DBA2ECA21A
S1131160FDA20AE09E012A5F3F4FAE014E5F5F4F32
S1131170BE016F5F7F4FCE0146960E94CA019E0159
S1131180225F3F4FAE014C5F5F4FBE016F5F7F4FE9
S1131190CE014E960E94CA01E8ADF9AD1082EA81F3
S11311A0FB81EF3F27E0F207E9F52E813F81488577
S11311B059856A857B858C859D85A0E00E943F3595
S11311C029F58C819D818F3F974071F42E853F8551
S11311D0488959896A897B898C899D890E943F3510
S11311E0A9F4FFA9FF2391F08E89F30180838F89ED
S11311F08183888D8283898D83838A8D84838B8D7B
S113120085838C8D86838D8D87831EC18FEFF3013B
S113121080838183828383838483858386838FE72A
S1131220878312C1AC81BD81AF3F27E0B20791F43F
S11312308E8DF30180838F8D818388A1828389A120
S113124083838AA184838BA185838CA186838DA1CA
S11312508783FAC0309731F0CF01805C9F4FA81785
S1131260B907B4F08E8DF30180838F8D818388A1BB
S1131270828389A183838AA184838BA185838CA1A2
S113128086838DA1878381E0E8ADF9AD8083DCC0DE
S1131290109731F0CD01805C9F4FE817F90794F067
S11312A08E89F30180838F898183888D8283898DE0
S11312B083838A8D84838B8D85838C8D86838D8DAA
S11312C08783C2C02FA9222309F445C0EA17FB076C
S11312D004F18F010A1B1B0B2E853F854889598910
S11312E06A897B898C899D890E94FC34AE80BF8089
S11312F0C884D984EA84FB840C851D850E94183532
S11313002E833F83488759876A877B878C879D878D
S113131090C08D010E1B1F0B2E813F81488559857E
S11313206A857B858C859D850E94FC34AE84BF8450
S1131330C888D988EA88FB880C891D890E941835D9
S11313402E833F83488759876A877B878C879D874D
S1131350AA83BB836EC0AE17BF07B4F0EA17FB07BE
S1131360D9F52E813F81488559856A857B85AE8470
S1131370BF84C888D988EA88FB880C891D898C8534
S11313809D850E94363540F18F010A1B1B0B2E856B
S11313903F85488959896A897B898C899D890E94FE
S11313A0FC34A22EB32EC42ED52EE62EF72E082FF3
S11313B0192F2E813F81488559856A857B858C85C7
S11313C09D850E942D352E833F83488759876A87E0
S11313D07B878C879D872DC08D010E1B1F0B2E8153
S11313E03F81488559856A857B858C859D850E94CA
S11313F0FC34A22EB32EC42ED52EE62EF72E082FA3
S1131400192F2E853F85488959896A897B898C895A
S11314109D890E942D352E833F83488759876A878B
S11314207B878C879D8781E0E8ADF9AD8083AA83B3
S1131430BB834A815B814A5051099E012A5F3F4F19
S113144060E0C3010E947202A596CDBFDEBFDF91AA
S1131450CF911F910F91FF90EF90DF90CF90BF90AD
S1131460AF909F908F907F906F9008954F925F926E
S11314706F927F928F929F92AF92BF92CF92DF92A0
S1131480EF92FF921F93CF93DF93CDB7DEB76097B0
S1131490CDBFDEBF2B013C01E89467F877245301EC
S11314A04201BB0C8808982C540149825A826B82F1
S11314B07C828D828E828F8288866B017C010B2ECA
S11314C0B7E1F594E794D794C794BA95D1F7B02DC2
S11314D0F601FF276B017C01CC24F7FCC394DD24C7
S11314E0EE24FF241C2D309709F066C0242D352DE1
S11314F0462D572D682D782D882D982DA0E00E941B
S11315003F3511F517C0242D352D462D572D682D47
S1131510782D882D982DA0E00E943F3549F51111B2
S113152030C020E030E040E050E060E070E080EF68
S11315309FE746C019821A8280E88B831C821D8231
S11315401E821F82188602C0EEE9F3E09E012F5F1F
S11315503F4FAF016C2DCE0109960E94720229857E
S11315603A854B855C856D857E858F85988928C0F5
S11315702FEF3FEF4FEF5FEF6FEF7FEF8FEF9FE7BF
S11315801FC020E030E040E050E060E070E080EF19
S11315909FEF16C0D301C201A06889839A83AB83ED
S11315A0BC83BB0F880B982FDC018D838E838F83C4
S11315B08887E356FC4FCACFEF3FF10559F7A3CF15
S11315C06096CDBFDEBFDF91CF911F91FF90EF906A
S11315D0DF90CF90BF90AF909F908F907F906F904F
S11315E05F904F9008952F923F924F925F926F9227
S11315F07F928F929F92AF92BF92CF92DF92EF929F
S1131600FF920F931F93CF93DF93CDB7DEB72A9743
S1131610CDBFDEBF422E532E642E5A87B62FA72F7E
S1131620F82FE92F302E0FE30E94FC342170722E24
S11316302A2D3B2D4C2D5D2D6E2D7F2D832D912F2D
S11316400E94FC342170222E271509F1CE01019647
S11316509F938F931F928A2C9B2CAC2CBD2CCE2C49
S1131660DF2CE32CF12E042D152D262D3A854B2F3E
S11316705A2F6F2F7E2F01960E948D082980272DC7
S113168022252170222E0F900F900F901DC0CE01A5
S113169001969F938F9381E08F938A2C9B2CAC2C83
S11316A0BD2CCE2CDF2CE32CF12E042D152D262D54
S11316B03A854B2F5A2F6F2F7E2FCE0102960E9410
S11316C08D080F900F900F90222021F0898580685B
S11316D0898703C089858F7789872A813B814C81DB
S11316E05D816E817F81888599852A96CDBFDEBF15
S11316F0DF91CF911F910F91FF90EF90DF90CF90EA
S1131700BF90AF909F908F907F906F905F904F901D
S11317103F902F9008957F928F929F92AF92BF92A5
S1131720CF92DF92EF92FF920F931F93CF93DF93A9
S1131730722E832E942ED52FC62FB72FA82FF92FB4
S1131740E02F2A2D3B2D4C2D5D2D6E2D7F2D802FCE
S1131750912F0FE30E94FC3420FD03C00E2F10686C
S113176002C00E2F1F77272D382D492D5D2F6C2F8A
S11317707B2F8A2F9F2F0E94F30ADF91CF911F9115
S11317800F91FF90EF90DF90CF90BF90AF909F901C
S11317908F907F900895AF92BF92CF92DF92EF9295
S11317A0FF920F931F93CF93DF93CDB7DEB7A69726
S11317B0CDBFDEBF2F8B388F498F5A8F6B8F7C8FB5
S11317C08D8F9E8FAF8EB8A2C9A2DAA2EBA2FCA223
S11317D00DA31EA30BE09E01295F3F4FAE014D5F99
S11317E05F4FBE016F5F7F4FCE0147960E94CA01D3
S11317F09E01215F3F4FAE014B5F5F4FBE016E5FA5
S11318007F4FCE014F960E94CA01EB81FC81EF3FCE
S113181027E0F20721F52F81388549855A856B85A4
S11318207C858D859E85A0E00E943F3509F06CC0C3
S11318308D819E818F3F27E0920769F42F85388937
S113184049895A896B897C898D899E890E943F3593
S113185009F063C043C0892B09F468C03FC08D817F
S11318609E818F3F27E09207E9F42F8538894989C3
S11318705A896B897C898D899E89A0E00E943F35B5
S113188009F05DC0EF2B09F463C08FEF97E08B8301
S11318909C831F82188619861A861B861C861D86C1
S11318A01E861CC0309709F45CC0009709F462C01E
S11318B0E80FF91FE950F440EB83FC8340E0BE01DC
S11318C0615F7F4FCE0107960E940C052F833887F6
S11318D049875A876B877C878D879E8769818A8130
S11318E0682769834B815C819E01295F3F4FCE014C
S11318F047960E9472022F89388D498D5A8D6B8DBF
S11319007C8D8D8D9E8D3EC02FEF3FEF4FEF5FEFAF
S11319106FEF7FEF8FEF9FE735C02FEF3FEF4FEF74
S11319205FEF6FEF7FEF8FEF9FE72CC02FEF3FEF5D
S11319304FEF5FEF6FEF7FEF8FEF9FE723C02FEF46
S11319403FEF4FEF5FEF6FEF7FEF8FEF9FE71AC02F
S11319502FEF3FEF4FEF5FEF6FEF7FEF8FEF9FE7DB
S113196011C020E030E040E050E060E070E080E052
S113197090E008C020E030E040E050E060E070E03B
S113198080E090E0A696CDBFDEBFDF91CF911F919E
S11319900F91FF90EF90DF90CF90BF90AF9008959C
S11319A0AF92BF92CF92DF92EF92FF920F931F9369
S11319B0CF93DF93CDB7DEB7E697CDBFDEBF2FA3BE
S11319C038A749A75AA76BA77CA78DA79EA7AFA640
S11319D0B8AAC9AADAAAEBAAFCAA0DAB1EAB0BE003
S11319E09E01295F3F4FAE014D5F5F4FBE016F5FA8
S11319F07F4FCE0187960E94CA019E01215F3F4F0F
S1131A00AE014B5F5F4FBE016E5F7F4FCE018F967D
S1131A100E94CA010D811E810115110509F482C0BD
S1131A20EB80FC808FEFE81687E0F806F1F42F8155
S1131A30388549855A856B857C858D859E85A0E092
S1131A400E943F3509F07AC00F3F174009F482C065
S1131A5099818A8198138AC0D12CE12CF12C00E061
S1131A6010E0B0E0F0EFEFE789C00F3F87E0180720
S1131A7009F5DF84E888F9880A891B89BC89FD890E
S1131A80EE892D2D3E2D4F2D502F612F7B2F8F2F23
S1131A909E2FA0E00E943F3509F470C0DD24DA9443
S1131AA0EE24EA94FF24FA940FEF1FEFBFEFFFEF49
S1131AB0EFE764C0CE010F960E945A062F8F38A319
S1131AC049A35AA36BA37CA38DA39EA340E0BE01AC
S1131AD0615E7F4FCE0107960E940C052F8B388FD5
S1131AE0498F5A8F6B8F7C8F8D8F9E8FA701401BE0
S1131AF0510B41505C4F4B835C834A5051096981BF
S1131B008A8168279E01295E3F4FCE0187960E94F5
S1131B107202DFA0E8A4F9A40AA51BA5BCA5FDA533
S1131B20EEA52CC0DD24DA94EE24EA94FF24FA9482
S1131B300FEF1FEFBFEFFFEFEFE720C0DD24DA94D4
S1131B40EE24EA94FF24FA940FEF1FEFBFEFFFEFA8
S1131B50EFE714C0DD24DA94EE24EA94FF24FA9427
S1131B600FEF1FEFBFEFFFEFEFE708C0D12CE12C21
S1131B70F12C00E010E0B0E0F0EFEFEF2D2D3E2D62
S1131B804F2D502F612F7B2F8F2F9E2FE696CDBF89
S1131B90DEBFDF91CF911F910F91FF90EF90DF9007
S1131BA0CF90BF90AF9008952F923F924F925F9243
S1131BB06F927F928F929F92AF92BF92CF92DF9259
S1131BC0EF92FF920F931F93CF93DF93CDB7DEB7BE
S1131BD0ED97CDBFDEBF2CA73DA74EA75FA768AB8F
S1131BE079AB8AAB9BABE9AECEAADFAA502E21E13A
S1131BF0201720F40F2EF1E15F2EF02D511002C0BA
S1131C00552453940BE09E012C5F3F4FAE014E5F71
S1131C105F4FBE016F5F7F4FCE018C960E94CA0159
S1131C208A819B81009731F4EEE5F0E280E38083C2
S1131C30118214C38F3F37E0930751F52C813D8106
S1131C404E815F81688579858A859B85A0E00E94A5
S1131C503F3559F0EEE5F0E28EE491E6808391831E
S1131C608EE490E082839383F9C28981811102C05A
S1131C708BE201C08DE280935E20EFE5F0E289E41F
S1131C809EE48083918386E490E082839383E6C21A
S1131C90AC014F5F53404A835B832981222331F097
S1131CA02DE220935E2081E088AF01C018AE552359
S1131CB0D4F01A01220C331CCA01880F991F880F13
S1131CC0991F880F991F280E391E9FE1290E311C78
S1131CD036942794369427943694279436942794EC
S1131CE03694279413C027EF24031001259F300C4A
S1131CF01124369427943694279436942794369452
S1131D00279436942794319421943108EE27FF27A1
S1131D10E219F3090E2FDF2E1F2F110F110BC12E05
S1131D20912E812E712E612E1C8A1D8A1E8A1F8A75
S1131D30188E198E1A8E80EA8B8F1C861D861E863D
S1131D401F86188A198A1A8A80E88B8B2E2F3F2FB8
S1131D50412F512F612F712F812F912FA0E00E94CD
S1131D603F350CF064C20E94D134022FD32E142FBD
S1131D70C52E962E872E782E692E0E943F3509F4A3
S1131D806BC04424439401C0412CA12CB12C0F2ED0
S1131D90F3E0EF2EF12CF02D202F217030E040E005
S1131DA050E060E070E080E090E0A0E00E943F3509
S1131DB0E1F0BE016C5E7F4FCE010C960E940C05D3
S1131DC02C873D874E875F87688B798B8A8B9B8BAB
S1131DD0CE010C960E94540497012F5F3F4F281B9D
S1131DE0310987FD3395A20EB31E40E0BE016C5E3F
S1131DF07F4FCB010E940C052C8B3D8B4E8B5F8B50
S1131E00688F798F8A8F9B8FEE0CFF1CAFEFEA1AD5
S1131E10FA0ACE0144960E945404E81AF10887FD98
S1131E20F394202F3D2D412F5C2D692D782D872D86
S1131E30962D01E00E94FA34022FD32E142FC52EC2
S1131E40962E872E782E692EA0E00E943F3509F049
S1131E50A3CF4420D1F002C0A12CB12CCE010C960A
S1131E600E945A062C873D874E875F87688B798B43
S1131E708A8B9B8BB194A194B108CE010C960E94DD
S1131E805404A81AB10887FDB3948A819B81A80ED3
S1131E90B91EAA82BB8240E0BE01645F7F4FCE01BF
S1131EA004960E940C052C833D834E835F836887D0
S1131EB079878A879B87CE0104960E94540421E087
S1131EC030E0F901E81BF10987FDF395CF012A8180
S1131ED03B81820F931F8A839B83992394F50F2E52
S1131EE0F0EAFF2EF02D04E010E01CA21DA21EA2B9
S1131EF01FA218A619A61AA6FBA640E0BE016C5D97
S1131F007F4FCE0104960E940C052C833D834E83A3
S1131F105F83688779878A879B87CE0104960E94AE
S1131F2054049801281B310987FD33958A819B81CC
S1131F30820F931F8A839B83F1E02F1A3108992320
S1131F40A4F21CEC2AC01C8F1D8F1E8F1F8F18A398
S1131F5019A31AA31BA340E0BE01645E7F4FCE0108
S1131F6004960E940C052C833D834E835F8368870F
S1131F7079878A879B87CE0104960E945404082E91
S1131F80000C990B03962A813B81A901481B590B2C
S1131F904A835B835FEF251A350AEA81FB81E430CB
S1131FA0F1058CF6E330F105A9F49B8520E030E0DF
S1131FB040E050E060E070E080E0907F2F3F3F4FD2
S1131FC04F4F5F4F6F4F7F4F8F4F9F4911F008F076
S1131FD0BACF3DC1B8ADBF5F8FEF850D552009F471
S1131FE087C01B2F0F2EFFE34F2E512CF02D68942A
S1131FF0AA24A2F8B12C8B0F99249394980E2AAE9C
S11320003BAE812F90E0FC01E25AFF4D20E3208398
S1132010EA81FB81ECAFFDAFFF23DCF13C806D80F6
S11320207E808F80E884F984BA85AB85FC01E25A0E
S1132030FF4DECABFDAB6201ECADFDADCE1ADF0A9A
S1132040232D362D472D582D6E2D7F2D8B2F9A2F16
S11320500C2D0E94FC34205DECA9FDA92083ECAD7D
S1132060FDAD3196232D362D472D582D6E2D7F2D08
S11320708B2F9A2F0E2F0E94E1342C833D834E83A5
S11320805F83688779878A879B872FEF3FEF2A834F
S11320903B831F5F1C8A1D8A1E8A1F8A188E198E15
S11320A01A8E30EA3B8F40E0BE016C5E7F4FCE015A
S11320B004960E940C052C833D834E835F836887BE
S11320C079878A879B87CE0104960E945404A501D0
S11320D0481B510987FD5395CA012A813B81820F10
S11320E0931F8A839B83B92D91128BCF2AAC3BAC6F
S11320F0EA81FB81FF230CF45AC00FE310E00E1BAE
S11321001F0B2C813D814E815F81688579858A858D
S11321109B850E94FC34A4E00E943F3509F008F43A
S113212046C03FEF3B0F58AD5317F0F0232F3B2F22
S113213026C0822F90E0FC01E25AFF4D40814933D2
S113214069F4322F02C050E368ADFC01E25AFF4D3E
S113215050832FEF230F621760F311C0FC01E25A82
S1132160FF4D4F5F40830BC0832F90E0FC01E25A88
S1132170FF4D4081493339F3232F3B2FEFCF88ADF7
S1132180821315C09FEF291A390AE32FF0E0E25AAF
S1132190FF4D81E380833F5F3B1748F480E3E32FE7
S11321A0F0E0E25AFF4D80833F5F3B13F8CFA8ADC8
S11321B08A2F90E0FC013196AF01425A5F4DFA013B
S11321C02081825A9F4DFC0120838EE2FA01808394
S11321D0F9ADFF2331F0EB2FF0E0E25AFF4D10820E
S11321E0BF5F31E03B0F8B2F90E0825A9F4D25E477
S11321F0FC0120831214130444F4BE5FE32FF0E0C7
S1132200E25AFF4D8BE2808301C0B32F6B2F70E045
S1132210625A7F4D4AE0C1010E9458362EA93FA957
S113222021153105D9F0F9012082318217C02E2FF2
S11322303F2F412F512F612F712F812F912FA0E01C
S11322400E943F3509F0A0CDA12CB12C1ECEB8AD13
S1132250BF5F8FEF850D5110C4CE4FCF8EE590E256
S1132260ED96CDBFDEBFDF91CF911F910F91FF900F
S1132270EF90DF90CF90BF90AF909F908F907F9022
S11322806F905F904F903F902F9008952F923F92C0
S11322904F925F926F927F928F929F92AF92BF9272
S11322A0CF92DF92EF92FF920F931F93CF93DF931E
S11322B0CDB7DEB76597CDBFDEBFA22E732E642ED9
S11322C0552E462E372EF82EB92E802EEA8AA0E0FF
S11322D00E943F3524F499249A94900E01C0902EC4
S11322E011E0190D191554F504C091160CF063C0D2
S11322F003C0812F192D982E9E012F5F3F4F690136
S1132300EE24E394092D2A2D372D462D552D642DC9
S1132310732D8F2D9B2D0E94D40DFC0120E030E005
S113232040E050E060E070E08F2D807F9B2D9F7730
S1132330A0E00E943F3509F478C188C02A2D372DCA
S1132340462D552D642D732D8F2D9B2D04E30E9456
S1132350FC342B8337703B87EFEFE80D2A2D372DA4
S1132360462D552D642D732D8F2D9B2D0FE30E942B
S1132370FC3420FF02C08E2F01C0882D8D8B482F86
S1132380082E000C550B488B598B0F2EF3E02F2E83
S1132390F02D5F2D507F5C879B2D9F779D87AA89A9
S11323A02A2F30E0A901409550954E875F878B8B8B
S11323B081508C8B01C0912ECE0101966C01EE24CC
S11323C0E394092D2A2D372D462D552D642D732D7B
S11323D08F2D9B2D0E94D40DFC012B813B8540E069
S11323E050E060E070E080E090E02F3FA7E03A0723
S11323F041055105610571058105910509F4ABC1DC
S113240020E030E08C859D85A0E00E943F3509F4F2
S1132410A2C189819A812E853F85821793070CF486
S113242094C1992324F481501D89180F09C0019681
S1132430488959898417950714F41C8901C01B899C
S11324402A94222019F0191150CF192DA981BA818B
S11324505A89852F90E0919581959109A817B9071C
S11324600CF4E3C0812F110F990BA817B9070CF0D6
S1132470DCC02A2D372D462D552D642D732D8F2D1F
S11324809B2D0FE30E94FC34622F617020FD319676
S1132490BB235CF01A161B060CF084C08281818376
S11324A0882309F457C081E074C0DF010D90002037
S11324B0E9F711979D012E1B3F0B8FEF820F22230B
S11324C021F1DF01A80FB11D9C91903311F03FC1A0
S11324D0892F1C929FEF980F8823B9F0DF01A90F71
S11324E0B11D2C912033A1F333C1282F30E0DF013B
S11324F0A20FB31F9C9149815A81241B350BDF0124
S1132500A20FB31F9C93815081F780E380838EE2F6
S1132510818389819A81019689839A8399230CF016
S11325207FC022E030E3DF01A20FB11D3C9389811B
S11325309A81019689839A832F5F9923A4F370C0AB
S1132540DF01A80FB11D11969C9111979C939111D5
S113255020C001C081E0282F30E049815A81421710
S1132560530784F070E391E0980FDF01A80FB11DC9
S11325707C93892F492F50E029813A81241735070C
S113258094F701C0982FDF01A90FB11D1C92892F68
S113259043C08F5F482F50E029813A8124173507C3
S11325A07CF601C081E0282F30E02F5F3F4F912C53
S11325B0281539058CF5DF01A80FB11D9C919923CD
S11325C059F18EE28C93DF010D900020E9F7119709
S11325D09D012E1B3F0B8FEF820F2223A9F0DF01F9
S11325E0A80FB11D9C91903379F48EEF820F01C036
S11325F0822F1C928F3F41F0DF01A80FB11D2FEFF6
S1132600280F9C919033A1F3DF01A80FB11D8C9189
S11326108E3231F41C9204C0DF01A80FB11D1C924C
S1132620662309F498C0319796C02A2D372D462D7C
S1132630552D642D732D8F2D9B2D0FE30E94FC349B
S1132640822F8170282E20FD03C01CEF180D02C0BC
S11326501BEF180D2A2D372D462D552D642D732D66
S11326608F2D9B2D04E30E94FC342B833C834D83EC
S11326705E836F83788789879A878B819C81977023
S113268089839A838F3FA3E09A070CF411508D5DE0
S113269093408534910508F0115011110CC011E0DC
S11326A00AC0115049F48281882361F18F7D8534F9
S11326B0E9F492E028C0912CC12CD12CE12C012FFB
S11326C02A2D372D462D552D642D732D8F2D9B2DA1
S11326D00E94D40DFC01DC010D900020E9F7119754
S11326E0A81BB90B8A169B06E0F2DDCF92E09F5F30
S11326F0DF01A90FB11D8C91882329F08F7D8534CA
S1132700B1F701C092E0892F8150843020F4211068
S11327100AC0833050F0DF01A80FB11D2C91203383
S113272099F3282F03C0282F01C0282F981B892F25
S1132730820F2F5FDF01A80FB11D8C91DF01A20F63
S1132740B11D8C938111F3CF06C0192D7FCE822F3A
S113275090819183CACECF016596CDBFDEBFDF9154
S1132760CF911F910F91FF90EF90DF90CF90BF908A
S1132770AF909F908F907F906F905F904F903F901D
S11327802F900895E0EAF6E080E1828380E282837C
S113279080E4828380E8828308958091A80684FD82
S11327A00EC08091E4209091E52080362AEE9207B5
S11327B0E8F401968093E4209093E52017C080917B
S11327C0E4209091E5208B30910548F0C39718F0F0
S11327D010926E2D07C081E080936E2D03C082E0BD
S11327E080936E2D1092E4201092E5208091A8062B
S11327F085FD0EC08091E2209091E32080362AEE80
S11328009207E8F401968093E2209093E32017C0A6
S11328108091E2209091E3208B30910548F0C3979A
S113282018F010926F2D07C081E080936F2D03C0C4
S113283082E080936F2D1092E2201092E320809129
S1132840A80686FD0EC08091E0209091E12080369C
S11328502AEE9207E8F401968093E0209093E12019
S113286017C08091E0209091E1208B30910548F0D1
S1132870C39718F01092702D07C081E08093702DDB
S113288003C082E08093702D1092E0201092E1202A
S11328908091A806882374F08091DE209091DF2037
S11328A080362AEE9207E8F401968093DE20909316
S11328B0DF2008958091DE209091DF208B309105F8
S11328C048F0C39718F01092712D07C081E08093EF
S11328D0712D03C082E08093712D1092DE2010923E
S11328E0DF200895813049F028F0823049F08330A8
S11328F051F00CC080916E2D089580916F2D089534
S11329008091702D08958091712D089582E008952D
S11329100F93CF93DF931F92CDB7DEB72FB72983E1
S1132920F8941BBEFC0108ED04BF608389818FBF4E
S11329300F90DF91CF910F910895611102C090E043
S113294001C090E2842B892B8093520008956F710B
S1132950862B809355000895E0E5F0E09081282FC0
S1132960209592239083908189230895682B81E494
S113297090E00E94881408950F931F93CF93C82F5B
S113298000E410E0F8016081687F682B80E490E047
S11329900E948814F80180818C23CF911F910F919C
S11329A00895FC019081907F692B60830895FC0158
S11329B09181987F692B61830895FC0196819C7FA6
S11329C0692B66830895000088ED84BF81E08093BD
S11329D0790008950E94E3140895CF93DF9380E172
S11329E090E00E948A16EC01009741F0FC011192DC
S11329F0119211921192CF010E94B116CE01DF9172
S1132A00CF9108952F923F924F925F926F927F924F
S1132A108F929F92AF92BF92CF92DF92EF92FF92EA
S1132A200F931F93CF93DF93EC014A015B01622E56
S1132A30702E0E94FE1D288039804A805B8001111F
S1132A400DC081E0B201A101482159216A217B21F5
S1132A50452B462B472B79F480E00DC081E0B20171
S1132A60A101482159216A217B21481559056A058C
S1132A707B0509F080E0882381F0662009F470C0AA
S1132A8080949094A094B09482209320A420B520A4
S1132A9088829982AA82BB8263C0C114D104E104F2
S1132AA0F10409F45DC0662029F040E050E060E0E4
S1132AB071E003C040E050E0BA017110746048292D
S1132AC059296A297B2997018601CE0104960E941F
S1132AD02D200E94E91E811102C00E940F180E943D
S1132AE06A2191FD39C0F091A200FF93F87FF09321
S1132AF0A200688179818A819B8171100DC021E0D7
S1132B0075016401C622D722E822F922CD28CE28F5
S1132B10CF2879F420E00DC021E075016401C622BC
S1132B20D722E822F922C814D904EA04FB0409F0E4
S1132B3020E0222371F0662061F080949094A094A8
S1132B40B09486229722A822B92288829982AA82E6
S1132B50BB82FF91F093A2001B012C01552402C0FB
S1132B600E94E91EC201B101DF91CF911F910F9123
S1132B70FF90EF90DF90CF90BF90AF909F908F9099
S1132B807F906F905F904F903F902F9008950F9398
S1132B901F93F091A200FF93F87FF093A200FC0131
S1132BA00081118122813381409550956095709503
S1132BB040235123622373234083518362837383AD
S1132BC0FF91F093A200C901B8011F910F910895DC
S1132BD04F925F926F927F92AF92BF92CF92DF92A9
S1132BE0EF92FF920F931F93CF93DF93EC016A014F
S1132BF07B018C01095F1F4F0E94FE1DEB85FC8544
S1132C0088819981AA81BB81C82AD92AEA2AFB2A08
S1132C10C882D982EA82FB820E171F0709F442C0D8
S1132C20C12CD12C7601A480B58080819181A281B0
S1132C30B381AC01BD017727B2FD0FC04880598034
S1132C406A807B80442255226622772221E045282F
S1132C504628472889F420E00FC0488059806A80BC
S1132C607B80442255226622772221E044165506B1
S1132C706606770609F020E0222371F0B0FF04C055
S1132C80C42AD52AE62AF72A488159816A817B8198
S1132C907260CF010E94B520EA2DFB2D0E171F078D
S1132CA011F603C0C12CD12C7601C094D094E094C9
S1132CB0F09488819981AA81BB81C822D922EA2211
S1132CC0FB22C882D982EA82FB820E94E91E6881C3
S1132CD079818A819B81DF91CF911F910F91FF9020
S1132CE0EF90DF90CF90BF90AF907F906F905F9008
S1132CF04F9008950E94E81508950F931F9389013A
S1132D009A01AB01BC018AE796E10E944A241F9113
S1132D100F910895CF93DF93EC010E94FE1D209143
S1132D20E6203091E720C9018C0F9D1F883B4BE0C2
S1132D30940758F42817390758F4E901C851DF4DAE
S1132D408093E6209093E72005C0C0E0D0E002C065
S1132D50C0E0D0E00E94E91ECE01DF91CF9108953A
S1132D600895FC010396818392834FEF5FEFBA01CC
S1132D70438354836583768387839087818792878F
S1132D8010820895FC01128613860895CF93DF9371
S1132D909C01FB01DC011196CD91DC911297C48357
S1132DA0D5838E819F81868397838E819F81DC0169
S1132DB014966D937C9315976E837F832287338754
S1132DC0F90180818F5F8083DF91CF9108950F9304
S1132DD01F93CF93DF93EB01088119812A813B81F3
S1132DE00F3F4FEF14072407340721F4FC01A1859A
S1132DF0B28511C0DC01139601C0DF011496ED9178
S1132E00FC911597408151816281738104171507E4
S1132E102607370790F71496ED91FC911597EC83EC
S1132E20FD83C683D783AE83BF831496CD93DC938F
S1132E3015978A879B87FC0120812F5F2083DF9170
S1132E40CF911F910F910895CF93DF93FC01A28539
S1132E50B385C481D581868197818E839F83C68102
S1132E60D781848195818C839D8311968D919C91CA
S1132E701297E817F90731F48681978111968D939B
S1132E809C931297128613868C9181508C938C910B
S1132E90DF91CF910895E0EAF0E082819281987FFA
S1132EA092830895CF92DF92EF92FF9231E1FC0179
S1132EB03083319722E220833197A3E3A0836B010F
S1132EC0E12CF12C319760833197D0823197E082E5
S1132ED0319761E36083319760E86083319767E8F5
S1132EE060833197108231971082319762E060835A
S1132EF0319763E06083319764E06083319765E0E4
S1132F006083319766E06083319767E0608331972F
S1132F1068E06083319769E06083319760E16083A2
S1132F2031973083319732E13083319733E1308305
S1132F30319734E13083319735E13083319736E18D
S1132F403083319737E13083319738E130833197DB
S1132F5039E13083319730E23083319731E2308385
S1132F6031972083319723E220836A01319740838C
S1132F703197D082319726E22083319727E220834C
S1132F80319728E22083319729E22083319720E387
S1132F9020838897FF90EF90DF90CF90089583EF80
S1132FA091E0809326089093270865E080E098E0FC
S1132FB00E94D11461E080E098E00E94DD14A091A9
S1132FC00E2DB0910F2D0D900DBE0D900EBEEF91F4
S1132FD0DF91CF91BF91AF919F918F917F916F912D
S1132FE05F914F913F912F911F910F91FF90EF901F
S1132FF0DF90CF90BF90AF909F908F907F906F9015
S11330005F904F903F902F901F900F90FF91F093FF
S1133010A200FF91FFBFFF91089581E00895FF93FF
S1133020FFB7FF93F091A200FF93F87FF093A20003
S11330300F921F9211242F923F924F925F926F92A0
S11330407F928F929F92AF92BF92CF92DF92EF9234
S1133050FF920F931F932F933F934F935F936F931D
S11330607F938F939F93AF93BF93CF93DF93EF930C
S1133070A0910E2DB0910F2D0DB60D920EB60D929E
S11330800E94871FA0910E2DB0910F2D0D900DBEA3
S11330900D900EBEEF91DF91CF91BF91AF919F91B3
S11330A08F917F916F915F914F913F912F911F91DC
S11330B00F91FF90EF90DF90CF90BF90AF909F90D3
S11330C08F907F906F905F904F903F902F901F90C4
S11330D00F90FF91F093A200FF91FFBFFF9108951D
S11330E0CF939091722D892B8093722D9091A00093
S11330F0913041F09091A000923021F09091A00085
S1133100943059F4882349F00E944B17C82F109229
S1133110722D0E94871FC093A200CF910895FF9340
S1133120FFB7FF93F091A200FF93F87FF093A20002
S11331300F921F9211242F923F924F925F926F929F
S11331407F928F929F92AF92BF92CF92DF92EF9233
S1133150FF920F931F932F933F934F935F936F931C
S11331607F938F939F93AF93BF93CF93DF93EF930B
S1133170A0910E2DB0910F2D0DB60D920EB60D929D
S11331800E944B17C82F0E94161EC093A20081E014
S11331900E947018A0910E2DB0910F2D0D900DBEB0
S11331A00D900EBEEF91DF91CF91BF91AF919F91A2
S11331B08F917F916F915F914F913F912F911F91CB
S11331C00F91FF90EF90DF90CF90BF90AF909F90C2
S11331D08F907F906F905F904F903F902F901F90B3
S11331E00F90FF91F093A200FF91FFBFFF911895FC
S11331F0F091A200FF93F87FF093A200FC01968D5A
S1133200FF91F093A20081E0911180E00895DC0128
S1133210F091A200FF93F87FF093A2005E969C9138
S11332205E97FF91F093A20081E05F962C912913A1
S113323080E008950F931F93CF93DF93EC01042F45
S11332401E8D48A14423B9F1011116C050E08C81B0
S11332509D810E943D3628A18C819D81820F911D04
S11332608C839D832A813B818217930720F1888177
S113327099818C839D831FC050E08E819F810E9421
S11332803D3688A190E09195819591092E813F81E9
S1133290280F391F2E833F8348815981241735070E
S11332A030F42A813B81820F931F8E839F830230E7
S11332B011F4111111501F5F1E8F80E0DF91CF9127
S11332C01F910F910895FC0140A14423A9F050E0FF
S11332D026813781240F351F26833783828193818A
S11332E02817390720F08081918186839783CB0149
S11332F0668177810E943D360895EF92FF920F9385
S11333001F93CF938C01F091A200FF93F87FF09369
S1133310A200FC01C2A11C16ACF48389811106C071
S113332011C0F8018389811105C00CC07801F3E153
S1133330EF0EF11CC7010E94732081110E945821D5
S1133340C15079F78FEFF80182A3FF91F093A200A7
S1133350F091A200FF93F87FF093A200F801C1A1BD
S11333601C16ACF48085811106C011C0F80180855B
S1133370811105C00CC07801F8E0EF0EF11CC70103
S11333800E94732081110E945821C15079F78FEF58
S1133390F80181A3FF91F093A200CF911F910F91A7
S11333A0FF90EF900895CF93DF93EC01F091A2008A
S11333B0FF93F87FF093A2004881598128A130E05F
S11333C07F8D729FC001739F900D1124FA01E80F45
S11333D0F91FEA83FB831E8E4C835D83821B930B50
S11333E0840F951F8E839F838FEF89A38AA3611116
S11333F00CC08885882389F0CE0108960E9473202A
S1133400882359F00E940F1808C0CE0108960E9424
S1133410B116CE0143960E94B116FF91F093A2001B
S113342081E0DF91CF910895FF920F931F93CF9383
S1133430DF93082F162FF42E6623C9F0869FC00150
S1133440112485960E948A16EC01009749F416C04F
S11334500F8F18A361E0CE010E94D319FCA20EC005
S1133460859688839983F4CFC883D983F1CF85E285
S113347090E00E948A16EC01892BB1F7CE01DF910E
S1133480CF911F910F91FF900895AF92BF92CF9269
S1133490DF92EF92FF920F931F93CF93DF93CDB7F9
S11334A0DEB72997CDBFDEBF7C015B012E833F834E
S11334B04887598710E06C0188E0C80ED11CF09150
S11334C0A200FF93F87FF093A200F701968D878DF9
S11334D0981710F00230D1F4402FB501C7010E94B3
S11334E01A19F7019389992349F0C70143960E9459
S11334F07320882331F00E940F1803C081110E94A9
S11335000F18FF91F093A20081E057C08E819F8134
S1133510A885B985892B8A2B8B2B29F4FF91F093ED
S1133520A20080E04AC0111105C0CE0101960E949C
S1133530E92011E0FF91F093A2000E94FE1DF0919A
S1133540A200FF93F87FF093A200F70181A18F3FBF
S113355009F411A2F70182A18F3F09F412A2FF918D
S1133560F093A200BE016A5F7F4FCE0101960E94D4
S1133570FA2081111CC0C7010E940719882389F011
S11335804E815F8168857985C6010E941520C70137
S11335900E947D190E94E91E811191CF0E940F188B
S11335A08ECFC7010E947D190E94E91E88CFC701F2
S11335B00E947D190E94E91E80E02996CDBFDEBFDE
S11335C0DF91CF911F910F91FF90EF90DF90CF90FB
S11335D0BF90AF900895AF92BF92CF92DF92FF92C7
S11335E00F931F93CF93DF93EC016B015A01022FCA
S11335F00E944B17F82E9E8D8F8D981710F0023075
S1133600E1F41AA1402FB601CE010E941A191F3FFE
S113361081F48B89882399F0CE0143960E9473200C
S1133620882379F0A114B10471F081E0F50180835D
S11336300BC01F5F1AA381E007C080E005C081E0D2
S113364003C081E001C081E0F092A200DF91CF913C
S11336501F910F91FF90DF90CF90BF90AF9008958E
S1133660AF92BF92CF92DF92EF92FF920F931F938C
S1133670CF93DF93CDB7DEB72997CDBFDEBF8C01E3
S11336805B012E833F8348875987E12C6C0183E1DA
S1133690C80ED11CF091A200FF93F87FF093A20012
S11336A0F801F68CFF20B1F0B501C8010E9463193E
S11336B0FA94F801F68E8085882339F0C8010896BB
S11336C00E94732081110E940F18FF91F093A200B1
S11336D081E05EC08E819F81A885B985892B8A2B64
S11336E08B2B29F4FF91F093A20080E051C0E110EC
S11336F006C0CE0101960E94E920EE24E394FF91D6
S1133700F093A2000E94FE1DF091A200FF93F87FA7
S1133710F093A200F80181A18F3F09F411A2F801EE
S113372082A18F3F09F412A2FF91F093A200BE017F
S11337306A5F7F4FCE0101960E94FA2081111CC05E
S1133740C8010E94F818882389F04E815F8168853A
S11337507985C6010E941520C8010E947D190E9426
S1133760E91E811197CF0E940F1894CFC8010E94BF
S11337707D190E94E91E8ECFC8010E947D190E9406
S1133780E91EC8010E94F818882309F483CF80E059
S11337902996CDBFDEBFDF91CF911F910F91FF908E
S11337A0EF90DF90CF90BF90AF900895F091A2007A
S11337B0FF93F87FF093A200FC01868DFF91F093B4
S11337C0A2000895CF93DF93EC01F091A200FF9340
S11337D0F87FF093A20089A18F3F09F419A28AA16E
S11337E08F3F09F41AA2FF91F093A2008E8D8111EC
S11337F004C0CE0143960E945220CE010E947D193E
S1133800DF91CF910895E091CA2CF091CB2C808167
S113381081110CC08FEF9FEFDC018093A32C909358
S1133820A42CA093A52CB093A62C0895E091CA2CA7
S1133830F091CB2C0780F085E02D0084F185E02DFC
S113384082819381A481B5818093A32C9093A42C2D
S1133850A093A52CB093A62C08958F929F92AF921B
S1133860BF92CF92DF92EF92FF92CF936B017C01D4
S1133870C42F8090AD2C9090AE2CA090AF2CB09023
S1133880B02C80910E2D90910F2D02960E9424173A
S11338908FEFC816D806E806F80669F4CC2359F069
S11338A060910E2D70910F2D6E5F7F4F82EB9CE225
S11338B00E94C6163FC0C80CD91CEA1CFB1CE09130
S11338C00E2DF0910F2DC282D382E482F582C814AA
S11338D0D904EA04FB0468F460910E2D70910F2D55
S11338E08091C82C9091C92C6E5F7F4F0E94E7167F
S11338F021C060910E2D70910F2D8091CA2C909152
S1133900CB2C6E5F7F4F0E94E7168091A32C909181
S1133910A42CA091A52CB091A62CC816D906EA0611
S1133920FB0640F4C092A32CD092A42CE092A52CC8
S1133930F092A62CCF91FF90EF90DF90CF90BF90A4
S1133940AF909F908F900895C2EEDCE28881823020
S113395010F00E940F180E94DB27F8CF4F925F925D
S11339606F927F928F929F92AF92BF92CF92DF928B
S1133970EF92FF920F93CF93DF934C016B015A01A7
S11339802901CA010E948A163C01892B09F4EAC064
S11339908CE290E00E948A16EC01892BB1F06B8EC8
S11339A07C8EA50165EA70E0C3010E94463621E0E1
S11339B0A21AB1088B8D9C8DA80EB91ED6018C91CC
S11339C08D8F8C91811105C018C0C3010E94B0165F
S11339D0C9C0AE01425E5F4FF6013196B8E0CB0E2E
S11339E0D11CCF012191DA012D93AD01DC018C9121
S11339F0882319F0EC15FD05A1F71CA2043008F08A
S1133A0003E00A8F6E01B2E0CB0ED11CC6010E9406
S1133A10C216CE010E960E94C216CA87DB8784E0C6
S1133A2090E0A0E0B0E0801B9109A109B1098E8764
S1133A309F87A88BB98BCE8BDF8B1FA218A619A6E4
S1133A401AA61BA6A201B401C5010E9452178883BD
S1133A509983E114F10419F0F701C083D183F09143
S1133A60A200FF93F87FF093A2008091B12C8F5FA6
S1133A708093B12C80910E2D90910F2D892BA9F557
S1133A80C0930E2DD0930F2D8091B12C8130E9F588
S1133A9082EE9CE20E94B1168DEE9CE20E94B11669
S1133AA088EF9CE20E94B11683E09DE20E94B11669
S1133AB087ED9CE20E94B1168CEC9CE20E94B11648
S1133AC08DEB9CE20E94B11682EB9CE20E94B1163F
S1133AD087ED9CE28093CA2C9093CB2C8CEC9CE2D7
S1133AE08093C82C9093C92C10C08091AB2C811169
S1133AF00CC0E0910E2DF0910F2D928D8A8D8917B7
S1133B0020F0C0930E2DD0930F2D8091A72C8F5FA2
S1133B108093A72C8DA38A8D9091AC2C981710F4C8
S1133B208093AC2CFBE08F9FC0011124B6018E5111
S1133B30934D0E94C616FF91F093A2008091AB2C86
S1133B40882361F0E0910E2DF0910F2D928D8A8DD6
S1133B50981730F40E940F1881E005C081E003C07B
S1133B6081E001C08FEFDF91CF910F91FF90EF9033
S1133B70DF90CF90BF90AF909F908F907F906F9089
S1133B805F904F900895EF92FF920F930F2EF1EAFA
S1133B90EF2EFCE2FF2EF02D00E020E030E048ECB8
S1133BA050E060E070E284EA9CE10E94AE1C813047
S1133BB009F50E9408228130E9F4E0EAF0E082810C
S1133BC0887F82838FEF9FEFDC018093A32C9093F7
S1133BD0A42CA093A52CB093A62C81E08093AB2CAD
S1133BE01092AD2C1092AE2C1092AF2C1092B02CDF
S1133BF00E94CF170F91FF90EF9008958091A02C11
S1133C008F5F8093A02C0895F091A200FF93F87F1A
S1133C10F093A2006091AD2C7091AE2C8091AF2CEA
S1133C209091B02CFF91F093A2000895AF92BF92AF
S1133C30CF92DF92EF92FF920F931F93CF93DF9374
S1133C408091A02C8111ADC0C090AD2CD090AE2C31
S1133C50E090AF2CF090B02C8FEFC81AD80AE80A85
S1133C60F80AC092AD2CD092AE2CE092AF2CF09218
S1133C70B02CC114D104E104F104B9F48091CA2C2C
S1133C809091CB2C2091C82C3091C92C2093CA2C14
S1133C903093CB2C8093C82C9093C92C8091A82C62
S1133CA08F5F8093A82C0E94031C8091A32C909179
S1133CB0A42CA091A52CB091A62CC816D906EA066E
S1133CC0FB0610F4B12C5CC0B12C0F2EFBE0AF2E20
S1133CD0F02DE091CA2CF091CB2C808181110CC085
S1133CE08FEF9FEFDC018093A32C9093A42CA093DF
S1133CF0A52CB093A62C44C0E091CA2CF091CB2CF7
S1133D000780F085E02DC085D1858A819B81AC81B7
S1133D10BD81C816D906EA06FB0648F48093A32C95
S1133D209093A42CA093A52CB093A62C29C08E010B
S1133D300E5F1F4FC8010E942417888D998D892B0F
S1133D4021F0CE010E960E9424178A8D9091AC2CFE
S1133D50981710F48093AC2CA89EC0011124B801CC
S1133D608E51934D0E94C616E0910E2DF0910F2DA9
S1133D709A8D828D981708F4ACCFBB24B394A9CF45
S1133D80E0910E2DF0910F2DE28D8BE0E89FF00174
S1133D901124EE51F34D8081823048F0BB24B3945A
S1133DA006C08091AA2C8F5F8093AA2CB12C80919D
S1133DB0A92C882311F0BB24B3948B2DDF91CF91D0
S1133DC01F910F91FF90EF90DF90CF90BF90AF9035
S1133DD00895CF92DF92EF92FF920F931F93CF93A8
S1133DE0DF93F091A200FF93F87FF093A2008091FB
S1133DF0A02C81508093A02C8091A02C81115CC0B8
S1133E008091B12C81112CC05AC0D7011796ED9125
S1133E10FC911897C085D185CE010E960E94241777
S1133E208E010E5F1F4FC8010E9424178A8D909146
S1133E30AC2C981710F48093AC2CD89EC00111249C
S1133E40B8018E51934D0E94C616E0910E2DF0914B
S1133E500F2D9A8D828D981788F0C092A92C0EC0D0
S1133E60C0E0D0E00F2EFDEBEF2EFCE2FF2EF02D94
S1133E700F2EFBE0DF2EF02DCC24C394F7018081BC
S1133E808111C3CFCD2B11F00E94031CC091AA2C29
S1133E90CC2351F0D1E00E94161E8111D093A92C9D
S1133EA0C150C9F71092AA2C8091A92C882331F013
S1133EB00E940F1881E003C080E001C080E0FF9100
S1133EC0F093A200DF91CF911F910F91FF90EF909B
S1133ED0DF90CF900895CF92DF92EF92FF926B0123
S1133EE07C01672B682B692B59F00E94FE1D40E072
S1133EF0C701B6010E942D1C0E94E91E811102C057
S1133F000E940F18FF90EF90DF90CF90089580915A
S1133F10A02C882321F081E08093A92C089510928D
S1133F20A92CE0910E2DF0910F2D038CF48DE02D32
S1133F3080819181A281B381853A954AA54AB54A87
S1133F40D9F484819581A681B781853A954AA54A99
S1133F50B54A91F480859185A285B385853A954AC1
S1133F60A54AB54A49F484859585A685B785853AD9
S1133F70954AA54AB54A61F060910E2D70910F2DB6
S1133F8080910E2D90910F2D635E7F4F0E94EA1455
S1133F908091AC2C282F30E09BE0899FF001112404
S1133FA0EE51F34D908191110EC04BE08150282FBA
S1133FB030E0429FF001439FF00D1124EE51F34D88
S1133FC09081992399F39BE0929FA001939F500DB8
S1133FD01124DA01AE51B34D1196ED91FC91129773
S1133FE00480F581E02D1196ED93FC9312974B51CB
S1133FF0534DE417F50729F444815581FD014183AC
S113400052839BE0929FF001939FF00D1124EE5197
S1134010F34D0180F281E02D2085318520930E2D12
S113402030930F2D8093AC2C0895CF92DF92EF92B2
S1134030FF926A017B0160910E2D70910F2D625FDA
S11340407F4F0E94E71641E0C701B6010E942D1C74
S1134050FF90EF90DF90CF900895CF92DF92EF9290
S1134060FF920F931F9368017901E0910E2DF09157
S11340700F2D706846875787608B718B60910E2D6A
S113408070910F2D625F7F4F0E94C61641E0C701F9
S1134090B6010E942D1C1F910F91FF90EF90DF90AD
S11340A0CF900895CF92DF92EF92FF92CF936A015F
S11340B07B01C22F60910E2D70910F2D625F7F4F97
S11340C00E94C616CC2321F0CC24CA94DC2C7601A1
S11340D04C2FC701B6010E942D1CCF91FF90EF9089
S11340E0DF90CF9008950F931F93CF93DF93DC015C
S11340F01796ED91FC911897C085D1858E01025FCA
S11341001F4FC8010E9424178091A02C811116C052
S11341100C501109C8010E9424178A8D9091AC2C6F
S1134120981710F48093AC2CBBE08B9FC001112432
S1134130B8018E51934D0E94C61605C0B8018DEB8F
S11341409CE20E94C616E0910E2DF0910F2D9A8DDF
S1134150828D891720F481E08093A92C01C080E02E
S1134160DF91CF911F910F9108950F931F93CF93D8
S1134170DF937068FC014083518362837383C0853D
S1134180D1850E9424178E010E5F1F4FC8010E9423
S113419024178A8D9091AC2C981710F48093AC2C32
S11341A0FBE08F9FC0011124B8018E51934D0E94F2
S11341B0C616E0910E2DF0910F2D9A8D828D8917E0
S11341C018F481E08093A92CDF91CF911F910F9176
S11341D008952091A82CFC0120834091AD2C50918E
S11341E0AE2C6091AF2C7091B02C418352836383C9
S11341F074830895CF92DF92EF92FF920F931F93EF
S1134200CF93DF93DB01F091A200FF93F87FF0934B
S1134210A2004091AD2C5091AE2C6091AF2C7091C6
S1134220B02C0D911D912D913C9113970F3FCFEF21
S11342301C072C073C0769F1FC01C180D280E38094
S1134240F480E091A82CEC01F881FE1729F04C15BC
S11342505D056E057F05F8F44C195D096E097F094B
S1134260401751076207730768F4FD01041B150B1F
S1134270260B370B00831183228333830E94E920AA
S113428080E00AC01D921D921D921C92139781E03A
S113429003C080E001C081E0FF91F093A200DF91B0
S11342A0CF911F910F91FF90EF90DF90CF900895E1
S11342B081E08093A92C08958091AB2C882331F060
S11342C08091A02C882321F080E0089581E0089556
S11342D082E00895CF92DF92EF92FF92E0910E2D4B
S11342E0F0910F2D6685778580899189E0910E2D57
S11342F0F0910F2DA0910E2DB0910F2D5A962C9167
S1134300C12CD12C76016894C2F8C21AD108E108F4
S1134310F108C686D786E08AF18AFF90EF90DF9095
S1134320CF900895CF92DF92EF92FF920F931F9355
S1134330FC014283538364837583828793870417C4
S1134340150726073707C0F00C191D092E093F0968
S113435086859785A089B189081719072A073B071D
S113436000F5BF016E5F7F4F8091182D9091192D3C
S11343700E94E71680E018C00C151D052E053F05A8
S113438028F44C155D056E057F0568F4BF016E5F6A
S11343907F4F80911A2D90911B2D0E94E71680E08B
S11343A003C081E001C081E01F910F91FF90EF9065
S11343B0DF90CF900895F091A200FF93F87FF093DF
S11343C0A2008091162D9091172D892BE9F487E294
S11343D09DE20E94B1168CE19DE20E94B11687E233
S11343E09DE280931A2D90931B2D8CE19DE2809386
S11343F0182D9093192D40E069E085E00E94141A6D
S11344008093162D9093172DFF91F093A200089599
S1134410EF92FF920F930E94DB218091162D9091D1
S1134420172D892B91F00F2EF4E1EF2EFDE2FF2ED4
S1134430F02D03E020E030E048EC50E065E070E26D
S11344408BE193E20E94AE1C01C080E00F91FF90CB
S1134450EF9008958F929F92AF92BF92CF92DF9286
S1134460EF92FF920F931F93CF93DF93CDB7DEB7F5
S11344702997CDBFDEBFE091162DF091172D30970F
S113448089F169832A833B834C835D838E839F8375
S11344906630FCF40E945C21823069F400E0A701DC
S11344A09601BE016F5F7F4F8091162D9091172D5D
S11344B00E94451A18C000E020E030E0A901BE01C6
S11344C06F5F7F4F8091162D9091172D0E94451A92
S11344D00AC020E0A801BE016F5F7F4FCF010E9498
S11344E0EB1A01C080E02996CDBFDEBFDF91CF91EA
S11344F01F910F91FF90EF90DF90CF90BF90AF90FE
S11345009F908F9008952F923F924F925F926F9257
S11345107F928F929F92AF92BF92CF92DF92EF924F
S1134520FF920F931F93CF93DF931C010E94041EED
S11345302B013C018091102D9091112DA091122DF1
S1134540B091132D481659066A067B0608F054C02C
S11345503CC00780F085E02D80809180A280B380EC
S1134560C085D1858E010E5F1F4FC8010E9424179C
S1134570ED89FE89CE0119958A89813031F58E85C0
S11345809F85A889B989880D991DAA1DBB1D881608
S11345909906AA06BB0670F48A839B83AC83BD8309
S11345A0CA87DB87B80180911A2D90911B2D0E9438
S11345B0E7160BC0C12CD12C760100E010E0A50158
S11345C0940160E0CE010E942A22E0911A2DF0911C
S11345D01B2D80818111BDCF8091182D9091192DB3
S11345E080931A2D90931B2DE093182DF093192D81
S11345F081E0F101808302C0F10110824092102D0C
S11346005092112D6092122D7092132DC301B2019C
S1134610DF91CF911F910F91FF90EF90DF90CF909A
S1134620BF90AF909F908F907F906F905F904F90CE
S11346303F902F900895CF93DF93CDB7DEB72E9799
S1134640CDBFDEBFCE0101961C01A82EB32CE09194
S11346501A2DF0911B2D8081882309F403C1078052
S1134660F085E02D40805180628073800E94FE1DA1
S1134670C1010E9483226B877C878D879E878981F5
S113468081115EC08B859C85AD85BE85841595059D
S1134690A605B705E8F10E94E91EE0911A2DF091F4
S11346A01B2D0780F085E02D80849184C40102963F
S11346B00E942417D40152968C915297813001F5AF
S11346C01E964D915D916D917C915197440D551DB0
S11346D0661D771D730162010B851C852D853E8542
S11346E0C4010E949221882359F0C12CD12C760157
S11346F000E010E0A301920160E0C4010E942A22BC
S1134700D4015596ED91FC915697C40119959CC01E
S113471020E0B301A2018B859C85AD85BE85481B35
S1134720590B6A0B7B0B8091162D9091172D0E94CB
S1134730E21B0E94E91E811187C00E940F1884C0E9
S11347400E94E91E81C0898188236CF44E815F81B7
S113475068857985EA81FB818C819D8119958981A0
S113476088230CF471C08E809F80D4011C968D9197
S11347709C911D97892B21F0C40102960E94241755
S1134780CE010A960E9483228B019C018981082E06
S1134790000C990BAA0BBB0B8A30910508F054C08E
S11347A0FC018827E250FF4F8F4F0C947034CA806D
S11347B0DB80EC80FD80F401468557856089718932
S11347C04C0D5D1D6E1D7F1DC4010E949221882326
S11347D0D9F1D4015596ED91FC915697C4011995E0
S11347E0F4018289813081F54A815B816C817D810C
S11347F086859785A089B1899A01AB01280F391F55
S11348004A1F5B1FC12CD12C760100E010E060E050
S1134810C4010E942A2218C04A815B816C817D8177
S1134820D4011E964D935D936D937C935197400FE5
S1134830511F621F731F68017901C4010E949221F4
S113484003C0C4010E94B01620E030E0A9016A2D23
S11348507B2D8091162D9091172D0E94301B811174
S113486072CFF5CE0E94FE1DC1010E9483226B8788
S11348707C878D879E878981811162CFE091182D75
S1134880F091192D808121E0811120E0412C512CDF
S113489032013FCF0F931F93CF93DF93CDB7DEB792
S11348A02997CDBFDEBFEEEFE9838A839B836C83B8
S11348B07D832E833F834887598720E0A801BE016A
S11348C06F5F7F4F8091162D9091172D0E94EB1AE8
S11348D02996CDBFDEBFDF91CF911F910F9108952F
S11348E0E0E5F0E0808181608083818180FFFDCFFD
S11348F080E00E94BC148EE10E94AC1460E080E071
S11349000E94B61443E060E080E40E949D14E0E558
S1134910F0E0808188608083818183FFFDCF64E043
S113492080EC0E94A714E0E5F0E080818061808340
S113493060E080E00E94B614E0E5F0E0818184FF4D
S1134940FDCF84E00E94BC1487E00E94AC1408955B
S11349500F2EFDE06F2EF0E27F2EF02DC3E7DDE297
S11349600F2EF3E18F2EF0E29F2EF02D0F2EF0E1AB
S1134970AF2EF0E2BF2EF02D552453946894FF24FB
S1134980F1F80F2EFEE2CF2EF0E2DF2EF02D0F2EE7
S1134990F3E02F2EF02D20913E2D30913F2D4091AC
S11349A0402D5091412D6091422D7091432D68947A
S11349B0EE24E4F800E18091442D9091452D0E946D
S11349C046119F938F937F926F92DF93CF930E94B0
S11349D0B9360E949C2A9F928F921F921F921F9217
S11349E01F920E94A72ADF93CF93BF92AF921F9288
S11349F01F921F925F920E94A72A40E050E0BA01E2
S1134A008091892D90918A2D0E94C7158DB79EB7EC
S1134A1044968DBF9EBF62FF11C08EE190E29F93CA
S1134A208F931F921F921F92FF920E94A72A0F90AA
S1134A300F900F900F900F900F9010C086E290E2AD
S1134A409F938F931F921F921F92FF920E94A72AF7
S1134A500F900F900F900F900F900F90E091322DC8
S1134A60F091332DA091342DB091352D0091362D38
S1134A70E090372D4090382D3090392D2E2F3F2F38
S1134A804A2F5B2F602F7E2D842D932D2A3B33419B
S1134A9042405105610571058105910529F020F019
S1134AA010923C2D10923D2D3F924F92EF920F9316
S1134AB0BF93AF93FF93EF9380913B2D8F9380919E
S1134AC03A2D8F93DF92CF921F921F921F922F92B3
S1134AD00E94A72A64EF71E080E090E00E946B1FBF
S1134AE08DB79EB740968DBF9EBF55CFC1E0D0E035
S1134AF00E94CD1380E00E947214813071F4C0933F
S1134B003C2DD0933D2D41E050E060E070E0809179
S1134B10892D90918A2D0E94E81581E00E947214DB
S1134B20813071F410923C2D10923D2D41E050E003
S1134B3060E070E08091892D90918A2D0E94C715C4
S1134B4082E00E947214813051F442E050E060E04F
S1134B5070E08091892D90918A2D0E94E8156AE079
S1134B6070E080E090E00E946B1FC2CFCF93DF9390
S1134B70CDB7DEB72897CDBFDEBFE0E8F6E081E031
S1134B8081838483412C512C612C712C812C912C98
S1134B9018861F8240E050E0BA018091892D9091DF
S1134BA08A2D0E94C71560FF85C12091322D217086
S1134BB030E040E050E060E070E080E090E0A0E0B1
S1134BC00E943F3509F4B6C060E070E080E090E4F4
S1134BD00E94360AA22EB32EC42ED52EE62EF72E10
S1134BE0082F192F242D352D462D572D682D792D5D
S1134BF088859F810E94CB0B222E332E49835A83B2
S1134C006B837C838D839E8360E070E080E89FE308
S1134C100E94360AA22EB32EC42ED52EE62EF72ECF
S1134C20082F192F222D332D49815A816B817C81C4
S1134C308D819E810E94F30AA22EB32EC42ED52EFE
S1134C40E62EF72E082F192F60E070E080E890E43C
S1134C500E94360A0E94D00CA22EB32EC42ED52E4A
S1134C60E62EF72E20913E2D30913F2D4091402D80
S1134C705091412D6091422D7091432D082F192F91
S1134C808091442D9091452D0E948B0B20933E2DB5
S1134C9030933F2D4093402D5093412D6093422DEE
S1134CA07093432D8093442D9093452D60E070E0E4
S1134CB080E89FE30E94360AA22EB32EC42ED52E7E
S1134CC0E62EF72E082F192F242D352D462D572D7E
S1134CD0682D792D88859F810E94F30A422E532ED8
S1134CE0642E752E862E972E88879F832091322DD1
S1134CF03091332D4091342D5091352D6091362DC6
S1134D007091372D8091382D9091392DA1E00E941A
S1134D1021352093322D3093332D4093342D5093ED
S1134D20352D6093362D7093372D8093382D9093C5
S1134D30392DB5C060E070E080E090E40E94360A4E
S1134D40A22EB32EC42ED52EE62EF72E082F192F01
S1134D50242D352D462D572D682D792D88859F813D
S1134D600E94CB0B222E332E49835A836B837C8380
S1134D708D839E8360E070E080E89FE30E94360AA2
S1134D80A22EB32EC42ED52EE62EF72E082F192FC1
S1134D90222D332D49815A816B817C818D819E81A5
S1134DA00E94F30AA22EB32EC42ED52EE62EF72E81
S1134DB0082F192F60E070E080E890E40E94360A22
S1134DC00E94D00CA22EB32EC42ED52EE62EF72E82
S1134DD020913E2D30913F2D4091402D5091412DF9
S1134DE06091422D7091432D082F192F8091442DED
S1134DF09091452D0E94F30A20933E2D30933F2D30
S1134E004093402D5093412D6093422D7093432D38
S1134E108093442D9093452D60E070E080E89FE3FB
S1134E200E94360AA22EB32EC42ED52EE62EF72EBD
S1134E30082F192F242D352D462D572D682D792D0A
S1134E4088859F810E94F30A422E532E642E752E6C
S1134E50862E972E88879F832091322D3091332D73
S1134E604091342D5091352D6091362D7091372D10
S1134E708091382D9091392DA1E00E942135209305
S1134E80322D3093332D4093342D5093352D609330
S1134E90362D7093372D8093382D9093392D44E01F
S1134EA050E060E070E08091892D90918A2D0E94FD
S1134EB0E8150AC044E050E060E070E08091892D7C
S1134EC090918A2D0E94C71540E050E0BA0180916C
S1134ED0892D90918A2D0E94C71561FF5BCE109297
S1134EE0322D1092332D1092342D1092352D1092B4
S1134EF0362D1092372D1092382D1092392D109294
S1134F003E2D10923F2D1092402D1092412D109263
S1134F10422D1092432D1092442D1092452D109243
S1134F203A2D10923B2D42E050E060E070E0809119
S1134F30892D90918A2D0E94C71524CE88ED84BFB7
S1134F40E0E5F0E080818460808385E08093430025
S1134F5081E080930004E0E0F4E0818180FDFDCFF6
S1134F60E0E0F4E0E287F387828183608283108645
S1134F70118682E090E08487958708951F920F92AE
S1134F800FB60F9211248F939F9380913C2D909193
S1134F903D2D892B49F080913A2D90913B2D01961E
S1134FA080933A2D90933B2D9F918F910F900FBE3C
S1134FB00F901F9018950895EF92FF920F930E94FF
S1134FC09E270E944A2E0E94ED148093892D90936F
S1134FD08A2D0E9470240E9420290E94C2130F2E41
S1134FE0F7E8EF2EFDE2FF2EF02D02E020E030E0A6
S1134FF044EF51E06CE370E288EA94E20E94AE1C54
S113500020E030E044EF51E064E470E286E795E2AA
S11350100E94AE1C01E020E030E044EF51E06BE47C
S113502070E286EB95E20E94AE1C0E949C2A0E94CC
S1135030C31D80E090E00F91FF90EF9008951F92C0
S11350400F920FB60F9211240BB60F922F933F932A
S11350504F935F936F937F938F939F93AF93BF937C
S1135060EF93FF93CF93DF931F92CDB7DEB71982EF
S11350709E012F5F3F4F41E050E060E070E080917F
S11350808D2D90918E2D0E947D1660E080E09BE036
S11350900E94D1141092060B0F90DF91CF91FF91D3
S11350A0EF91BF91AF919F918F917F916F915F919C
S11350B04F913F912F910F900BBE0F900FBE0F9009
S11350C01F901895CF92DF92EF92FF920F936B018E
S11350D07C0182E0C816D104E104F10408F44EC056
S11350E0E0E0FBE081E0868310A211A260E080E0B2
S11350F09BE00E94D7148EEFC8168FEFD806E10408
S1135100F10470F4F694E794D794C794C092260BF4
S1135110D092270B65E080E09BE00E94D11419C077
S113512080E4C81682E4D8068FE0E806F10488F427
S1135130689414F8F694E794D794C7941694D1F726
S1135140C092260BD092270B67E080E09BE00E9480
S1135150D1140F2EF4EFCF2EDD24D394E12CF12CB7
S1135160F02D00E021E041E050E060E070E080914B
S11351708D2D90918E2D0E94021511C0E0E0FBE070
S113518081E0868310A211A260E080E09BE00E948F
S1135190D714C12CD12C76016894C1F8B3CF0F91E8
S11351A0FF90EF90DF90CF9008958295807FE0E0AC
S11351B0F6E09481282F2F60922394839481892B85
S11351C0848308951F93CF93DF93C0E6D6E014E061
S11351D01D8361E070E080E090E00E9462281E83FD
S11351E0DF91CF911F910895CF93C82F82958F702F
S11351F00E94D528E0E6F6E081E0868382E086839B
S11352000E94E2288C2F8F700E94D5280E94E228E9
S1135210CF910895CF93C82F82958F700E94D5287F
S1135220E0E6F6E081E0858382E086830E94E2285E
S11352308C2F8F700E94D5280E94E228CF91089568
S1135240EF92FF920F93E0E0F6E080E1818380E249
S1135250818380E4818380E88183A0E6B6E081E0F5
S113526011968C93119782E011968C93119784E098
S113527011968C93119784818F70848314968C91EA
S11352801497887F14968C9340E066E188E00E942E
S1135290141A80938B2D90938C2D0E94ED1480937F
S11352A08D2D90938E2DE12CF12C01E020E030E047
S11352B04EE551E062E570E28EEB99E20E94AE1C8D
S11352C00F91FF90EF9008958130910579F01CF4CF
S11352D0892B39F019C08230910569F0039781F068
S11352E013C080E8860F0E94F4280EC080EC860F5D
S11352F00E94F42809C084E9860F0E94F42804C09F
S113530084ED860F0E94F42867E270E080E090E06C
S11353100E94622808950E940A296BE270E080E0EE
S113532090E00E94622808950F931F93CF93DF9318
S1135330FC01808181110AC011C08991882371F018
S11353400E948B290C171D07C1F708C08F010E940A
S11353508B29E80121960C5E1F4FEFCFDF91CF918F
S11353601F910F910895CF93DF93EA010E9464295E
S1135370CE010E949429DF91CF910895CF93DF93BA
S1135380CDB7DEB7C656D109CDBFDEBF5E0141E55C
S1135390A40EB11CFE01319620E208C02193E81747
S11353A0F907E1F7FC01A816B90619F0CF014496F4
S11353B0F5CF60E47CE980E090E00E94622883E01D
S11353C00E94D52868E873E180E090E00E9462289A
S11353D00E94E22860EA70E080E090E00E94622887
S11353E00E94E22860EA70E080E090E00E94622877
S11353F00E94E22860EA70E080E090E00E94622867
S113540082E00E94D5280E94E22888E20E94F428C3
S113541080E10E94F4288CE00E94F42886E00E9437
S1135420F42810E26E0151E5C50ED11C0F2EF4E1F3
S11354304F2EF02D0F2EF6E18F2E912CF02D5C2C9B
S11354400D2D68EC70E080E090E00E946B1F40E05E
S113545050E0BA0180918D2D90918E2D0E94C71538
S1135460672B682B692B09F449C042E050E060E0E7
S113547070E080918D2D90918E2D0E94C715FE01B4
S1135480319608C01193E817F907E1F7FC018A1572
S11354909B05A1F1CF014496F5CF2FEF3FEFA90172
S11354A0652D702F80918B2D90918C2D0E94301B37
S11354B0882321F1F6012181822F90E04497F4F4AE
S11354C082818823D9F0908130E0D901499EA00DD2
S11354D0B11D112441E050E04C0F5D1FA40FB51F16
S11354E03396A401421B530B9A012C0D3D1D8D9341
S11354F0E217F30719F081918111F9CF80918B2D77
S113550090918C2D0E94D61B8111C7CFCE0101969C
S11355107C01612C712CA70160E070E0C3010E9442
S1135520B3299FEF691A790AE4E1EE0EF11CF4E065
S11355306F16710481F785CF42E050E060E070E0BF
S113554080918D2D90918E2D0E94E81508952F92B3
S11355503F924F925F926F927F928F929F92AF92FF
S1135560BF92CF92DF92EF92FF920F931F93CF934C
S1135570DF93CDB7DEB76D97CDBFDEBF2BA92B8FE1
S1135580AFA9B8AD7E0139E3E30EF11C2EE63DE28E
S1135590EAE5FDE21192E217F307E1F70F2EF6E4D4
S11355A0AF2EFDE2BF2EF02D2AE53DE2F50111926A
S11355B0E217F307E1F7812C912C0F2EFAE5CF2E99
S11355C0FDE2DF2EF02DFCC2853209F0E8C22D0188
S11355D082E0480E511C11968C91853609F4DBC18A
S11355E038F48336C1F008F048C0853251F0E7C280
S11355F08337F9F0883709F468C0863609F0DFC2CA
S11356008CC0F401EA5BF24D95E29083AFEF8A1A05
S11356109A0AD201D5C2F401EA5BF24DD7018C910A
S11356208083BFEF8B1A9B0AF70132967F01D20168
S1135630C7C2A7014E5F5F4FD7018D919C919C011A
S1135640B401F401EA5BF24D00E010E006C0D901B8
S1135650FD909D01F1920F5F1F4FDC010D90002022
S1135660E9F71197A81BB90B0A171B0780F34D0123
S1135670860E971E7A01D201A3C287010E5F1F4FC7
S11356804AE0B601F701808191810E945836940165
S1135690D401AA5BB24D4AE55DE280E090E005C02A
S11356A0FA016191AF016D930196F601019000201A
S11356B0E9F73197EA55FD428E179F0788F34F01AA
S11356C0820E931E7801D2017BC287010E5F1F4FA9
S11356D040E1B601D7018D919C910E945836940106
S11356E0F401EA5BF24D4AE55DE280E090E005C03A
S11356F0DA016D91AD0161930196D6010D90002000
S1135700E9F71197AA55BD428A179B0788F34D0103
S1135710820E931E7801D20153C21701B4E02B0EFE
S1135720311CD7018D919D910D90BC91A02D8F8B33
S1135730988FA98FBA8F20E030E0A901BC01CD0178
S11357400E94DD2E811105C020E3F6012083118221
S113575004C120E030E0A9016F89788D898D9A8D8C
S11357600E94DD2E88239CF4EDE2D601EC938F8910
S1135770988DA98DBA8DB0588F8B988FA98FBA8FB9
S11357800F2EFBE56F2EFDE27F2EF02D01C03601BA
S113579020E030E040E85FE36F89788D898D9A8D51
S11357A00E943C3088230CF444C200E010E020E066
S11357B030E040E251E46F89788D898D9A8D0E94A2
S11357C0E22E6F8B788F898F9A8F0F5F1F4F20E0A7
S11357D030E040E85FE30E943C30882344F72DEC3E
S11357E03CEC4CEC5DE36F89788D898D9A8D0E9439
S11357F0DD2E88231CF01AC000E010E020E030E029
S113580040E251E46F89788D898D9A8D0E944130F0
S11358106F8B788F898F9A8F015011092DEC3CEC96
S11358204CEC5DE30E94DD2E882344F31016110630
S1135830ACF57301D301A00FB11FAC8FBD8F3D0137
S11358406F89788D898D9A8D20E030E040E251E4B3
S11358500E9441306F8B788F898F9A8F0E94542FCA
S113586020E3260FF70121937F01072E000C880BFC
S1135870990B0E948C2F9B01AC016F89788D898DC7
S11358809A8D0E94702EE614F704F1F66F8B788FD0
S1135890898F9A8F0115110589F4DBC1C801E0E3F2
S11358A0D301EC937301F2E0EF0EF11C2EE211969A
S11358B02C9399236CF000E010E01FC0EC8CFD8C5D
S11358C03FEFE31AF30AEEE2AC8DBD8DEC9312C008
S11358D000E010E0FFEFEF1AFF0AF701319720E331
S11358E0208301970F5F1F4F992324F4043011057F
S11358F08CF331C00430110574F5370184E090E075
S1135900801B910BE80EF91E87016F89788D898DB4
S11359109A8D20E030E040E251E40E9441306F8BE8
S1135920788F898F9A8F0E94542F20E3260FD301FA
S11359302D933D01072E000C880B990B0E948C2F90
S11359409B01AC016F89788D898D9A8D0E94702E90
S113595060167106F1F6F70110829401F401EA5B16
S1135960F24D4AE55DE280E090E005C0DA016D9118
S1135970AD0161930196D6010D900020E9F71197CE
S1135980AA55BD428A179B0788F34D01820E931EC8
S11359907101D20115C11701B4E02B0E311CD701DE
S11359A08D919D910D90BC91A02D8F8B988FA98F77
S11359B0BA8F20E030E0A901BC01CD010E94DD2EA8
S11359C0811105C020E3F60120831182CAC020E0C2
S11359D030E0A9016F89788D898D9A8D0E94DD2E22
S11359E088239CF4EDE2D601EC938F89988DA98DE0
S11359F0BA8DB0588F8B988FA98FBA8F0F2EFBE575
S1135A006F2EFDE27F2EF02D01C0360120E030E044
S1135A1040E85FE36F89788D898D9A8D0E943C30D0
S1135A208823DCF000E010E020E030E040E251E4C4
S1135A306F89788D898D9A8D0E94E22E6F8B788F75
S1135A40898F9A8F0F5F1F4F20E030E040E85FE3BB
S1135A500E943C30882344F702C000E010E02DECA3
S1135A603CEC4CEC5DE36F89788D898D9A8D0E94B6
S1135A70DD2E8823C4F420E030E040E251E46F8955
S1135A80788D898D9A8D0E9441306F8B788F898FA4
S1135A909A8F015011092DEC3CEC4CEC5DE30E9413
S1135AA0DD2E882344F320E030E040E251E46F89A6
S1135AB0788D898D9A8D0E9441306F8B788F898F74
S1135AC09A8F0E94542F20E3260FD3012C93072E84
S1135AD0000C880B990B0E948C2F9B01AC016F89E1
S1135AE0788D898D9A8D0E94702EF8013197EC8FF4
S1135AF0FD8FEEE2D3011196EC9383010E5F1F4FED
S1135B007301F6E0EF0EF11C20E030E040E251E4D6
S1135B100E9441306F8B788F898F9A8F0E94542F07
S1135B2020E3260FD8012D938D01072E000C880B3E
S1135B30990B0E948C2F9B01AC016F89788D898D04
S1135B409A8D0E94702E0E151F05F1F625E6F301BD
S1135B502683B301695F7F4F4AE08C8D9D8D0E943F
S1135B6058369401F401EA5BF24D4AE55DE280E0C7
S1135B7090E005C0DA016D91AD0161930196D60103
S1135B800D900020E9F71197AA55BD428A179B078B
S1135B9088F34D01820E931E7101D20111C08A3027
S1135BA029F0F401EA5BF24D808304C0F401EA5B5E
S1135BB0F24D10821196EFEF8E1A9E0A01C0D201A7
S1135BC08C91811101CD8DA99EA9880D991D4497B1
S1135BD03CF084E190E04C012DA93EA9821A930A7D
S1135BE0FE013396CE014796DF011D92A817B9072F
S1135BF0E1F73B8D39838DA98A83181419045CF469
S1135C00CE01880D991D0396D5012D915D01219337
S1135C108E179F07C9F700E02FEF3FEFA901BE01E0
S1135C206F5F7F4F80918B2D90918C2D0E94451A30
S1135C301BC02DEC3CEC4CEC5DE36F89788D898DB9
S1135C409A8D0E94DD2E88230CF4D6CD80E090E05E
S1135C5026CE20E3EC8DFD8D20837F0132E0E30E20
S1135C60F11C8EE2818346CE6D96CDBFDEBFDF91FF
S1135C70CF911F910F91FF90EF90DF90CF90BF9045
S1135C80AF909F908F907F906F905F904F903F90D8
S1135C902F9008958091780085FF05C080E280935D
S1135CA0780081E008958091780080FF05C081E04C
S1135CB08093780082E008958091780084FF05C085
S1135CC080E18093780083E008958091780081FFDB
S1135CD005C082E08093780084E0089582E008950E
