:100000000C949F010C94C8010C94C8010C94C80175
:100010000C94C8010C94C8010C94C8010C94C8013C
:100020000C94C8010C94C8010C94B1270C94C8011D
:100030000C94C8010C94C8010C948F180C94C8013E
:100040000C94C8010C94C8010C94C8010C94C8010C
:100050000C94C8010C94C8010C94C8010C94C801FC
:100060000C94C8010C94C8010C94C8010C94C801EC
:100070000C94C8010C94C8010C94C8010C94C801DC
:100080000C94C8010C94C8010C94C8010C94C801CC
:100090000C94C8010C94C8010C94C8010C94C801BC
:1000A0000C94C8010C94C8010C94C8010C94C801AC
:1000B0000C94C8010C94C8010C94C8010C94C8019C
:1000C0000C94C8010C94C8010C94C8010C94C8018C
:1000D0000C94C8010C94C8010C94C8010C94C8017C
:1000E0000C94C8010C94C8010C94C8010C94C8016C
:1000F0000C94C8010C94C8010C94C8010C94C8015C
:100100000C94C8010C94C8010C94C8010C94C8014B
:100110000C94C8010C94C8010C94C8010C94C8013B
:100120000C94C8010C94C8010C94C8010C94C8012B
:100130000C94C8010C94C8010C94C8010C94C8011B
:100140000C94C8010C94C8010C94C8010C94C8010B
:100150000C94C8010C94C8010C94C8010C94C801FB
:100160000C94C8010C94C8010C94C8010C94C801EB
:100170000C94C8010C94C8010C94C8010C94C801DB
:100180000C94C8010C94C8010C94C8010C94C801CB
:100190000C94C8010C94C8010C94C8010C94C801BB
:1001A0000C94C8010C94C8010C94C8010C94C801AB
:1001B0000C9412280C94C8010C94C8010C94C8012A
:1001C0000C94C8010C94C8010C94C8010C94C8018B
:1001D0000C94C8010C94C8010C94C8010C94C8017B
:1001E0000C94C8010C94C8010C94C8010C94C8016B
:1001F0000C94C8010C94C8010C94C801D723D723D0
:10020000D72324240C242124D723D72324240C24CB
:100210000C9424240C9421240C94A9250C947A1673
:100220000C94A41C0C941B230C94A8240C94B129AA
:100230000C94D7230C940C240C9469256E616E00E9
:10024000696E660000407A10F35A00A0724E1809D9
:100250000010A5D4E80000E87648170000E40B542D
:10026000020000CA9A3B000000E1F50500008096FC
:100270009800000040420F000000A086010000002E
:10028000102700000000E8030000000064000000E8
:1002900000000A00000000000100000000002C76B1
:1002A000D888DC674F0823DFC1DFAE59E1B1B796CC
:1002B000E5E3E453C63AE651997696E8E6C2842629
:1002C000EB898C9B62ED407C6FFCEFBC9C9F40F205
:1002D000BAA56FA5F490055A2AF75C936B6CF96781
:1002E0006DC11BFCE0E40D47FEF520E6B500D0ED46
:1002F000902E0300943577050080841E08000020AE
:100300004E0A000000C80C333333330F986E12834B
:100310001141EF8D2114893BE65516CFFEE6DB181F
:10032000D1844B381BF77C1D901DA4BBE4242032E4
:1003300084725E228100C9F124ECA1E53D271124DD
:100340001FBECFEFCDBFDFE3DEBF00E00CBFE9E8AB
:10035000FDE28AEA90E48193E030F907E0F310E2ED
:10036000A0E0B0E2EAE8FEE600E00BBF02C00790C2
:100370000D92A835B107D9F72DE2A8E5B0E201C08A
:100380001D92A938B207E1F70E94CF270C9443379A
:100390000C9400002F923F924F925F926F927F9247
:1003A0008F929F92AF92BF92CF92DF92EF92FF9285
:1003B0000F931F93CF93DF93DC011B012A01F901F7
:1003C000102F8C91808311968C91119781831296B6
:1003D0008C911297828313968C9113978383149632
:1003E0008C911497848315968C9115978583169616
:1003F0008C9116978F70868317822C9111963C9161
:10040000119712964C91129713965C91139714962C
:100410006C91149715967C91159716968C9116975A
:1004200017969C91179704E30E94EF34822E932E27
:10043000340187E07822E2016882798261147104D4
:1004400049F410821182128213821482158216825C
:10045000178208C0DFEF6D16D7E07D0619F08681A0
:1004600080618683208131814281538164817581DD
:1004700086819781012F0E94D43420833183428367
:10048000538364837583868397832C9111963C9163
:10049000119712964C91129713965C91139714969C
:1004A0006C91149715967C91159716968C911697CA
:1004B00017969C910FE30E94EF34F1012083DF91A6
:1004C000CF911F910F91FF90EF90DF90CF90BF9051
:1004D000AF909F908F907F906F905F904F903F90E4
:1004E0002F9008952F923F924F925F926F927F923A
:1004F0008F929F92AF92BF92CF92DF92EF92FF9234
:100500000F931F93CF93DF9300D01F92CDB7DEB729
:100510005C0169836A01D901EC911196FC911197F4
:100520001296BC91BC83D9011396BC91BA83D901B0
:100530001496BC91BB83D9011596FC90159716961D
:100540001C9116971796EC902E2F3F2F4C815A81B5
:100550006B817F2D812F9E2DA0E00E94323509F402
:100560001CC120E030E040E050E060E0707E0E947E
:10057000323501F52E2F3F2F4C815A816B817F2D13
:10058000812F9E2D08E00E94D434E22FF32F4C835C
:100590005A836B83F72E182FE92EB8E0CB1AD108B7
:1005A000707E20E030E040E050E060E0A0E00E949B
:1005B000323501F320E030E040E050E060E070E0F0
:1005C000812F807F9E2DA0E00E94323509F52E2FCD
:1005D0003F2F4C815A816B817F2D812F9E2D01E011
:1005E0000E94D434E22FF32F4C835A836B83F72E6F
:1005F000182FE92E21E0C21AD10820E030E040E0B7
:1006000050E060E070E0807FA0E00E943235F9F2B7
:1006100020E030E040E050E060E070E080E09E2DBF
:10062000A0E00E94323549F41AC1E82DF22D3C8237
:100630004A825B82F62C172DE92C2E2F3F2F4C81FE
:100640005A816B817F2D812F9E2D04E00E94EF3413
:10065000822E232E342E452E562E672E782E992E3E
:1006600084E0C80ED11C20E030E040E050E060E0C3
:1006700070E080E0992DA0E00E943235B1F6872D20
:10068000807E0E94323531F52E2F3F2F4C815A81CA
:100690006B817F2D812F9E2D03E00E94EF3421700E
:1006A000E82DF22D3C824A825B82F62C172DE92C34
:1006B00036C08E2E2F2E3C804A805B806F2C712E90
:1006C0009E2C08C08E2E2F2E3C804A805B806F2C83
:1006D000712E9E2C282D322D432D542D652D762DD7
:1006E000872D992D01E00E94EF34E22FF32F4C83E8
:1006F0005A836B83F72E182FE92E9FEFC91AD90A58
:1007000020E030E040E050E060E070E0812F807E4B
:100710009E2DA0E00E943235A9F6282D21702223BB
:10072000C1F12E2F3F2F4C815A816B817F2D812F5C
:100730009E2DA1E00E941435422E532E642E752E5C
:10074000862E972E082FE22FF32F4C835A836B832C
:10075000F72E182F20E030E040E050E060E070E03D
:10076000807EA0E00E943235A1F0242D352D462D4B
:10077000572D682D792D802F01E00E94EF34E22F54
:10078000F32F4C835A836B83F72E182FAFEFCA1ABF
:10079000DA0A1C141D044CF01BC0BFEFCB16B7E0E7
:1007A000DB0604F5C12CD12C23C02FEFC21627E0A5
:1007B000D206F4F0E0E0F0E01C821A821B82F12CF9
:1007C00010E00F2ECC24CA94F7E0DF2EF02D10C0DD
:1007D000E0E0F0E01C821A821B82F12C10E0C12CB8
:1007E000D12C06C00F2ECC24CA94F7E0DF2EF02DBA
:1007F000298130E040E050E060E070E080E090E08F
:100800000FE30E94D434A92F1F70E22BEF2EE32AAE
:10081000BC81B42B9A80952A8B80862AF72A182BC4
:100820009D2D990F990B2C2D3D2D492F592F692F57
:10083000792F892F04E30E94D4342E2BF5012083D5
:100840003E2931834B2B4283592953836829648382
:100850007F297583812B86839A2B97830FC020E095
:1008600030E040E050E060E070E0812F807E9E2D1F
:10087000A0E00E94323509F01CCF8BCF2496CDBF6B
:10088000DEBFDF91CF911F910F91FF90EF90DF902E
:10089000CF90BF90AF909F908F907F906F905F9020
:1008A0004F903F902F900895AF92BF92CF92DF92DA
:1008B000EF92FF920F931F93CF93DF937C01DC01A4
:1008C000DC901196AC9011971296BC91FC01C381FB
:1008D000D4811581C680078120E030E040E050E0FF
:1008E00060E070E080E0902FA0E00E94323509F0D7
:1008F00078C0B12C2D2D3A2D4B2F5C2F6D2F712FE1
:100900008C2D902F08E00E94D434D22EA32EB42F29
:10091000C52FD62F172FC82E092FF8E0BF0E20E0C5
:1009200030E040E050E060E070E080E0A0E00E9455
:10093000323591F0F701D082A182B283C383D48390
:100940001583C682978390780E94323509F058C08B
:10095000FFE3FB157CF454C080E4B812CBCFF70161
:10096000D082A182B283C383D4831583C682978346
:1009700047C0B12C2D2D3A2D4B2F5C2F6D2F712F91
:100980008C2D902F01E00E94D434D22EA32EB42FB0
:10099000C52FD62F172FC82E092FB39420E030E093
:1009A00040E050E060E070E080E09078A0E00E94DD
:1009B000323551F0F701D082A182B283C383D48350
:1009C0001583C68207831CC0FFE3FB159CF6F70165
:1009D000D082A182B283C383D4831583C682078366
:1009E0000FC020E030E040E050E060E070E080E0E8
:1009F000902F9078A0E00E94323509F4BACFB12C44
:100A00008B2DDF91CF911F910F91FF90EF90DF9091
:100A1000CF90BF90AF9008952F923F924F925F92E8
:100A20006F927F928F929F92AF92BF92CF92DF92FE
:100A3000EF92FF920F931F93CF93DF93CDB7DEB763
:100A4000A197CDBFDEBFDC01FB01342E8C918E83DC
:100A500011968C9111978F8312968C91129788879B
:100A600013968C911397898714968C9114978C8F79
:100A700015968C9115978D8F16968C9116978E8F53
:100A800017968C918F8F2E813F81488559856C8D6B
:100A90007D8D8E8D9F8D00E20E94EF3429A338A3B7
:100AA0004A875B876C877D878E879F8740805180D0
:100AB000628023808481888F8581898F86818A8F57
:100AC00087818B8F242D352D462D522D688D798D64
:100AD0008A8D9B8D0E94EF34288B398B4A8B5B8BE0
:100AE0006C8B7D8B8E8B9F8BA9A0B8A0CA84DB8476
:100AF000EC84FD840E851F85242D352D462D522D29
:100B000060E070E080E090E00E946B3400E20E94C0
:100B1000EF3429833A834B835C836D83772E882E51
:100B2000992EA888B988CA88DB88EC88FD880E8948
:100B30001F892E813F814885598560E070E080E003
:100B400090E00E946B3400E20E94EF34A22EB32E9C
:100B5000C42ED52EE62EF72E082F192F29813A8183
:100B60004B815C816D81772D882D992D0E940B35ED
:100B700029833A834B835C836D83772E882E992E4D
:100B8000A888B988CA88DB88EC88FD880E891F8907
:100B900029A138A14A855B856C857D858E859F85D9
:100BA0000E946B34A22EB32EC42ED52EE62EF72E25
:100BB000082F192F29813A814B815C816D81772D16
:100BC000882D992D0E940B35922E3A834983B52F9B
:100BD000F62FE72F782E892E30FE26C02E813F81FA
:100BE000488559856C8D7D8D8E8D9F8DA0E00E94EE
:100BF0003235D4F4292D3A8149815B2F6F2F7E2F16
:100C0000872D982DA42CB52CC62CD22CE88CF98CD1
:100C10000A8D1B8D0E942035922E3A834983B52F71
:100C2000F62FE72F782E892E31FE26C0242D352D64
:100C3000462D522D688D798D8A8D9B8DA0E00E9466
:100C40003235D4F4292D3A8149815B2F6F2F7E2FC5
:100C5000872D982DAE80BF80C884D984EC8CFD8C04
:100C60000E8D1F8D0E942035922E3A834983B52F19
:100C7000F62FE72F782E892E292D3A8149815B2F77
:100C80006F2F7E2F872D982DA196CDBFDEBFDF91D0
:100C9000CF911F910F91FF90EF90DF90CF90BF9079
:100CA000AF909F908F907F906F905F904F903F900C
:100CB0002F9008952F923F924F925F926F927F9262
:100CC0008F929F92AF92BF92CF92DF92EF92FF925C
:100CD0000F931F93CF93DF93CDB7DEB7E297CDBFCE
:100CE000DEBFFC018080898E91809A8EA280AB8EBF
:100CF000B380BC8EC480CD8ED580DE8EE680EF8E34
:100D0000F780F8A2282D392D4A2D5B2D6C2D7D2DD5
:100D10008E2D9F2D00E20E94EF34822F932FA42F5F
:100D2000B52F8DA79EA7AFA7B8AB098D1A8D2B8DB8
:100D30003C8D33237CF49C01AD012F5F3F4F4F4F1F
:100D40005F4F2DA73EA74FA758AB232B242B252B56
:100D500009F4C1C18DA49EA4AFA4B8A895014427ED
:100D60005527C9019F77892B29F524013501662470
:100D70007724411451046104710459F4298D3A8D8A
:100D80004B8D5C8D6D8D7E8D8F8D98A10E94C434AE
:100D9000AEC1440C551C661C771C440C551C661CCB
:100DA000771C7094609450944094411C511C611CB9
:100DB000711C8DC02F3F0FEF300769F44DA45EA466
:100DC0006FA478A87094609450944094411C511C76
:100DD000611C711C7CC0B90176956795CB01A0E0C0
:100DE000B0E0BC01CD0160957095809590950E9412
:100DF00041342F5F3F4F6901E12CF12CB701A6016F
:100E0000032E31E1440F551F661F771F3A95D1F726
:100E1000302D8DA59EA5AFA5B8A980959095A095DC
:100E2000B0954A015B01880E991EAA1EBB1E89A6B9
:100E30009AA6ABA6BCA6D701C60112961C012D012D
:100E4000A90160E070E080E090E0DC0129A35AA3F2
:100E50006BA37CA38DA39EA3AFA3B8A78DA59EA5CE
:100E6000AFA5B8A98C019D01A82EB12EC22ED32EFC
:100E7000E12CF12C00E010E029A13AA140E050E083
:100E800060E070E080E090E00E946B34A22EB32E10
:100E9000C42ED52EE62EF72E082F192F222D332DF6
:100EA000442D552D60E070E080E090E00E946B34AE
:100EB00000E20E94EF34822E932EA42EB52E49A478
:100EC0005AA46BA47CA4481859086A087B088DA40E
:100ED0009EA4AFA4B8A895018401A82CB12EC22E5F
:100EE000D32EE12CF12C00E010E0A301920160E090
:100EF00070E0CB0149A23AA34BA35CA36DA37EA3F0
:100F00008FA398A761E070E080E090E00E946B34CE
:100F10008DA49EA4AFA4B8A8B694A79497948794E0
:100F20006501540145015601ABA2BCA2A82CB92C05
:100F3000CBA0DCA0E12CF12C0E940B3529873A874D
:100F40004B875C876D877E878F87988BC22ED32EC9
:100F5000E42EF52E00E20E94EF342223C9F04DA5C5
:100F60005EA56FA578A9DB01CA018C0D9D1DAE1D84
:100F7000BF1D8C159D05AE05BF0508F42F5F0FEF53
:100F8000401A500A600A700A6C017D012111EBCFF2
:100F900053014201242D392D4A2D5B2D60E070E074
:100FA00080E090E00FE10E94D434222E332E442EB4
:100FB000552E662EF72E182F722E832E49A359A771
:100FC0006DA779AB8AAB9068992E29823A824B82C1
:100FD0005C826D82FE821F839887298D3A8D4B8DAE
:100FE0005C8D6D8D7E8D8F8D98A101E00E94D43433
:100FF000298B3A8B4B8B5C8B6D8B7E8B8F8B988F79
:1010000040E0BE016F5E7F4FCE0101960E940C054D
:10101000A22EB32EC42ED52EE62EE72F082FF92FA1
:10102000222D332D442D552D662D7F2D812F992D69
:10103000FE2E1F2F0E940B350E94C434A22EB32E09
:10104000C42ED52EE62EF72E082F192F29873A8782
:101050004B875C876D877E878F87988B40E0BE01CA
:10106000675F7F4FCE0101960E940C05222E332E22
:10107000442E552E662EB72FF82FE92F2A2D3B2D03
:101080004C2D5D2D6E2D7F2D802F912FA0E00E9485
:10109000323544F4712C812C19A219A61DA619AA67
:1010A0001AAA912C222D332D442D552D662D7B2FE0
:1010B0008F2F9E2FA1E00E941435A72CB82CC9A019
:1010C000D9A4EDA4F9A80AA9192D0E940B3501E0B5
:1010D0000E94EF340CC019861A861B861C861D865A
:1010E0001E861F86188A412C512C320151CFE29660
:1010F000CDBFDEBFDF91CF911F910F91FF90EF9099
:10110000DF90CF90BF90AF909F908F907F906F9027
:101110005F904F903F902F9008956F927F928F92A3
:101120009F92AF92BF92CF92DF92EF92FF920F9376
:101130001F93CF93DF93CDB7DEB7A597CDBFDEBFAB
:101140003C010E8B1F8B288F398F4A8F5B8F6C8FE2
:101150007D8F8E8E9F8EA8A2B9A2CAA2DBA2ECA21E
:10116000FDA20AE09E012A5F3F4FAE014E5F5F4F36
:10117000BE016F5F7F4FCE0146960E94CA019E015D
:10118000225F3F4FAE014C5F5F4FBE016F5F7F4FED
:10119000CE014E960E94CA01E8ADF9AD1082EA81F7
:1011A000FB81EF3F27E0F207E9F52E813F8148857B
:1011B00059856A857B858C859D85A0E00E943235A6
:1011C00029F58C819D818F3F974071F42E853F8555
:1011D000488959896A897B898C899D890E94323521
:1011E000A9F4FFA9FF2391F08E89F30180838F89F1
:1011F0008183888D8283898D83838A8D84838B8D7F
:1012000085838C8D86838D8D87831EC18FEFF3013F
:1012100080838183828383838483858386838FE72E
:10122000878312C1AC81BD81AF3F27E0B20791F443
:101230008E8DF30180838F8D818388A1828389A124
:1012400083838AA184838BA185838CA186838DA1CE
:101250008783FAC0309731F0CF01805C9F4FA81789
:10126000B907B4F08E8DF30180838F8D818388A1BF
:10127000828389A183838AA184838BA185838CA1A6
:1012800086838DA1878381E0E8ADF9AD8083DCC0E2
:10129000109731F0CD01805C9F4FE817F90794F06B
:1012A0008E89F30180838F898183888D8283898DE4
:1012B00083838A8D84838B8D85838C8D86838D8DAE
:1012C0008783C2C02FA9222309F445C0EA17FB0770
:1012D00004F18F010A1B1B0B2E853F854889598914
:1012E0006A897B898C899D890E94EF34AE80BF809A
:1012F000C884D984EA84FB840C851D850E940B3543
:101300002E833F83488759876A877B878C879D8791
:1013100090C08D010E1B1F0B2E813F814885598582
:101320006A857B858C859D850E94EF34AE84BF8461
:10133000C888D988EA88FB880C891D890E940B35EA
:101340002E833F83488759876A877B878C879D8751
:10135000AA83BB836EC0AE17BF07B4F0EA17FB07C2
:10136000D9F52E813F81488559856A857B85AE8474
:10137000BF84C888D988EA88FB880C891D898C8538
:101380009D850E94293540F18F010A1B1B0B2E857C
:101390003F85488959896A897B898C899D890E9402
:1013A000EF34A22EB32EC42ED52EE62EF72E082F04
:1013B000192F2E813F81488559856A857B858C85CB
:1013C0009D850E9420352E833F83488759876A87F1
:1013D0007B878C879D872DC08D010E1B1F0B2E8157
:1013E0003F81488559856A857B858C859D850E94CE
:1013F000EF34A22EB32EC42ED52EE62EF72E082FB4
:10140000192F2E853F85488959896A897B898C895E
:101410009D890E9420352E833F83488759876A879C
:101420007B878C879D8781E0E8ADF9AD8083AA83B7
:10143000BB834A815B814A5051099E012A5F3F4F1D
:1014400060E0C3010E947202A596CDBFDEBFDF91AE
:10145000CF911F910F91FF90EF90DF90CF90BF90B1
:10146000AF909F908F907F906F9008954F925F9272
:101470006F927F928F929F92AF92BF92CF92DF92A4
:10148000EF92FF921F93CF93DF93CDB7DEB76097B4
:10149000CDBFDEBF2B013C01E89467F877245301F0
:1014A0004201BB0C8808982C540149825A826B82F5
:1014B0007C828D828E828F8288866B017C010B2ECE
:1014C000B7E1F594E794D794C794BA95D1F7B02DC6
:1014D000F601FF276B017C01CC24F7FCC394DD24CB
:1014E000EE24FF241C2D309709F066C0242D352DE5
:1014F000462D572D682D782D882D982DA0E00E941F
:10150000323511F517C0242D352D462D572D682D58
:10151000782D882D982DA0E00E94323549F51111C3
:1015200030C020E030E040E050E060E070E080EF6C
:101530009FE746C019821A8280E88B831C821D8235
:101540001E821F82188602C0EEE9F3E09E012F5F23
:101550003F4FAF016C2DCE0109960E947202298582
:101560003A854B855C856D857E858F85988928C0F9
:101570002FEF3FEF4FEF5FEF6FEF7FEF8FEF9FE7C3
:101580001FC020E030E040E050E060E070E080EF1D
:101590009FEF16C0D301C201A06889839A83AB83F1
:1015A000BC83BB0F880B982FDC018D838E838F83C8
:1015B0008887E356FC4FCACFEF3FF10559F7A3CF19
:1015C0006096CDBFDEBFDF91CF911F91FF90EF906E
:1015D000DF90CF90BF90AF909F908F907F906F9053
:1015E0005F904F9008952F923F924F925F926F922B
:1015F0007F928F929F92AF92BF92CF92DF92EF92A3
:10160000FF920F931F93CF93DF93CDB7DEB72A9747
:10161000CDBFDEBF422E532E642E5A87B62FA72F82
:10162000F82FE92F302E0FE30E94EF342170722E35
:101630002A2D3B2D4C2D5D2D6E2D7F2D832D912F31
:101640000E94EF342170222E271509F1CE01019658
:101650009F938F931F928A2C9B2CAC2CBD2CCE2C4D
:10166000DF2CE32CF12E042D152D262D3A854B2F42
:101670005A2F6F2F7E2F01960E948D082980272DCB
:1016800022252170222E0F900F900F901DC0CE01A9
:1016900001969F938F9381E08F938A2C9B2CAC2C87
:1016A000BD2CCE2CDF2CE32CF12E042D152D262D58
:1016B0003A854B2F5A2F6F2F7E2FCE0102960E9414
:1016C0008D080F900F900F90222021F0898580685F
:1016D000898703C089858F7789872A813B814C81DF
:1016E0005D816E817F81888599852A96CDBFDEBF19
:1016F000DF91CF911F910F91FF90EF90DF90CF90EE
:10170000BF90AF909F908F907F906F905F904F9021
:101710003F902F9008957F928F929F92AF92BF92A9
:10172000CF92DF92EF92FF920F931F93CF93DF93AD
:10173000722E832E942ED52FC62FB72FA82FF92FB8
:10174000E02F2A2D3B2D4C2D5D2D6E2D7F2D802FD2
:10175000912F0FE30E94EF3420FD03C00E2F10687D
:1017600002C00E2F1F77272D382D492D5D2F6C2F8E
:101770007B2F8A2F9F2F0E94F30ADF91CF911F9119
:101780000F91FF90EF90DF90CF90BF90AF909F9020
:101790008F907F900895AF92BF92CF92DF92EF9299
:1017A000FF920F931F93CF93DF93CDB7DEB7A6972A
:1017B000CDBFDEBF2F8B388F498F5A8F6B8F7C8FB9
:1017C0008D8F9E8FAF8EB8A2C9A2DAA2EBA2FCA227
:1017D0000DA31EA30BE09E01295F3F4FAE014D5F9D
:1017E0005F4FBE016F5F7F4FCE0147960E94CA01D7
:1017F0009E01215F3F4FAE014B5F5F4FBE016E5FA9
:101800007F4FCE014F960E94CA01EB81FC81EF3FD2
:1018100027E0F20721F52F81388549855A856B85A8
:101820007C858D859E85A0E00E94323509F06CC0D4
:101830008D819E818F3F27E0920769F42F8538893B
:1018400049895A896B897C898D899E890E943235A4
:1018500009F063C043C0892B09F468C03FC08D8183
:101860009E818F3F27E09207E9F42F8538894989C7
:101870005A896B897C898D899E89A0E00E943235C6
:1018800009F05DC0EF2B09F463C08FEF97E08B8305
:101890009C831F82188619861A861B861C861D86C5
:1018A0001E861CC0309709F45CC0009709F462C022
:1018B000E80FF91FE950F440EB83FC8340E0BE01E0
:1018C000615F7F4FCE0107960E940C052F833887FA
:1018D00049875A876B877C878D879E8769818A8134
:1018E000682769834B815C819E01295F3F4FCE0150
:1018F00047960E9472022F89388D498D5A8D6B8DC3
:101900007C8D8D8D9E8D3EC02FEF3FEF4FEF5FEFB3
:101910006FEF7FEF8FEF9FE735C02FEF3FEF4FEF78
:101920005FEF6FEF7FEF8FEF9FE72CC02FEF3FEF61
:101930004FEF5FEF6FEF7FEF8FEF9FE723C02FEF4A
:101940003FEF4FEF5FEF6FEF7FEF8FEF9FE71AC033
:101950002FEF3FEF4FEF5FEF6FEF7FEF8FEF9FE7DF
:1019600011C020E030E040E050E060E070E080E056
:1019700090E008C020E030E040E050E060E070E03F
:1019800080E090E0A696CDBFDEBFDF91CF911F91A2
:101990000F91FF90EF90DF90CF90BF90AF900895A0
:1019A000AF92BF92CF92DF92EF92FF920F931F936D
:1019B000CF93DF93CDB7DEB7E697CDBFDEBF2FA3C2
:1019C00038A749A75AA76BA77CA78DA79EA7AFA644
:1019D000B8AAC9AADAAAEBAAFCAA0DAB1EAB0BE007
:1019E0009E01295F3F4FAE014D5F5F4FBE016F5FAC
:1019F0007F4FCE0187960E94CA019E01215F3F4F13
:101A0000AE014B5F5F4FBE016E5F7F4FCE018F9681
:101A10000E94CA010D811E810115110509F482C0C1
:101A2000EB80FC808FEFE81687E0F806F1F42F8159
:101A3000388549855A856B857C858D859E85A0E096
:101A40000E94323509F07AC00F3F174009F482C076
:101A500099818A8198138AC0D12CE12CF12C00E065
:101A600010E0B0E0F0EFEFE789C00F3F87E0180724
:101A700009F5DF84E888F9880A891B89BC89FD8912
:101A8000EE892D2D3E2D4F2D502F612F7B2F8F2F27
:101A90009E2FA0E00E94323509F470C0DD24DA9454
:101AA000EE24EA94FF24FA940FEF1FEFBFEFFFEF4D
:101AB000EFE764C0CE010F960E945A062F8F38A31D
:101AC00049A35AA36BA37CA38DA39EA340E0BE01B0
:101AD000615E7F4FCE0107960E940C052F8B388FD9
:101AE000498F5A8F6B8F7C8F8D8F9E8FA701401BE4
:101AF000510B41505C4F4B835C834A5051096981C3
:101B00008A8168279E01295E3F4FCE0187960E94F9
:101B10007202DFA0E8A4F9A40AA51BA5BCA5FDA537
:101B2000EEA52CC0DD24DA94EE24EA94FF24FA9486
:101B30000FEF1FEFBFEFFFEFEFE720C0DD24DA94D8
:101B4000EE24EA94FF24FA940FEF1FEFBFEFFFEFAC
:101B5000EFE714C0DD24DA94EE24EA94FF24FA942B
:101B60000FEF1FEFBFEFFFEFEFE708C0D12CE12C25
:101B7000F12C00E010E0B0E0F0EFEFEF2D2D3E2D66
:101B80004F2D502F612F7B2F8F2F9E2FE696CDBF8D
:101B9000DEBFDF91CF911F910F91FF90EF90DF900B
:101BA000CF90BF90AF9008952F923F924F925F9247
:101BB0006F927F928F929F92AF92BF92CF92DF925D
:101BC000EF92FF920F931F93CF93DF93CDB7DEB7C2
:101BD000ED97CDBFDEBF2CA73DA74EA75FA768AB93
:101BE00079AB8AAB9BABE9AECEAADFAA502E21E13E
:101BF000201720F40F2EF1E15F2EF02D511002C0BE
:101C0000552453940BE09E012C5F3F4FAE014E5F75
:101C10005F4FBE016F5F7F4FCE018C960E94CA015D
:101C20008A819B81009731F4E8E5F0E280E38083CC
:101C3000118214C38F3F37E0930751F52C813D810A
:101C40004E815F81688579858A859B85A0E00E94A9
:101C5000323559F0E8E5F0E28EE491E68083918335
:101C60008EE490E082839383F9C28981811102C05E
:101C70008BE201C08DE280935820E9E5F0E289E42F
:101C80009EE48083918386E490E082839383E6C21E
:101C9000AC014F5F53404A835B832981222331F09B
:101CA0002DE22093582081E088AF01C018AE552363
:101CB000D4F01A01220C331CCA01880F991F880F17
:101CC000991F880F991F280E391E9FE1290E311C7C
:101CD00036942794369427943694279436942794F0
:101CE0003694279413C027EF24031001259F300C4E
:101CF0001124369427943694279436942794369456
:101D0000279436942794319421943108EE27FF27A5
:101D1000E219F3090E2FDF2E1F2F110F110BC12E09
:101D2000912E812E712E612E1C8A1D8A1E8A1F8A79
:101D3000188E198E1A8E80EA8B8F1C861D861E8641
:101D40001F86188A198A1A8A80E88B8B2E2F3F2FBC
:101D5000412F512F612F712F812F912FA0E00E94D1
:101D600032350CF064C20E94C434022FD32E142FDB
:101D7000C52E962E872E782E692E0E94323509F4B4
:101D80006BC04424439401C0412CA12CB12C0F2ED4
:101D9000F3E0EF2EF12CF02D202F217030E040E009
:101DA00050E060E070E080E090E0A0E00E9432351A
:101DB000E1F0BE016C5E7F4FCE010C960E940C05D7
:101DC0002C873D874E875F87688B798B8A8B9B8BAF
:101DD000CE010C960E94540497012F5F3F4F281BA1
:101DE000310987FD3395A20EB31E40E0BE016C5E43
:101DF0007F4FCB010E940C052C8B3D8B4E8B5F8B54
:101E0000688F798F8A8F9B8FEE0CFF1CAFEFEA1AD9
:101E1000FA0ACE0144960E945404E81AF10887FD9C
:101E2000F394202F3D2D412F5C2D692D782D872D8A
:101E3000962D01E00E94ED34022FD32E142FC52ED3
:101E4000962E872E782E692EA0E00E94323509F05A
:101E5000A3CF4420D1F002C0A12CB12CCE010C960E
:101E60000E945A062C873D874E875F87688B798B47
:101E70008A8B9B8BB194A194B108CE010C960E94E1
:101E80005404A81AB10887FDB3948A819B81A80ED7
:101E9000B91EAA82BB8240E0BE01645F7F4FCE01C3
:101EA00004960E940C052C833D834E835F836887D4
:101EB00079878A879B87CE0104960E94540421E08B
:101EC00030E0F901E81BF10987FDF395CF012A8184
:101ED0003B81820F931F8A839B83992394F50F2E56
:101EE000F0EAFF2EF02D04E010E01CA21DA21EA2BD
:101EF0001FA218A619A61AA6FBA640E0BE016C5D9B
:101F00007F4FCE0104960E940C052C833D834E83A7
:101F10005F83688779878A879B87CE0104960E94B2
:101F200054049801281B310987FD33958A819B81D0
:101F3000820F931F8A839B83F1E02F1A3108992324
:101F4000A4F21CEC2AC01C8F1D8F1E8F1F8F18A39C
:101F500019A31AA31BA340E0BE01645E7F4FCE010C
:101F600004960E940C052C833D834E835F83688713
:101F700079878A879B87CE0104960E945404082E95
:101F8000000C990B03962A813B81A901481B590B30
:101F90004A835B835FEF251A350AEA81FB81E430CF
:101FA000F1058CF6E330F105A9F49B8520E030E0E3
:101FB00040E050E060E070E080E0907F2F3F3F4FD6
:101FC0004F4F5F4F6F4F7F4F8F4F9F4911F008F07A
:101FD000BACF3DC1B8ADBF5F8FEF850D552009F475
:101FE00087C01B2F0F2EFFE34F2E512CF02D68942E
:101FF000AA24A2F8B12C8B0F99249394980E2AAEA0
:102000003BAE812F90E0FC01E85AFF4D20E3208396
:10201000EA81FB81ECAFFDAFFF23DCF13C806D80FA
:102020007E808F80E884F984BA85AB85FC01E85A0C
:10203000FF4DECABFDAB6201ECADFDADCE1ADF0A9E
:10204000232D362D472D582D6E2D7F2D8B2F9A2F1A
:102050000C2D0E94EF34205DECA9FDA92083ECAD8E
:10206000FDAD3196232D362D472D582D6E2D7F2D0C
:102070008B2F9A2F0E2F0E94D4342C833D834E83B6
:102080005F83688779878A879B872FEF3FEF2A8353
:102090003B831F5F1C8A1D8A1E8A1F8A188E198E19
:1020A0001A8E30EA3B8F40E0BE016C5E7F4FCE015E
:1020B00004960E940C052C833D834E835F836887C2
:1020C00079878A879B87CE0104960E945404A501D4
:1020D000481B510987FD5395CA012A813B81820F14
:1020E000931F8A839B83B92D91128BCF2AAC3BAC73
:1020F000EA81FB81FF230CF45AC00FE310E00E1BB2
:102100001F0B2C813D814E815F81688579858A8591
:102110009B850E94EF34A4E00E94323509F008F458
:1021200046C03FEF3B0F58AD5317F0F0232F3B2F26
:1021300026C0822F90E0FC01E85AFF4D40814933D0
:1021400069F4322F02C050E368ADFC01E85AFF4D3C
:1021500050832FEF230F621760F311C0FC01E85A80
:10216000FF4D4F5F40830BC0832F90E0FC01E85A86
:10217000FF4D4081493339F3232F3B2FEFCF88ADFB
:10218000821315C09FEF291A390AE32FF0E0E85AAD
:10219000FF4D81E380833F5F3B1748F480E3E32FEB
:1021A000F0E0E85AFF4D80833F5F3B13F8CFA8ADC6
:1021B0008A2F90E0FC013196AF01485A5F4DFA0139
:1021C0002081885A9F4DFC0120838EE2FA01808392
:1021D000F9ADFF2331F0EB2FF0E0E85AFF4D10820C
:1021E000BF5F31E03B0F8B2F90E0885A9F4D25E475
:1021F000FC0120831214130444F4BE5FE32FF0E0CB
:10220000E85AFF4D8BE2808301C0B32F6B2F70E043
:10221000685A7F4D4AE0C1010E944B362EA93FA962
:1022200021153105D9F0F9012082318217C02E2FF6
:102230003F2F412F512F612F712F812F912FA0E020
:102240000E94323509F0A0CDA12CB12C1ECEB8AD24
:10225000BF5F8FEF850D5110C4CE4FCF88E590E260
:10226000ED96CDBFDEBFDF91CF911F910F91FF9013
:10227000EF90DF90CF90BF90AF909F908F907F9026
:102280006F905F904F903F902F9008952F923F92C4
:102290004F925F926F927F928F929F92AF92BF9276
:1022A000CF92DF92EF92FF920F931F93CF93DF9322
:1022B000CDB7DEB76597CDBFDEBFA22E732E642EDD
:1022C000552E462E372EF82EB92E802EEA8AA0E003
:1022D0000E94323524F499249A94900E01C0902ED5
:1022E00011E0190D191554F504C091160CF063C0D6
:1022F00003C0812F192D982E9E012F5F3F4F69013A
:10230000EE24E394092D2A2D372D462D552D642DCD
:10231000732D8F2D9B2D0E94D40DFC0120E030E009
:1023200040E050E060E070E08F2D807F9B2D9F7734
:10233000A0E00E94323509F478C188C02A2D372DDB
:10234000462D552D642D732D8F2D9B2D04E30E945A
:10235000EF342B8337703B87EFEFE80D2A2D372DB5
:10236000462D552D642D732D8F2D9B2D0FE30E942F
:10237000EF3420FF02C08E2F01C0882D8D8B482F97
:10238000082E000C550B488B598B0F2EF3E02F2E87
:10239000F02D5F2D507F5C879B2D9F779D87AA89AD
:1023A0002A2F30E0A901409550954E875F878B8B8F
:1023B00081508C8B01C0912ECE0101966C01EE24D0
:1023C000E394092D2A2D372D462D552D642D732D7F
:1023D0008F2D9B2D0E94D40DFC012B813B8540E06D
:1023E00050E060E070E080E090E02F3FA7E03A0727
:1023F00041055105610571058105910509F4ABC1E0
:1024000020E030E08C859D85A0E00E94323509F403
:10241000A2C189819A812E853F85821793070CF48A
:1024200094C1992324F481501D89180F09C0019685
:10243000488959898417950714F41C8901C01B89A0
:102440002A94222019F0191150CF192DA981BA818F
:102450005A89852F90E0919581959109A817B90720
:102460000CF4E3C0812F110F990BA817B9070CF0DA
:10247000DCC02A2D372D462D552D642D732D8F2D23
:102480009B2D0FE30E94EF34622F617020FD319687
:10249000BB235CF01A161B060CF084C0828181837A
:1024A000882309F457C081E074C0DF010D9000203B
:1024B000E9F711979D012E1B3F0B8FEF820F22230F
:1024C00021F1DF01A80FB11D9C91903311F03FC1A4
:1024D000892F1C929FEF980F8823B9F0DF01A90F75
:1024E000B11D2C912033A1F333C1282F30E0DF013F
:1024F000A20FB31F9C9149815A81241B350BDF0128
:10250000A20FB31F9C93815081F780E380838EE2FA
:10251000818389819A81019689839A8399230CF01A
:102520007FC022E030E3DF01A20FB11D3C9389811F
:102530009A81019689839A832F5F9923A4F370C0AF
:10254000DF01A80FB11D11969C9111979C939111D9
:1025500020C001C081E0282F30E049815A81421714
:10256000530784F070E391E0980FDF01A80FB11DCD
:102570007C93892F492F50E029813A812417350710
:1025800094F701C0982FDF01A90FB11D1C92892F6C
:1025900043C08F5F482F50E029813A8124173507C7
:1025A0007CF601C081E0282F30E02F5F3F4F912C57
:1025B000281539058CF5DF01A80FB11D9C919923D1
:1025C00059F18EE28C93DF010D900020E9F711970D
:1025D0009D012E1B3F0B8FEF820F2223A9F0DF01FD
:1025E000A80FB11D9C91903379F48EEF820F01C03A
:1025F000822F1C928F3F41F0DF01A80FB11D2FEFFA
:10260000280F9C919033A1F3DF01A80FB11D8C918D
:102610008E3231F41C9204C0DF01A80FB11D1C9250
:10262000662309F498C0319796C02A2D372D462D80
:10263000552D642D732D8F2D9B2D0FE30E94EF34AC
:10264000822F8170282E20FD03C01CEF180D02C0C0
:102650001BEF180D2A2D372D462D552D642D732D6A
:102660008F2D9B2D04E30E94EF342B833C834D83FD
:102670005E836F83788789879A878B819C81977027
:1026800089839A838F3FA3E09A070CF411508D5DE4
:1026900093408534910508F0115011110CC011E0E0
:1026A0000AC0115049F48281882361F18F7D8534FD
:1026B000E9F492E028C0912CC12CD12CE12C012FFF
:1026C0002A2D372D462D552D642D732D8F2D9B2DA5
:1026D0000E94D40DFC01DC010D900020E9F7119758
:1026E000A81BB90B8A169B06E0F2DDCF92E09F5F34
:1026F000DF01A90FB11D8C91882329F08F7D8534CE
:10270000B1F701C092E0892F8150843020F421106C
:102710000AC0833050F0DF01A80FB11D2C91203387
:1027200099F3282F03C0282F01C0282F981B892F29
:10273000820F2F5FDF01A80FB11D8C91DF01A20F67
:10274000B11D8C938111F3CF06C0192D7FCE822F3E
:1027500090819183CACECF016596CDBFDEBFDF9158
:10276000CF911F910F91FF90EF90DF90CF90BF908E
:10277000AF909F908F907F906F905F904F903F9021
:102780002F900895E0EAF6E080E1828380E2828380
:1027900080E4828380E8828308958091A80684FD86
:1027A0000EC08091DE209091DF2080362AEE9207C5
:1027B000E8F401968093DE209093DF2017C080918B
:1027C000DE209091DF208B30910548F0C39718F000
:1027D0001092682D07C081E08093682D03C082E0CD
:1027E0008093682D1092DE201092DF208091A80641
:1027F00085FD0EC08091DC209091DD2080362AEE90
:102800009207E8F401968093DC209093DD2017C0B6
:102810008091DC209091DD208B30910548F0C397AA
:1028200018F01092692D07C081E08093692D03C0D4
:1028300082E08093692D1092DC201092DD2080913F
:10284000A80686FD0EC08091DA209091DB208036AC
:102850002AEE9207E8F401968093DA209093DB2029
:1028600017C08091DA209091DB208B30910548F0E1
:10287000C39718F010926A2D07C081E080936A2DEB
:1028800003C082E080936A2D1092DA201092DB2040
:102890008091A806882374F08091D8209091D92047
:1028A00080362AEE9207E8F401968093D820909320
:1028B000D92008958091D8209091D9208B3091050E
:1028C00048F0C39718F010926B2D07C081E08093F9
:1028D0006B2D03C082E080936B2D1092D820109254
:1028E000D9200895813049F028F0823049F08330B2
:1028F00051F00CC08091682D08958091692D089544
:1029000080916A2D089580916B2D089582E008953D
:102910000F93CF93DF931F92CDB7DEB72FB72983E5
:10292000F8941BBEFC0108ED04BF608389818FBF52
:102930000F90DF91CF910F910895611102C090E047
:1029400001C090E2842B892B8093520008956F710F
:10295000862B809355000895E0E5F0E09081282FC4
:10296000209592239083908189230895682B81E498
:1029700090E00E94881408950F931F93CF93C82F5F
:1029800000E410E0F8016081687F682B80E490E04B
:102990000E948814F80180818C23CF911F910F91A0
:1029A0000895FC019081907F692B60830895FC015C
:1029B0009181987F692B61830895FC0196819C7FAA
:1029C000692B66830895000088ED84BF81E08093C1
:1029D000790008950E94E3140895CF93DF9380E176
:1029E00090E00E948A16EC01009741F0FC011192E0
:1029F000119211921192CF010E94B116CE01DF9176
:102A0000CF9108952F923F924F925F926F927F9253
:102A10008F929F92AF92BF92CF92DF92EF92FF92EE
:102A20000F931F93CF93DF93EC014A015B01622E5A
:102A3000702E0E94FE1D288039804A805B80011123
:102A40000DC081E0B201A101482159216A217B21F9
:102A5000452B462B472B79F480E00DC081E0B20175
:102A6000A101482159216A217B21481559056A0590
:102A70007B0509F080E0882381F0662009F470C0AE
:102A800080949094A094B09482209320A420B520A8
:102A900088829982AA82BB8263C0C114D104E104F6
:102AA000F10409F45DC0662029F040E050E060E0E8
:102AB00071E003C040E050E0BA0171107460482931
:102AC00059296A297B2997018601CE0104960E9423
:102AD0002D200E94E91E811102C00E940F180E9441
:102AE0006A2191FD39C0F091A200FF93F87FF09325
:102AF000A200688179818A819B8171100DC021E0DB
:102B000075016401C622D722E822F922CD28CE28F9
:102B1000CF2879F420E00DC021E075016401C622C0
:102B2000D722E822F922C814D904EA04FB0409F0E8
:102B300020E0222371F0662061F080949094A094AC
:102B4000B09486229722A822B92288829982AA82EA
:102B5000BB82FF91F093A2001B012C01552402C0FF
:102B60000E94E91EC201B101DF91CF911F910F9127
:102B7000FF90EF90DF90CF90BF90AF909F908F909D
:102B80007F906F905F904F903F902F9008950F939C
:102B90001F93F091A200FF93F87FF093A200FC0135
:102BA0000081118122813381409550956095709507
:102BB00040235123622373234083518362837383B1
:102BC000FF91F093A200C901B8011F910F910895E0
:102BD0004F925F926F927F92AF92BF92CF92DF92AD
:102BE000EF92FF920F931F93CF93DF93EC016A0153
:102BF0007B018C01095F1F4F0E94FE1DEB85FC8548
:102C000088819981AA81BB81C82AD92AEA2AFB2A0C
:102C1000C882D982EA82FB820E171F0709F442C0DC
:102C2000C12CD12C7601A480B58080819181A281B4
:102C3000B381AC01BD017727B2FD0FC04880598038
:102C40006A807B80442255226622772221E0452833
:102C50004628472889F420E00FC0488059806A80C0
:102C60007B80442255226622772221E044165506B5
:102C70006606770609F020E0222371F0B0FF04C059
:102C8000C42AD52AE62AF72A488159816A817B819C
:102C90007260CF010E94B520EA2DFB2D0E171F0791
:102CA00011F603C0C12CD12C7601C094D094E094CD
:102CB000F09488819981AA81BB81C822D922EA2215
:102CC000FB22C882D982EA82FB820E94E91E6881C7
:102CD00079818A819B81DF91CF911F910F91FF9024
:102CE000EF90DF90CF90BF90AF907F906F905F900C
:102CF0004F9008950E94E81508950F931F9389013E
:102D00009A01AB01BC018AE796E10E944A241F9117
:102D10000F910895CF93DF93EC010E94FE1D209147
:102D2000E0203091E120C9018C0F9D1F883B4BE0D2
:102D3000940758F42817390758F4E901CE51DF4DAC
:102D40008093E0209093E12005C0C0E0D0E002C075
:102D5000C0E0D0E00E94E91ECE01DF91CF9108953E
:102D60000895FC010396818392834FEF5FEFBA01D0
:102D70004383548365837683878390878187928793
:102D800010820895FC01128613860895CF93DF9375
:102D90009C01FB01DC011196CD91DC911297C4835B
:102DA000D5838E819F81868397838E819F81DC016D
:102DB00014966D937C9315976E837F832287338758
:102DC000F90180818F5F8083DF91CF9108950F9308
:102DD0001F93CF93DF93EB01088119812A813B81F7
:102DE0000F3F4FEF14072407340721F4FC01A1859E
:102DF000B28511C0DC01139601C0DF011496ED917C
:102E0000FC911597408151816281738104171507E8
:102E10002607370790F71496ED91FC911597EC83F0
:102E2000FD83C683D783AE83BF831496CD93DC9393
:102E300015978A879B87FC0120812F5F2083DF9174
:102E4000CF911F910F910895CF93DF93FC01A2853D
:102E5000B385C481D581868197818E839F83C68106
:102E6000D781848195818C839D8311968D919C91CE
:102E70001297E817F90731F48681978111968D939F
:102E80009C931297128613868C9181508C938C910F
:102E9000DF91CF910895E0EAF0E082819281987FFE
:102EA00092830895CF92DF92EF92FF9231E1FC017D
:102EB0003083319722E220833197A3E3A0836B0113
:102EC000E12CF12C319760833197D0823197E082E9
:102ED000319761E36083319760E86083319767E8F9
:102EE00060833197108231971082319762E060835E
:102EF000319763E06083319764E06083319765E0E8
:102F00006083319766E06083319767E06083319733
:102F100068E06083319769E06083319760E16083A6
:102F200031973083319732E13083319733E1308309
:102F3000319734E13083319735E13083319736E191
:102F40003083319737E13083319738E130833197DF
:102F500039E13083319730E23083319731E2308389
:102F600031972083319723E220836A013197408390
:102F70003197D082319726E22083319727E2208350
:102F8000319728E22083319729E22083319720E38B
:102F900020838897FF90EF90DF90CF90089583EF84
:102FA00091E0809326089093270865E080E098E000
:102FB0000E94D11461E080E098E00E94DD14A091AD
:102FC000082DB091092D0D900DBE0D900EBEEF9104
:102FD000DF91CF91BF91AF919F918F917F916F9131
:102FE0005F914F913F912F911F910F91FF90EF9023
:102FF000DF90CF90BF90AF909F908F907F906F9019
:103000005F904F903F902F901F900F90FF91F09303
:10301000A200FF91FFBFFF91089581E00895FF9303
:10302000FFB7FF93F091A200FF93F87FF093A20007
:103030000F921F9211242F923F924F925F926F92A4
:103040007F928F929F92AF92BF92CF92DF92EF9238
:10305000FF920F931F932F933F934F935F936F9321
:103060007F938F939F93AF93BF93CF93DF93EF9310
:10307000A091082DB091092D0DB60D920EB60D92AE
:103080000E94871FA091082DB091092D0D900DBEB3
:103090000D900EBEEF91DF91CF91BF91AF919F91B7
:1030A0008F917F916F915F914F913F912F911F91E0
:1030B0000F91FF90EF90DF90CF90BF90AF909F90D7
:1030C0008F907F906F905F904F903F902F901F90C8
:1030D0000F90FF91F093A200FF91FFBFFF91089521
:1030E000CF9390916C2D892B80936C2D9091A000A3
:1030F000913041F09091A000923021F09091A00089
:10310000943059F4882349F00E944B17C82F10922D
:103110006C2D0E94871FC093A200CF910895FF934A
:10312000FFB7FF93F091A200FF93F87FF093A20006
:103130000F921F9211242F923F924F925F926F92A3
:103140007F928F929F92AF92BF92CF92DF92EF9237
:10315000FF920F931F932F933F934F935F936F9320
:103160007F938F939F93AF93BF93CF93DF93EF930F
:10317000A091082DB091092D0DB60D920EB60D92AD
:103180000E944B17C82F0E94161EC093A20081E018
:103190000E947018A091082DB091092D0D900DBEC0
:1031A0000D900EBEEF91DF91CF91BF91AF919F91A6
:1031B0008F917F916F915F914F913F912F911F91CF
:1031C0000F91FF90EF90DF90CF90BF90AF909F90C6
:1031D0008F907F906F905F904F903F902F901F90B7
:1031E0000F90FF91F093A200FF91FFBFFF91189500
:1031F000F091A200FF93F87FF093A200FC01968D5E
:10320000FF91F093A20081E0911180E00895DC012C
:10321000F091A200FF93F87FF093A2005E969C913C
:103220005E97FF91F093A20081E05F962C912913A5
:1032300080E008950F931F93CF93DF93EC01042F49
:103240001E8D48A14423B9F1011116C050E08C81B4
:103250009D810E94303628A18C819D81820F911D15
:103260008C839D832A813B818217930720F188817B
:1032700099818C839D831FC050E08E819F810E9425
:10328000303688A190E09195819591092E813F81FA
:10329000280F391F2E833F83488159812417350712
:1032A00030F42A813B81820F931F8E839F830230EB
:1032B00011F4111111501F5F1E8F80E0DF91CF912B
:1032C0001F910F910895FC0140A14423A9F050E003
:1032D00026813781240F351F26833783828193818E
:1032E0002817390720F08081918186839783CB014D
:1032F000668177810E9430360895EF92FF920F9396
:103300001F93CF938C01F091A200FF93F87FF0936D
:10331000A200FC01C2A11C16ACF48389811106C075
:1033200011C0F8018389811105C00CC07801F3E157
:10333000EF0EF11CC7010E94732081110E945821D9
:10334000C15079F78FEFF80182A3FF91F093A200AB
:10335000F091A200FF93F87FF093A200F801C1A1C1
:103360001C16ACF48085811106C011C0F80180855F
:10337000811105C00CC07801F8E0EF0EF11CC70107
:103380000E94732081110E945821C15079F78FEF5C
:10339000F80181A3FF91F093A200CF911F910F91AB
:1033A000FF90EF900895CF93DF93EC01F091A2008E
:1033B000FF93F87FF093A2004881598128A130E063
:1033C0007F8D729FC001739F900D1124FA01E80F49
:1033D000F91FEA83FB831E8E4C835D83821B930B54
:1033E000840F951F8E839F838FEF89A38AA361111A
:1033F0000CC08885882389F0CE0108960E9473202E
:10340000882359F00E940F1808C0CE0108960E9428
:10341000B116CE0143960E94B116FF91F093A2001F
:1034200081E0DF91CF910895FF920F931F93CF9387
:10343000DF93082F162FF42E6623C9F0869FC00154
:10344000112485960E948A16EC01009749F416C053
:103450000F8F18A361E0CE010E94D319FCA20EC009
:10346000859688839983F4CFC883D983F1CF85E289
:1034700090E00E948A16EC01892BB1F7CE01DF9112
:10348000CF911F910F91FF900895AF92BF92CF926D
:10349000DF92EF92FF920F931F93CF93DF93CDB7FD
:1034A000DEB72997CDBFDEBF7C015B012E833F8352
:1034B0004887598710E06C0188E0C80ED11CF09154
:1034C000A200FF93F87FF093A200F701968D878DFD
:1034D000981710F00230D1F4402FB501C7010E94B7
:1034E0001A19F7019389992349F0C70143960E945D
:1034F0007320882331F00E940F1803C081110E94AD
:103500000F18FF91F093A20081E057C08E819F8138
:10351000A885B985892B8A2B8B2B29F4FF91F093F1
:10352000A20080E04AC0111105C0CE0101960E94A0
:10353000E92011E0FF91F093A2000E94FE1DF0919E
:10354000A200FF93F87FF093A200F70181A18F3FC3
:1035500009F411A2F70182A18F3F09F412A2FF9191
:10356000F093A200BE016A5F7F4FCE0101960E94D8
:10357000FA2081111CC0C7010E940719882389F015
:103580004E815F8168857985C6010E941520C7013B
:103590000E947D190E94E91E811191CF0E940F188F
:1035A0008ECFC7010E947D190E94E91E88CFC701F6
:1035B0000E947D190E94E91E80E02996CDBFDEBFE2
:1035C000DF91CF911F910F91FF90EF90DF90CF90FF
:1035D000BF90AF900895AF92BF92CF92DF92FF92CB
:1035E0000F931F93CF93DF93EC016B015A01022FCE
:1035F0000E944B17F82E9E8D8F8D981710F0023079
:10360000E1F41AA1402FB601CE010E941A191F3F02
:1036100081F48B89882399F0CE0143960E94732010
:10362000882379F0A114B10471F081E0F501808361
:103630000BC01F5F1AA381E007C080E005C081E0D6
:1036400003C081E001C081E0F092A200DF91CF9140
:103650001F910F91FF90DF90CF90BF90AF90089592
:10366000AF92BF92CF92DF92EF92FF920F931F9390
:10367000CF93DF93CDB7DEB72997CDBFDEBF8C01E7
:103680005B012E833F8348875987E12C6C0183E1DE
:10369000C80ED11CF091A200FF93F87FF093A20016
:1036A000F801F68CFF20B1F0B501C8010E94631942
:1036B000FA94F801F68E8085882339F0C8010896BF
:1036C0000E94732081110E940F18FF91F093A200B5
:1036D00081E05EC08E819F81A885B985892B8A2B68
:1036E0008B2B29F4FF91F093A20080E051C0E110F0
:1036F00006C0CE0101960E94E920EE24E394FF91DA
:10370000F093A2000E94FE1DF091A200FF93F87FAB
:10371000F093A200F80181A18F3F09F411A2F801F2
:1037200082A18F3F09F412A2FF91F093A200BE0183
:103730006A5F7F4FCE0101960E94FA2081111CC062
:10374000C8010E94F818882389F04E815F8168853E
:103750007985C6010E941520C8010E947D190E942A
:10376000E91E811197CF0E940F1894CFC8010E94C3
:103770007D190E94E91E8ECFC8010E947D190E940A
:10378000E91EC8010E94F818882309F483CF80E05D
:103790002996CDBFDEBFDF91CF911F910F91FF9092
:1037A000EF90DF90CF90BF90AF900895F091A2007E
:1037B000FF93F87FF093A200FC01868DFF91F093B8
:1037C000A2000895CF93DF93EC01F091A200FF9344
:1037D000F87FF093A20089A18F3F09F419A28AA172
:1037E0008F3F09F41AA2FF91F093A2008E8D8111F0
:1037F00004C0CE0143960E945220CE010E947D1942
:10380000DF91CF910895E091C42CF091C52C808177
:1038100081110CC08FEF9FEFDC0180939D2C909362
:103820009E2CA0939F2CB093A02C0895E091C42CC3
:10383000F091C52C0780F085E02D0084F185E02D06
:1038400082819381A481B58180939D2C90939E2C3D
:10385000A0939F2CB093A02C08958F929F92AF922B
:10386000BF92CF92DF92EF92FF92CF936B017C01D8
:10387000C42F8090A72C9090A82CA090A92CB09039
:10388000AA2C8091082D9091092D02960E94241750
:103890008FEFC816D806E806F80669F4CC2359F06D
:1038A0006091082D7091092D6E5F7F4F8CEA9CE22C
:1038B0000E94C6163FC0C80CD91CEA1CFB1CE09134
:1038C000082DF091092DC282D382E482F582C814BA
:1038D000D904EA04FB0468F46091082D7091092D65
:1038E0008091C22C9091C32C6E5F7F4F0E94E7168F
:1038F00021C06091082D7091092D8091C42C909168
:10390000C52C6E5F7F4F0E94E71680919D2C909191
:103910009E2CA0919F2CB091A02CC816D906EA0627
:10392000FB0640F4C0929D2CD0929E2CE0929F2CDE
:10393000F092A02CCF91FF90EF90DF90CF90BF90AE
:10394000AF909F908F900895CCEDDCE2888182301B
:1039500010F00E940F180E94CE27F8CF4F925F926E
:103960006F927F928F929F92AF92BF92CF92DF928F
:10397000EF92FF920F93CF93DF934C016B015A01AB
:103980002901CA010E948A163C01892B09F4EAC068
:103990008CE290E00E948A16EC01892BB1F06B8ECC
:1039A0007C8EA50165EA70E0C3010E94393621E0F2
:1039B000A21AB1088B8D9C8DA80EB91ED6018C91D0
:1039C0008D8F8C91811105C018C0C3010E94B01663
:1039D000C9C0AE01425E5F4FF6013196B8E0CB0E32
:1039E000D11CCF012191DA012D93AD01DC018C9125
:1039F000882319F0EC15FD05A1F71CA2043008F08E
:103A000003E00A8F6E01B2E0CB0ED11CC6010E940A
:103A1000C216CE010E960E94C216CA87DB8784E0CA
:103A200090E0A0E0B0E0801B9109A109B1098E8768
:103A30009F87A88BB98BCE8BDF8B1FA218A619A6E8
:103A40001AA61BA6A201B401C5010E9452178883C1
:103A50009983E114F10419F0F701C083D183F09147
:103A6000A200FF93F87FF093A2008091AB2C8F5FB0
:103A70008093AB2C8091082D9091092D892BA9F56D
:103A8000C093082DD093092D8091AB2C8130E9F59E
:103A90008CED9CE20E94B11687EE9CE20E94B1166A
:103AA00082EF9CE20E94B1168DEF9CE20E94B1165B
:103AB00081ED9CE20E94B11686EC9CE20E94B11658
:103AC00087EB9CE20E94B1168CEA9CE20E94B11640
:103AD00081ED9CE28093C42C9093C52C86EC9CE2F3
:103AE0008093C22C9093C32C10C08091A52C81117F
:103AF0000CC0E091082DF091092D928D8A8D8917C7
:103B000020F0C093082DD093092D8091A12C8F5FB8
:103B10008093A12C8DA38A8D9091A62C981710F4D8
:103B20008093A62CFBE08F9FC0011124B601845224
:103B3000934D0E94C616FF91F093A2008091A52C90
:103B4000882361F0E091082DF091092D928D8A8DE6
:103B5000981730F40E940F1881E005C081E003C07F
:103B600081E001C08FEFDF91CF910F91FF90EF9037
:103B7000DF90CF90BF90AF909F908F907F906F908D
:103B80005F904F900895EF92FF920F930F2EFBE9F5
:103B9000EF2EFCE2FF2EF02D00E020E030E048ECBC
:103BA00050E060E070E284EA9CE10E94AE1C81304B
:103BB00009F50E9408228130E9F4E0EAF0E0828110
:103BC000887F82838FEF9FEFDC0180939D2C909301
:103BD0009E2CA0939F2CB093A02C81E08093A52CC9
:103BE0001092A72C1092A82C1092A92C1092AA2CFB
:103BF0000E94CF170F91FF90EF90089580919A2C1B
:103C00008F5F80939A2C0895F091A200FF93F87F24
:103C1000F093A2006091A72C7091A82C8091A92C00
:103C20009091AA2CFF91F093A2000895AF92BF92B9
:103C3000CF92DF92EF92FF920F931F93CF93DF9378
:103C400080919A2C8111ADC0C090A72CD090A82C47
:103C5000E090A92CF090AA2C8FEFC81AD80AE80A95
:103C6000F80AC092A72CD092A82CE092A92CF0922E
:103C7000AA2CC114D104E104F104B9F48091C42C3C
:103C80009091C52C2091C22C3091C32C2093C42C30
:103C90003093C52C8093C22C9093C32C8091A22C7E
:103CA0008F5F8093A22C0E94031C80919D2C909189
:103CB0009E2CA0919F2CB091A02CC816D906EA0684
:103CC000FB0610F4B12C5CC0B12C0F2EFBE0AF2E24
:103CD000F02DE091C42CF091C52C808181110CC095
:103CE0008FEF9FEFDC0180939D2C90939E2CA093EF
:103CF0009F2CB093A02C44C0E091C42CF091C52C13
:103D00000780F085E02DC085D1858A819B81AC81BB
:103D1000BD81C816D906EA06FB0648F480939D2C9F
:103D200090939E2CA0939F2CB093A02C29C08E0121
:103D30000E5F1F4FC8010E942417888D998D892B13
:103D400021F0CE010E960E9424178A8D9091A62C08
:103D5000981710F48093A62CA89EC0011124B801D6
:103D60008452934D0E94C616E091082DF091092DC2
:103D70009A8D828D981708F4ACCFBB24B394A9CF49
:103D8000E091082DF091092DE28D8BE0E89FF00184
:103D90001124E452F34D8081823048F0BB24B39467
:103DA00006C08091A42C8F5F8093A42CB12C8091AD
:103DB000A32C882311F0BB24B3948B2DDF91CF91DA
:103DC0001F910F91FF90EF90DF90CF90BF90AF9039
:103DD0000895CF92DF92EF92FF920F931F93CF93AC
:103DE000DF93F091A200FF93F87FF093A2008091FF
:103DF0009A2C815080939A2C80919A2C81115CC0CE
:103E00008091AB2C81112CC05AC0D7011796ED912F
:103E1000FC911897C085D185CE010E960E9424177B
:103E20008E010E5F1F4FC8010E9424178A8D90914A
:103E3000A62C981710F48093A62CD89EC0011124AC
:103E4000B8018452934D0E94C616E091082DF0915E
:103E5000092D9A8D828D981788F0C092A32C0EC0E0
:103E6000C0E0D0E00F2EF7EBEF2EFCE2FF2EF02D9E
:103E70000F2EFBE0DF2EF02DCC24C394F7018081C0
:103E80008111C3CFCD2B11F00E94031CC091A42C33
:103E9000CC2351F0D1E00E94161E8111D093A32CA7
:103EA000C150C9F71092A42C8091A32C882331F023
:103EB0000E940F1881E003C080E001C080E0FF9104
:103EC000F093A200DF91CF911F910F91FF90EF909F
:103ED000DF90CF900895CF92DF92EF92FF926B0127
:103EE0007C01672B682B692B59F00E94FE1D40E076
:103EF000C701B6010E942D1C0E94E91E811102C05B
:103F00000E940F18FF90EF90DF90CF90089580915E
:103F10009A2C882321F081E08093A32C089510929D
:103F2000A32CE091082DF091092D038CF48DE02D48
:103F300080819181A281B381853A954AA54AB54A8B
:103F4000D9F484819581A681B781853A954AA54A9D
:103F5000B54A91F480859185A285B385853A954AC5
:103F6000A54AB54A49F484859585A685B785853ADD
:103F7000954AA54AB54A61F06091082D7091092DC6
:103F80008091082D9091092D635E7F4F0E94EA1465
:103F90008091A62C282F30E09BE0899FF00111240E
:103FA000E452F34D908191110EC04BE08150282FC7
:103FB00030E0429FF001439FF00D1124E452F34D95
:103FC0009081992399F39BE0929FA001939F500DBC
:103FD0001124DA01A452B34D1196ED91FC91129780
:103FE0000480F581E02D1196ED93FC9312974152D8
:103FF000534DE417F50729F444815581FD014183B0
:1040000052839BE0929FF001939FF00D1124E452A4
:10401000F34D0180F281E02D208531852093082D1C
:104020003093092D8093A62C0895CF92DF92EF92C2
:10403000FF926A017B016091082D7091092D625FEA
:104040007F4F0E94E71641E0C701B6010E942D1C78
:10405000FF90EF90DF90CF900895CF92DF92EF9294
:10406000FF920F931F9368017901E091082DF09161
:10407000092D706846875787608B718B6091082D7A
:104080007091092D625F7F4F0E94C61641E0C70103
:10409000B6010E942D1C1F910F91FF90EF90DF90B1
:1040A000CF900895CF92DF92EF92FF92CF936A0163
:1040B0007B01C22F6091082D7091092D625F7F4FA7
:1040C0000E94C616CC2321F0CC24CA94DC2C7601A5
:1040D0004C2FC701B6010E942D1CCF91FF90EF908D
:1040E000DF90CF9008950F931F93CF93DF93DC0160
:1040F0001796ED91FC911897C085D1858E01025FCE
:104100001F4FC8010E94241780919A2C811116C05C
:104110000C501109C8010E9424178A8D9091A62C79
:10412000981710F48093A62CBBE08B9FC00111243C
:10413000B8018452934D0E94C61605C0B80187EBA2
:104140009CE20E94C616E091082DF091092D9A8DEF
:10415000828D891720F481E08093A32C01C080E038
:10416000DF91CF911F910F9108950F931F93CF93DC
:10417000DF937068FC014083518362837383C08541
:10418000D1850E9424178E010E5F1F4FC8010E9427
:1041900024178A8D9091A62C981710F48093A62C42
:1041A000FBE08F9FC0011124B8018452934D0E94FF
:1041B000C616E091082DF091092D9A8D828D8917F0
:1041C00018F481E08093A32CDF91CF911F910F9180
:1041D00008952091A22CFC0120834091A72C50919E
:1041E000A82C6091A92C7091AA2C418352836383DF
:1041F00074830895CF92DF92EF92FF920F931F93F3
:10420000CF93DF93DB01F091A200FF93F87FF0934F
:10421000A2004091A72C5091A82C6091A92C7091DC
:10422000AA2C0D911D912D913C9113970F3FCFEF2B
:104230001C072C073C0769F1FC01C180D280E38098
:10424000F480E091A22CEC01F881FE1729F04C15C6
:104250005D056E057F05F8F44C195D096E097F094F
:10426000401751076207730768F4FD01041B150B23
:10427000260B370B00831183228333830E94E920AE
:1042800080E00AC01D921D921D921C92139781E03E
:1042900003C080E001C081E0FF91F093A200DF91B4
:1042A000CF911F910F91FF90EF90DF90CF900895E5
:1042B00081E08093A32C08958091A52C882331F070
:1042C00080919A2C882321F080E0089581E0089560
:1042D00082E00895CF92DF92EF92FF92E091082D55
:1042E000F091092D6685778580899189E091082D67
:1042F000F091092DA091082DB091092D5A962C917D
:10430000C12CD12C76016894C2F8C21AD108E108F8
:10431000F108C686D786E08AF18AFF90EF90DF9099
:10432000CF900895CF92DF92EF92FF920F931F9359
:10433000FC014283538364837583828793870417C8
:10434000150726073707C0F00C191D092E093F096C
:1043500086859785A089B189081719072A073B0721
:1043600000F5BF016E5F7F4F8091122D9091132D4C
:104370000E94E71680E018C00C151D052E053F05AC
:1043800028F44C155D056E057F0568F4BF016E5F6E
:104390007F4F8091142D9091152D0E94E71680E09B
:1043A00003C081E001C081E01F910F91FF90EF9069
:1043B000DF90CF900895F091A200FF93F87FF093E3
:1043C000A2008091102D9091112D892BE9F481E2AA
:1043D0009DE20E94B11686E19DE20E94B11681E243
:1043E0009DE28093142D9093152D86E19DE280939C
:1043F000122D9093132D40E069E085E00E94141A7D
:104400008093102D9093112DFF91F093A2000895A9
:10441000EF92FF920F930E94DB218091102D9091DB
:10442000112D892B91F00F2EFEE0EF2EFDE2FF2ED5
:10443000F02D03E020E030E048EC50E065E070E271
:104440008BE193E20E94AE1C01C080E00F91FF90CF
:10445000EF9008958F929F92AF92BF92CF92DF928A
:10446000EF92FF920F931F93CF93DF93CDB7DEB7F9
:104470002997CDBFDEBFE091102DF091112D30971F
:1044800089F169832A833B834C835D838E839F8379
:104490006630FCF40E945C21823069F400E0A701E0
:1044A0009601BE016F5F7F4F8091102D9091112D6D
:1044B0000E94451A18C000E020E030E0A901BE01CA
:1044C0006F5F7F4F8091102D9091112D0E94451AA2
:1044D0000AC020E0A801BE016F5F7F4FCF010E949C
:1044E000EB1A01C080E02996CDBFDEBFDF91CF91EE
:1044F0001F910F91FF90EF90DF90CF90BF90AF9002
:104500009F908F9008952F923F924F925F926F925B
:104510007F928F929F92AF92BF92CF92DF92EF9253
:10452000FF920F931F93CF93DF931C010E94041EF1
:104530002B013C0180910A2D90910B2DA0910C2D07
:10454000B0910D2D481659066A067B0608F054C036
:104550003CC00780F085E02D80809180A280B380F0
:10456000C085D1858E010E5F1F4FC8010E942417A0
:10457000ED89FE89CE0119958A89813031F58E85C4
:104580009F85A889B989880D991DAA1DBB1D88160C
:104590009906AA06BB0670F48A839B83AC83BD830D
:1045A000CA87DB87B8018091142D9091152D0E9448
:1045B000E7160BC0C12CD12C760100E010E0A5015C
:1045C000940160E0CE010E942A22E091142DF09126
:1045D000152D80818111BDCF8091122D9091132DC9
:1045E0008093142D9093152DE093122DF093132D9D
:1045F00081E0F101808302C0F101108240920A2D16
:1046000050920B2D60920C2D70920D2DC301B201B2
:10461000DF91CF911F910F91FF90EF90DF90CF909E
:10462000BF90AF909F908F907F906F905F904F90D2
:104630003F902F900895CF93DF93CDB7DEB72E979D
:10464000CDBFDEBFCE0101961C01A82EB32CE09198
:10465000142DF091152D8081882309F403C1078062
:10466000F085E02D40805180628073800E94FE1DA5
:10467000C1010E9483226B877C878D879E878981F9
:1046800081115EC08B859C85AD85BE8584159505A1
:10469000A605B705E8F10E94E91EE091142DF091FE
:1046A000152D0780F085E02D80849184C401029649
:1046B0000E942417D40152968C915297813001F5B3
:1046C0001E964D915D916D917C915197440D551DB4
:1046D000661D771D730162010B851C852D853E8546
:1046E000C4010E949221882359F0C12CD12C76015B
:1046F00000E010E0A301920160E0C4010E942A22C0
:10470000D4015596ED91FC915697C40119959CC022
:1047100020E0B301A2018B859C85AD85BE85481B39
:10472000590B6A0B7B0B8091102D9091112D0E94DB
:10473000E21B0E94E91E811187C00E940F1884C0ED
:104740000E94E91E81C0898188236CF44E815F81BB
:1047500068857985EA81FB818C819D8119958981A4
:1047600088230CF471C08E809F80D4011C968D919B
:104770009C911D97892B21F0C40102960E94241759
:10478000CE010A960E9483228B019C018981082E0A
:10479000000C990BAA0BBB0B8A30910508F054C092
:1047A000FC018827E250FF4F8F4F0C946334CA807E
:1047B000DB80EC80FD80F401468557856089718936
:1047C0004C0D5D1D6E1D7F1DC4010E94922188232A
:1047D000D9F1D4015596ED91FC915697C4011995E4
:1047E000F4018289813081F54A815B816C817D8110
:1047F00086859785A089B1899A01AB01280F391F59
:104800004A1F5B1FC12CD12C760100E010E060E054
:10481000C4010E942A2218C04A815B816C817D817B
:10482000D4011E964D935D936D937C935197400FE9
:10483000511F621F731F68017901C4010E949221F8
:1048400003C0C4010E94B01620E030E0A9016A2D27
:104850007B2D8091102D9091112D0E94301B811184
:1048600072CFF5CE0E94FE1DC1010E9483226B878C
:104870007C878D879E878981811162CFE091122D7F
:10488000F091132D808121E0811120E0412C512CE9
:1048900032013FCF0F931F93CF93DF93CDB7DEB796
:1048A0002997CDBFDEBFEEEFE9838A839B836C83BC
:1048B0007D832E833F834887598720E0A801BE016E
:1048C0006F5F7F4F8091102D9091112D0E94EB1AF8
:1048D0002996CDBFDEBFDF91CF911F910F91089533
:1048E000E0E5F0E0808181608083818180FFFDCF01
:1048F00080E00E94BC148EE10E94AC1460E080E075
:104900000E94B61443E060E080E40E949D14E0E55C
:10491000F0E0808188608083818183FFFDCF64E047
:1049200080EC0E94A714E0E5F0E080818061808344
:1049300060E080E00E94B614E0E5F0E0818184FF51
:10494000FDCF84E00E94BC1487E00E94AC1408955F
:104950000F2EFDE06F2EF0E27F2EF02DCDE6DDE292
:104960000F2EF3E18F2EF0E29F2EF02D0F2EF0E1AF
:10497000AF2EF0E2BF2EF02DFF24F3940F2EF6E2BF
:104980004F2EF0E25F2EF02D12E00F2EFEE12F2EC3
:10499000F0E23F2EF02D0F2EFEE2CF2EF0E2DF2EC2
:1049A000F02D2091382D3091392D40913A2D509194
:1049B0003B2D60913C2D70913D2D6894EE24E4F8E0
:1049C00000E180913E2D90913F2D0E9446119F93D2
:1049D0008F937F926F92DF93CF930E94AC360E94A9
:1049E0008F2A9F928F921F921F921F921F920E9456
:1049F0009A2ADF93CF93BF92AF921F921F921F927A
:104A0000FF920E949A2A40E050E0BA018091832DE3
:104A10009091842D0E94C7158DB79EB744968DBF87
:104A20009EBF62FF0FC03F922F921F921F921F9254
:104A30001F930E949A2A0F900F900F900F900F9043
:104A40000F900EC05F924F921F921F921F921F9362
:104A50000E949A2A0F900F900F900F900F900F9036
:104A600020912C2D30912D2D40912E2D50912F2DB8
:104A70006091302D7091312D8091322D9091332D98
:104A80002A3B33414240510561057105810591057D
:104A900029F020F01092362D1092372D8091352D6F
:104AA0008F938091342D8F93DF92CF921F921F921C
:104AB0001F9283E08F930E949A2A64EF71E080E056
:104AC00090E00E946B1F8DB79EB708968DBF9EBF6A
:104AD00068CFC1E0D0E00E94CD1380E00E94721444
:104AE000813071F4C093362DD093372D41E050E0E2
:104AF00060E070E08091832D9091842D0E94E815F4
:104B000081E00E947214813071F41092362D10925F
:104B1000372D41E050E060E070E08091832D90916E
:104B2000842D0E94C71582E00E947214813051F4D6
:104B300042E050E060E070E08091832D9091842D00
:104B40000E94E8156AE070E080E090E00E946B1F30
:104B5000C2CFCF93DF93CDB7DEB72897CDBFDEBFEF
:104B6000E0E8F6E081E081838483412C512C612CC4
:104B7000712C812C912C18861F8240E050E0BA01E4
:104B80008091832D9091842D0E94C71560FF85C16F
:104B900020912C2D217030E040E050E060E070E08A
:104BA00080E090E0A0E00E94323509F4B6C060E0F9
:104BB00070E080E090E40E94360AA22EB32EC42E4C
:104BC000D52EE62EF72E082F192F242D352D462D04
:104BD000572D682D792D88859F810E94CB0B222E21
:104BE000332E49835A836B837C838D839E8360E05D
:104BF00070E080E89FE30E94360AA22EB32EC42EF6
:104C0000D52EE62EF72E082F192F222D332D498170
:104C10005A816B817C818D819E810E94F30AA22E34
:104C2000B32EC42ED52EE62EF72E082F192F60E0B6
:104C300070E080E890E40E94360A0E94D00CA22E18
:104C4000B32EC42ED52EE62EF72E2091382D30917E
:104C5000392D40913A2D50913B2D60913C2D709112
:104C60003D2D082F192F80913E2D90913F2D0E94B0
:104C70008B0B2093382D3093392D40933A2D509340
:104C80003B2D60933C2D70933D2D80933E2D909352
:104C90003F2D60E070E080E89FE30E94360AA22E7C
:104CA000B32EC42ED52EE62EF72E082F192F242D25
:104CB000352D462D572D682D792D88859F810E9491
:104CC000F30A422E532E642E752E862E972E888739
:104CD0009F8320912C2D30912D2D40912E2D509180
:104CE0002F2D6091302D7091312D8091322D90912A
:104CF000332DA1E00E94143520932C2D30932D2DBF
:104D000040932E2D50932F2D6093302D7093312D85
:104D10008093322D9093332DB5C060E070E080E039
:104D200090E40E94360AA22EB32EC42ED52EE62E73
:104D3000F72E082F192F242D352D462D572D682D90
:104D4000792D88859F810E94CB0B222E332E49839B
:104D50005A836B837C838D839E8360E070E080E860
:104D60009FE30E94360AA22EB32EC42ED52EE62E25
:104D7000F72E082F192F222D332D49815A816B814F
:104D80007C818D819E810E94F30AA22EB32EC42EB7
:104D9000D52EE62EF72E082F192F60E070E080E860
:104DA00090E40E94360A0E94D00CA22EB32EC42E8C
:104DB000D52EE62EF72E2091382D3091392D4091A9
:104DC0003A2D50913B2D60913C2D70913D2D082F37
:104DD000192F80913E2D90913F2D0E94F30A209330
:104DE000382D3093392D40933A2D50933B2D6093BD
:104DF0003C2D70933D2D80933E2D90933F2D60E090
:104E000070E080E89FE30E94360AA22EB32EC42EE3
:104E1000D52EE62EF72E082F192F242D352D462DB1
:104E2000572D682D792D88859F810E94F30A422E87
:104E3000532E642E752E862E972E88879F83209161
:104E40002C2D30912D2D40912E2D50912F2D609194
:104E5000302D7091312D8091322D9091332DA1E024
:104E60000E94143520932C2D30932D2D40932E2D00
:104E700050932F2D6093302D7093312D8093322DD0
:104E80009093332D44E050E060E070E08091832DFA
:104E90009091842D0E94E8150AC044E050E060E043
:104EA00070E08091832D9091842D0E94C71540E081
:104EB00050E0BA018091832D9091842D0E94C715F6
:104EC00061FF5BCE10922C2D10922D2D10922E2D65
:104ED00010922F2D1092302D1092312D1092322DD4
:104EE0001092332D1092382D1092392D10923A2DA8
:104EF00010923B2D10923C2D10923D2D10923E2D84
:104F000010923F2D1092342D1092352D42E050E03A
:104F100060E070E08091832D9091842D0E94C715F0
:104F200024CE88ED84BFE0E5F0E08081846080835A
:104F300085E08093430081E080930004E0E0F4E0AA
:104F4000818180FDFDCFE0E0F4E0E287F38782819C
:104F5000836082831086118682E090E08487958743
:104F600008951F920F920FB60F9211248F939F9363
:104F70008091362D9091372D892B49F08091342DD9
:104F80009091352D01968093342D9093352D9F91DE
:104F90008F910F900FBE0F901F9018950895EF926C
:104FA000FF920F930E9491270E943D2E0E94ED14C4
:104FB0008093832D9093842D0E9470240E94132946
:104FC0000E94C2130F2EF1E8EF2EFDE2FF2EF02D0E
:104FD00002E020E030E044EF51E067E370E288EA6D
:104FE00094E20E94AE1C20E030E044EF51E06FE319
:104FF00070E289E695E20E94AE1C01E020E030E01C
:1050000044EF51E066E470E289EA95E20E94AE1C4A
:105010000E948F2A0E94C31D80E090E00F91FF90B4
:10502000EF9008951F920F920FB60F9211240BB6B6
:105030000F922F933F934F935F936F937F938F9331
:105040009F93AF93BF93EF93FF93CF93DF931F9201
:10505000CDB7DEB719829E012F5F3F4F41E050E090
:1050600060E070E08091872D9091882D0E947D16E0
:1050700060E080E09BE00E94D1141092060B0F903C
:10508000DF91CF91FF91EF91BF91AF919F918F9160
:105090007F916F915F914F913F912F910F900BBE38
:1050A0000F900FBE0F901F901895CF92DF92EF9246
:1050B000FF920F936B017C0182E0C816D104E104DA
:1050C000F10408F44EC0E0E0FBE081E0868310A22A
:1050D00011A260E080E09BE00E94D7148EEFC8161A
:1050E0008FEFD806E104F10470F4F694E794D794B6
:1050F000C794C092260BD092270B65E080E09BE01E
:105100000E94D11419C080E4C81682E4D8068FE04A
:10511000E806F10488F4689414F8F694E794D794B8
:10512000C7941694D1F7C092260BD092270B67E054
:1051300080E09BE00E94D1140F2EF4EFCF2EDD24EF
:10514000D394E12CF12CF02D00E021E041E050E07F
:1051500060E070E08091872D9091882D0E9402156B
:1051600011C0E0E0FBE081E0868310A211A260E0C4
:1051700080E09BE00E94D714C12CD12C760168946A
:10518000C1F8B3CF0F91FF90EF90DF90CF900895CB
:105190008295807FE0E0F6E09481282F2F609223B3
:1051A00094839481892B848308951F93CF93DF93F5
:1051B000C0E6D6E014E01D8361E070E080E090E09E
:1051C0000E9455281E83DF91CF911F910895CF93A0
:1051D000C82F82958F700E94C828E0E6F6E081E033
:1051E000868382E086830E94D5288C2F8F700E9450
:1051F000C8280E94D528CF910895CF93C82F8295B3
:105200008F700E94C828E0E6F6E081E0858382E0A6
:1052100086830E94D5288C2F8F700E94C8280E94F8
:10522000D528CF910895EF92FF920F93E0E0F6E03A
:1052300080E1818380E2818380E4818380E88183CF
:10524000A0E6B6E081E011968C93119782E011966A
:105250008C93119784E011968C93119784818F70B1
:10526000848314968C911497887F14968C9340E0D5
:1052700066E188E00E94141A8093852D9093862D14
:105280000E94ED148093872D9093882DE12CF12CB2
:1052900001E020E030E04EE551E06DE470E281EBAA
:1052A00099E20E94AE1C0F91FF90EF90089581301B
:1052B000910579F01CF4892B39F019C082309105E1
:1052C00069F0039781F013C080E8860F0E94E728F9
:1052D0000EC080EC860F0E94E72809C084E9860F83
:1052E0000E94E72804C084ED860F0E94E72867E249
:1052F00070E080E090E00E94552808950E94FD280B
:105300006BE270E080E090E00E94552808950F93D2
:105310001F93CF93DF93FC01808181110AC011C0DC
:105320008991882371F00E947E290C171D07C1F70F
:1053300008C08F010E947E29E80121960C5E1F4F54
:10534000EFCFDF91CF911F910F910895CF93DF930E
:10535000EA010E945729CE010E948729DF91CF914F
:105360000895CF93DF93CDB7DEB7C656D109CDBF31
:10537000DEBF5E0141E5A40EB11CFE01319620E2C4
:1053800008C02193E817F907E1F7FC01A816B90650
:1053900019F0CF014496F5CF60E47CE980E090E01D
:1053A0000E94552883E00E94C82868E873E180E0E5
:1053B00090E00E9455280E94D52860EA70E080E0C5
:1053C00090E00E9455280E94D52860EA70E080E0B5
:1053D00090E00E9455280E94D52860EA70E080E0A5
:1053E00090E00E94552882E00E94C8280E94D5289B
:1053F00088E20E94E72880E10E94E7288CE00E9472
:10540000E72886E00E94E72810E26E0151E5C50E0C
:10541000D11C0F2EF4E14F2EF02D0F2EF6E18F2E22
:10542000912CF02D5C2C0D2D68EC70E080E090E06C
:105430000E946B1F40E050E0BA018091872D90914F
:10544000882D0E94C715672B682B692B09F449C06A
:1054500042E050E060E070E08091872D9091882DCF
:105460000E94C715FE01319608C01193E817F9078D
:10547000E1F7FC018A159B05A1F1CF014496F5CF18
:105480002FEF3FEFA901652D702F8091852D909111
:10549000862D0E94301B882321F1F6012181822F65
:1054A00090E04497F4F482818823D9F0908130E031
:1054B000D901499EA00DB11D112441E050E04C0FCF
:1054C0005D1FA40FB51F3396A401421B530B9A0115
:1054D0002C0D3D1D8D93E217F30719F08191811179
:1054E000F9CF8091852D9091862D0E94D61B811138
:1054F000C7CFCE0101967C01612C712CA70160E021
:1055000070E0C3010E94A6299FEF691A790AE4E1BD
:10551000EE0EF11CF4E06F16710481F785CF42E0C6
:1055200050E060E070E08091872D9091882D0E947E
:10553000E81508952F923F924F925F926F927F925B
:105540008F929F92AF92BF92CF92DF92EF92FF9293
:105550000F931F93CF93DF93CDB7DEB76D97CDBF7A
:10556000DEBF2BA92B8FAFA9B8AD7E0139E3E30EC7
:10557000F11C28E63DE2E4E5FDE21192E217F307B3
:10558000E1F70F2EF0E4AF2EFDE2BF2EF02D24E563
:105590003DE2F5011192E217F307E1F7812C912C1E
:1055A0000F2EF4E5CF2EFDE2DF2EF02DFCC285326A
:1055B00009F0E8C22D0182E0480E511C11968C9131
:1055C000853609F4DBC138F48336C1F008F048C0F1
:1055D000853251F0E7C28337F9F0883709F468C0A3
:1055E000863609F0DFC28CC0F401E05CF24D95E232
:1055F0009083AFEF8A1A9A0AD201D5C2F401E05C17
:10560000F24DD7018C918083BFEF8B1A9B0AF70173
:1056100032967F01D201C7C2A7014E5F5F4FD7010B
:105620008D919C919C01B401F401E05CF24D00E08D
:1056300010E006C0D901FD909D01F1920F5F1F4F50
:10564000DC010D900020E9F71197A81BB90B0A1790
:105650001B0780F34D01860E971E7A01D201A3C26B
:1056600087010E5F1F4F4AE0B601F70180819181EB
:105670000E944B369401D401A05CB24D44E55DE23A
:1056800080E090E005C0FA016191AF016D93019651
:10569000F60101900020E9F73197E455FD428E179D
:1056A0009F0788F34F01820E931E7801D2017BC2BF
:1056B00087010E5F1F4F40E1B601D7018D919C918C
:1056C0000E944B369401F401E05CF24D44E55DE24A
:1056D00080E090E005C0DA016D91AD016193019623
:1056E000D6010D900020E9F71197A455BD428A1705
:1056F0009B0788F34D01820E931E7801D20153C29D
:105700001701B4E02B0E311CD7018D919D910D90A6
:10571000BC91A02D8F8B988FA98FBA8F20E030E09D
:10572000A901BC01CD010E94D02E811105C020E34A
:10573000F6012083118204C120E030E0A9016F89C5
:10574000788D898D9A8D0E94D02E88239CF4EDE26D
:10575000D601EC938F89988DA98DBA8DB0588F8B17
:10576000988FA98FBA8F0F2EF5E56F2EFDE27F2E51
:10577000F02D01C0360120E030E040E85FE36F89A2
:10578000788D898D9A8D0E942F3088230CF444C225
:1057900000E010E020E030E040E251E46F89788DD5
:1057A000898D9A8D0E94D52E6F8B788F898F9A8FD5
:1057B0000F5F1F4F20E030E040E85FE30E942F3092
:1057C000882344F72DEC3CEC4CEC5DE36F89788D3D
:1057D000898D9A8D0E94D02E88231CF01AC000E07B
:1057E00010E020E030E040E251E46F89788D898D4F
:1057F0009A8D0E9434306F8B788F898F9A8F0150E9
:1058000011092DEC3CEC4CEC5DE30E94D02E88237A
:1058100044F310161106ACF57301D301A00FB11FAC
:10582000AC8FBD8F3D016F89788D898D9A8D20E079
:1058300030E040E251E40E9434306F8B788F898FE2
:105840009A8F0E94472F20E3260FF70121937F01B3
:10585000072E000C880B990B0E947F2F9B01AC0137
:105860006F89788D898D9A8D0E94632EE614F704D6
:10587000F1F66F8B788F898F9A8F0115110589F456
:10588000DBC1C801E0E3D301EC937301F2E0EF0E5A
:10589000F11C2EE211962C9399236CF000E010E09D
:1058A0001FC0EC8CFD8C3FEFE31AF30AEEE2AC8DE7
:1058B000BD8DEC9312C000E010E0FFEFEF1AFF0A7D
:1058C000F701319720E3208301970F5F1F4F992342
:1058D00024F4043011058CF331C00430110574F543
:1058E000370184E090E0801B910BE80EF91E8701E0
:1058F0006F89788D898D9A8D20E030E040E251E407
:105900000E9434306F8B788F898F9A8F0E94472F37
:1059100020E3260FD3012D933D01072E000C880BA9
:10592000990B0E947F2F9B01AC016F89788D898D27
:105930009A8D0E94632E60167106F1F6F7011082AF
:105940009401F401E05CF24D44E55DE280E090E01A
:1059500005C0DA016D91AD0161930196D6010D90FC
:105960000020E9F71197A455BD428A179B0788F3D9
:105970004D01820E931E7101D20115C11701B4E0D1
:105980002B0E311CD7018D919D910D90BC91A02DB6
:105990008F8B988FA98FBA8F20E030E0A901BC01CE
:1059A000CD010E94D02E811105C020E3F601208395
:1059B0001182CAC020E030E0A9016F89788D898DFD
:1059C0009A8D0E94D02E88239CF4EDE2D601EC93B0
:1059D0008F89988DA98DBA8DB0588F8B988FA98F8C
:1059E000BA8F0F2EF5E56F2EFDE27F2EF02D01C050
:1059F000360120E030E040E85FE36F89788D898DE3
:105A00009A8D0E942F308823DCF000E010E020E027
:105A100030E040E251E46F89788D898D9A8D0E9443
:105A2000D52E6F8B788F898F9A8F0F5F1F4F20E055
:105A300030E040E85FE30E942F30882344F702C043
:105A400000E010E02DEC3CEC4CEC5DE36F89788DD0
:105A5000898D9A8D0E94D02E8823C4F420E030E0F6
:105A600040E251E46F89788D898D9A8D0E9434309F
:105A70006F8B788F898F9A8F015011092DEC3CEC38
:105A80004CEC5DE30E94D02E882344F320E030E00C
:105A900040E251E46F89788D898D9A8D0E9434306F
:105AA0006F8B788F898F9A8F0E94472F20E3260F64
:105AB000D3012C93072E000C880B990B0E947F2F8B
:105AC0009B01AC016F89788D898D9A8D0E94632E20
:105AD000F8013197EC8FFD8FEEE2D3011196EC9334
