:100000000C949F010C94C8010C94C8010C94C80175
:100010000C94C8010C94C8010C94C8010C94C8013C
:100020000C94C8010C94C8010C94532A0C94C80178
:100030000C94C8010C94C8010C94DE190C94C801EE
:100040000C94C8010C94C8010C94C8010C94C8010C
:100050000C94C8010C94C8010C94C8010C94C801FC
:100060000C94C8010C94C8010C94C8010C94C801EC
:100070000C94C8010C94C8010C94C8010C94C801DC
:100080000C94C8010C94C8010C94C8010C94C801CC
:100090000C94C8010C94C8010C94C8010C94C801BC
:1000A0000C94C8010C94C8010C94C8010C94C801AC
:1000B0000C94C8010C94C8010C94C8010C94C8019C
:1000C0000C94C8010C94C8010C94C8010C94C8018C
:1000D0000C94C8010C94C8010C94C8010C94C8017C
:1000E0000C94C8010C94C8010C94C8010C94C8016C
:1000F0000C94C8010C94C8010C94C8010C94C8015C
:100100000C94C8010C94C8010C94C8010C94C8014B
:100110000C94C8010C94C8010C94C8010C94C8013B
:100120000C94C8010C94C8010C94C8010C94C8012B
:100130000C94C8010C94C8010C94C8010C94C8011B
:100140000C94C8010C94C8010C94C8010C94C8010B
:100150000C94C8010C94C8010C94C8010C94C801FB
:100160000C94C8010C94C8010C94C8010C94C801EB
:100170000C94C8010C94C8010C94C8010C94C801DB
:100180000C94C8010C94C8010C94C8010C94C801CB
:100190000C94C8010C94C8010C94C8010C94C801BB
:1001A0000C94C8010C94C8010C94C8010C94C801AB
:1001B0000C94B42A0C94C8010C94C8010C94C80186
:1001C0000C94C8010C94C8010C94C8010C94C8018B
:1001D0000C94C8010C94C8010C94C8010C94C8017B
:1001E0000C94C8010C94C8010C94C8010C94C8016B
:1001F0000C94C8010C94C8010C94C801262526252E
:10020000262573255B2570252625262573255B2548
:100210000C9473250C9470250C944B280C94C917DE
:100220000C94F31D0C946A240C94F7250C94532C15
:100230000C9426250C945B250C940B286E616E00A3
:10024000696E660000407A10F35A00A0724E1809D9
:100250000010A5D4E80000E87648170000E40B542D
:10026000020000CA9A3B000000E1F50500008096FC
:100270009800000040420F000000A086010000002E
:10028000102700000000E8030000000064000000E8
:1002900000000A00000000000100000000002C76B1
:1002A000D888DC674F0823DFC1DFAE59E1B1B796CC
:1002B000E5E3E453C63AE651997696E8E6C2842629
:1002C000EB898C9B62ED407C6FFCEFBC9C9F40F205
:1002D000BAA56FA5F490055A2AF75C936B6CF96781
:1002E0006DC11BFCE0E40D47FEF520E6B500D0ED46
:1002F000902E0300943577050080841E08000020AE
:100300004E0A000000C80C333333330F986E12834B
:100310001141EF8D2114893BE65516CFFEE6DB181F
:10032000D1844B381BF77C1D901DA4BBE4242032E4
:1003300084725E228100C9F124ECA1E53D271124DD
:100340001FBECFEFCDBFDFE3DEBF00E00CBFE1E9B2
:10035000FDE28AEA90E48193E030F907E0F310E2ED
:10036000A0E0B0E2EEECF3E700E00BBF02C00790C4
:100370000D92A036B107D9F72DE2A0E6B0E201C098
:100380001D92A139B207E1F70E94712A0C94E53958
:100390000C9400002F923F924F925F926F927F9247
:1003A0008F929F92AF92BF92CF92DF92EF92FF9285
:1003B0000F931F93CF93DF93DC011B012A01F901F7
:1003C000102F8C91808311968C91119781831296B6
:1003D0008C911297828313968C9113978383149632
:1003E0008C911497848315968C9115978583169616
:1003F0008C9116978F70868317822C9111963C9161
:10040000119712964C91129713965C91139714962C
:100410006C91149715967C91159716968C9116975A
:1004200017969C91179704E30E949137822E932E82
:10043000340187E07822E2016882798261147104D4
:1004400049F410821182128213821482158216825C
:10045000178208C0DFEF6D16D7E07D0619F08681A0
:1004600080618683208131814281538164817581DD
:1004700086819781012F0E947637208331834283C2
:10048000538364837583868397832C9111963C9163
:10049000119712964C91129713965C91139714969C
:1004A0006C91149715967C91159716968C911697CA
:1004B00017969C910FE30E949137F1012083DF9101
:1004C000CF911F910F91FF90EF90DF90CF90BF9051
:1004D000AF909F908F907F906F905F904F903F90E4
:1004E0002F9008952F923F924F925F926F927F923A
:1004F0008F929F92AF92BF92CF92DF92EF92FF9234
:100500000F931F93CF93DF9300D01F92CDB7DEB729
:100510005C0169836A01D901EC911196FC911197F4
:100520001296BC91BC83D9011396BC91BA83D901B0
:100530001496BC91BB83D9011596FC90159716961D
:100540001C9116971796EC902E2F3F2F4C815A81B5
:100550006B817F2D812F9E2DA0E00E94D43709F45E
:100560001CC120E030E040E050E060E0707E0E947E
:10057000D43701F52E2F3F2F4C815A816B817F2D6F
:10058000812F9E2D08E00E947637E22FF32F4C83B7
:100590005A836B83F72E182FE92EB8E0CB1AD108B7
:1005A000707E20E030E040E050E060E0A0E00E949B
:1005B000D43701F320E030E040E050E060E070E04C
:1005C000812F807F9E2DA0E00E94D43709F52E2F29
:1005D0003F2F4C815A816B817F2D812F9E2D01E011
:1005E0000E947637E22FF32F4C835A836B83F72ECA
:1005F000182FE92E21E0C21AD10820E030E040E0B7
:1006000050E060E070E0807FA0E00E94D437F9F213
:1006100020E030E040E050E060E070E080E09E2DBF
:10062000A0E00E94D43749F41AC1E82DF22D3C8293
:100630004A825B82F62C172DE92C2E2F3F2F4C81FE
:100640005A816B817F2D812F9E2D04E00E9491376E
:10065000822E232E342E452E562E672E782E992E3E
:1006600084E0C80ED11C20E030E040E050E060E0C3
:1006700070E080E0992DA0E00E94D437B1F6872D7C
:10068000807E0E94D43731F52E2F3F2F4C815A8126
:100690006B817F2D812F9E2D03E00E949137217069
:1006A000E82DF22D3C824A825B82F62C172DE92C34
:1006B00036C08E2E2F2E3C804A805B806F2C712E90
:1006C0009E2C08C08E2E2F2E3C804A805B806F2C83
:1006D000712E9E2C282D322D432D542D652D762DD7
:1006E000872D992D01E00E949137E22FF32F4C8343
:1006F0005A836B83F72E182FE92E9FEFC91AD90A58
:1007000020E030E040E050E060E070E0812F807E4B
:100710009E2DA0E00E94D437A9F6282D2170222317
:10072000C1F12E2F3F2F4C815A816B817F2D812F5C
:100730009E2DA1E00E94B637422E532E642E752EB8
:10074000862E972E082FE22FF32F4C835A836B832C
:10075000F72E182F20E030E040E050E060E070E03D
:10076000807EA0E00E94D437A1F0242D352D462DA7
:10077000572D682D792D802F01E00E949137E22FAF
:10078000F32F4C835A836B83F72E182FAFEFCA1ABF
:10079000DA0A1C141D044CF01BC0BFEFCB16B7E0E7
:1007A000DB0604F5C12CD12C23C02FEFC21627E0A5
:1007B000D206F4F0E0E0F0E01C821A821B82F12CF9
:1007C00010E00F2ECC24CA94F7E0DF2EF02D10C0DD
:1007D000E0E0F0E01C821A821B82F12C10E0C12CB8
:1007E000D12C06C00F2ECC24CA94F7E0DF2EF02DBA
:1007F000298130E040E050E060E070E080E090E08F
:100800000FE30E947637A92F1F70E22BEF2EE32A09
:10081000BC81B42B9A80952A8B80862AF72A182BC4
:100820009D2D990F990B2C2D3D2D492F592F692F57
:10083000792F892F04E30E9476372E2BF501208330
:100840003E2931834B2B4283592953836829648382
:100850007F297583812B86839A2B97830FC020E095
:1008600030E040E050E060E070E0812F807E9E2D1F
:10087000A0E00E94D43709F01CCF8BCF2496CDBFC7
:10088000DEBFDF91CF911F910F91FF90EF90DF902E
:10089000CF90BF90AF909F908F907F906F905F9020
:1008A0004F903F902F900895AF92BF92CF92DF92DA
:1008B000EF92FF920F931F93CF93DF937C01DC01A4
:1008C000DC901196AC9011971296BC91FC01C381FB
:1008D000D4811581C680078120E030E040E050E0FF
:1008E00060E070E080E0902FA0E00E94D43709F033
:1008F00078C0B12C2D2D3A2D4B2F5C2F6D2F712FE1
:100900008C2D902F08E00E947637D22EA32EB42F84
:10091000C52FD62F172FC82E092FF8E0BF0E20E0C5
:1009200030E040E050E060E070E080E0A0E00E9455
:10093000D43791F0F701D082A182B283C383D483EC
:100940001583C682978390780E94D43709F058C0E7
:10095000FFE3FB157CF454C080E4B812CBCFF70161
:10096000D082A182B283C383D4831583C682978346
:1009700047C0B12C2D2D3A2D4B2F5C2F6D2F712F91
:100980008C2D902F01E00E947637D22EA32EB42F0B
:10099000C52FD62F172FC82E092FB39420E030E093
:1009A00040E050E060E070E080E09078A0E00E94DD
:1009B000D43751F0F701D082A182B283C383D483AC
:1009C0001583C68207831CC0FFE3FB159CF6F70165
:1009D000D082A182B283C383D4831583C682078366
:1009E0000FC020E030E040E050E060E070E080E0E8
:1009F000902F9078A0E00E94D43709F4BACFB12CA0
:100A00008B2DDF91CF911F910F91FF90EF90DF9091
:100A1000CF90BF90AF9008952F923F924F925F92E8
:100A20006F927F928F929F92AF92BF92CF92DF92FE
:100A3000EF92FF920F931F93CF93DF93CDB7DEB763
:100A4000A197CDBFDEBFDC01FB01342E8C918E83DC
:100A500011968C9111978F8312968C91129788879B
:100A600013968C911397898714968C9114978C8F79
:100A700015968C9115978D8F16968C9116978E8F53
:100A800017968C918F8F2E813F81488559856C8D6B
:100A90007D8D8E8D9F8D00E20E94913729A338A312
:100AA0004A875B876C877D878E879F8740805180D0
:100AB000628023808481888F8581898F86818A8F57
:100AC00087818B8F242D352D462D522D688D798D64
:100AD0008A8D9B8D0E949137288B398B4A8B5B8B3B
:100AE0006C8B7D8B8E8B9F8BA9A0B8A0CA84DB8476
:100AF000EC84FD840E851F85242D352D462D522D29
:100B000060E070E080E090E00E940D3700E20E941B
:100B1000913729833A834B835C836D83772E882EAC
:100B2000992EA888B988CA88DB88EC88FD880E8948
:100B30001F892E813F814885598560E070E080E003
:100B400090E00E940D3700E20E949137A22EB32E52
:100B5000C42ED52EE62EF72E082F192F29813A8183
:100B60004B815C816D81772D882D992D0E94AD3749
:100B700029833A834B835C836D83772E882E992E4D
:100B8000A888B988CA88DB88EC88FD880E891F8907
:100B900029A138A14A855B856C857D858E859F85D9
:100BA0000E940D37A22EB32EC42ED52EE62EF72E80
:100BB000082F192F29813A814B815C816D81772D16
:100BC000882D992D0E94AD37922E3A834983B52FF7
:100BD000F62FE72F782E892E30FE26C02E813F81FA
:100BE000488559856C8D7D8D8E8D9F8DA0E00E94EE
:100BF000D437D4F4292D3A8149815B2F6F2F7E2F72
:100C0000872D982DA42CB52CC62CD22CE88CF98CD1
:100C10000A8D1B8D0E94C237922E3A834983B52FCD
:100C2000F62FE72F782E892E31FE26C0242D352D64
:100C3000462D522D688D798D8A8D9B8DA0E00E9466
:100C4000D437D4F4292D3A8149815B2F6F2F7E2F21
:100C5000872D982DAE80BF80C884D984EC8CFD8C04
:100C60000E8D1F8D0E94C237922E3A834983B52F75
:100C7000F62FE72F782E892E292D3A8149815B2F77
:100C80006F2F7E2F872D982DA196CDBFDEBFDF91D0
:100C9000CF911F910F91FF90EF90DF90CF90BF9079
:100CA000AF909F908F907F906F905F904F903F900C
:100CB0002F9008952F923F924F925F926F927F9262
:100CC0008F929F92AF92BF92CF92DF92EF92FF925C
:100CD0000F931F93CF93DF93CDB7DEB7E297CDBFCE
:100CE000DEBFFC018080898E91809A8EA280AB8EBF
:100CF000B380BC8EC480CD8ED580DE8EE680EF8E34
:100D0000F780F8A2282D392D4A2D5B2D6C2D7D2DD5
:100D10008E2D9F2D00E20E949137822F932FA42FBA
:100D2000B52F8DA79EA7AFA7B8AB098D1A8D2B8DB8
:100D30003C8D33237CF49C01AD012F5F3F4F4F4F1F
:100D40005F4F2DA73EA74FA758AB232B242B252B56
:100D500009F4C1C18DA49EA4AFA4B8A895014427ED
:100D60005527C9019F77892B29F524013501662470
:100D70007724411451046104710459F4298D3A8D8A
:100D80004B8D5C8D6D8D7E8D8F8D98A10E94663709
:100D9000AEC1440C551C661C771C440C551C661CCB
:100DA000771C7094609450944094411C511C611CB9
:100DB000711C8DC02F3F0FEF300769F44DA45EA466
:100DC0006FA478A87094609450944094411C511C76
:100DD000611C711C7CC0B90176956795CB01A0E0C0
:100DE000B0E0BC01CD0160957095809590950E9412
:100DF000E3362F5F3F4F6901E12CF12CB701A601CB
:100E0000032E31E1440F551F661F771F3A95D1F726
:100E1000302D8DA59EA5AFA5B8A980959095A095DC
:100E2000B0954A015B01880E991EAA1EBB1E89A6B9
:100E30009AA6ABA6BCA6D701C60112961C012D012D
:100E4000A90160E070E080E090E0DC0129A35AA3F2
:100E50006BA37CA38DA39EA3AFA3B8A78DA59EA5CE
:100E6000AFA5B8A98C019D01A82EB12EC22ED32EFC
:100E7000E12CF12C00E010E029A13AA140E050E083
:100E800060E070E080E090E00E940D37A22EB32E6B
:100E9000C42ED52EE62EF72E082F192F222D332DF6
:100EA000442D552D60E070E080E090E00E940D3709
:100EB00000E20E949137822E932EA42EB52E49A4D3
:100EC0005AA46BA47CA4481859086A087B088DA40E
:100ED0009EA4AFA4B8A895018401A82CB12EC22E5F
:100EE000D32EE12CF12C00E010E0A301920160E090
:100EF00070E0CB0149A23AA34BA35CA36DA37EA3F0
:100F00008FA398A761E070E080E090E00E940D3729
:100F10008DA49EA4AFA4B8A8B694A79497948794E0
:100F20006501540145015601ABA2BCA2A82CB92C05
:100F3000CBA0DCA0E12CF12C0E94AD3729873A87A9
:100F40004B875C876D877E878F87988BC22ED32EC9
:100F5000E42EF52E00E20E9491372223C9F04DA520
:100F60005EA56FA578A9DB01CA018C0D9D1DAE1D84
:100F7000BF1D8C159D05AE05BF0508F42F5F0FEF53
:100F8000401A500A600A700A6C017D012111EBCFF2
:100F900053014201242D392D4A2D5B2D60E070E074
:100FA00080E090E00FE10E947637222E332E442E0F
:100FB000552E662EF72E182F722E832E49A359A771
:100FC0006DA779AB8AAB9068992E29823A824B82C1
:100FD0005C826D82FE821F839887298D3A8D4B8DAE
:100FE0005C8D6D8D7E8D8F8D98A101E00E9476378E
:100FF000298B3A8B4B8B5C8B6D8B7E8B8F8B988F79
:1010000040E0BE016F5E7F4FCE0101960E940C054D
:10101000A22EB32EC42ED52EE62EE72F082FF92FA1
:10102000222D332D442D552D662D7F2D812F992D69
:10103000FE2E1F2F0E94AD370E946637A22EB32EC0
:10104000C42ED52EE62EF72E082F192F29873A8782
:101050004B875C876D877E878F87988B40E0BE01CA
:10106000675F7F4FCE0101960E940C05222E332E22
:10107000442E552E662EB72FF82FE92F2A2D3B2D03
:101080004C2D5D2D6E2D7F2D802F912FA0E00E9485
:10109000D43744F4712C812C19A219A61DA619AAC3
:1010A0001AAA912C222D332D442D552D662D7B2FE0
:1010B0008F2F9E2FA1E00E94B637A72CB82CC9A075
:1010C000D9A4EDA4F9A80AA9192D0E94AD3701E011
:1010D0000E9491370CC019861A861B861C861D86B5
:1010E0001E861F86188A412C512C320151CFE29660
:1010F000CDBFDEBFDF91CF911F910F91FF90EF9099
:10110000DF90CF90BF90AF909F908F907F906F9027
:101110005F904F903F902F9008956F927F928F92A3
:101120009F92AF92BF92CF92DF92EF92FF920F9376
:101130001F93CF93DF93CDB7DEB7A597CDBFDEBFAB
:101140003C010E8B1F8B288F398F4A8F5B8F6C8FE2
:101150007D8F8E8E9F8EA8A2B9A2CAA2DBA2ECA21E
:10116000FDA20AE09E012A5F3F4FAE014E5F5F4F36
:10117000BE016F5F7F4FCE0146960E94CA019E015D
:10118000225F3F4FAE014C5F5F4FBE016F5F7F4FED
:10119000CE014E960E94CA01E8ADF9AD1082EA81F7
:1011A000FB81EF3F27E0F207E9F52E813F8148857B
:1011B00059856A857B858C859D85A0E00E94D43702
:1011C00029F58C819D818F3F974071F42E853F8555
:1011D000488959896A897B898C899D890E94D4377D
:1011E000A9F4FFA9FF2391F08E89F30180838F89F1
:1011F0008183888D8283898D83838A8D84838B8D7F
:1012000085838C8D86838D8D87831EC18FEFF3013F
:1012100080838183828383838483858386838FE72E
:10122000878312C1AC81BD81AF3F27E0B20791F443
:101230008E8DF30180838F8D818388A1828389A124
:1012400083838AA184838BA185838CA186838DA1CE
:101250008783FAC0309731F0CF01805C9F4FA81789
:10126000B907B4F08E8DF30180838F8D818388A1BF
:10127000828389A183838AA184838BA185838CA1A6
:1012800086838DA1878381E0E8ADF9AD8083DCC0E2
:10129000109731F0CD01805C9F4FE817F90794F06B
:1012A0008E89F30180838F898183888D8283898DE4
:1012B00083838A8D84838B8D85838C8D86838D8DAE
:1012C0008783C2C02FA9222309F445C0EA17FB0770
:1012D00004F18F010A1B1B0B2E853F854889598914
:1012E0006A897B898C899D890E949137AE80BF80F5
:1012F000C884D984EA84FB840C851D850E94AD379F
:101300002E833F83488759876A877B878C879D8791
:1013100090C08D010E1B1F0B2E813F814885598582
:101320006A857B858C859D850E949137AE84BF84BC
:10133000C888D988EA88FB880C891D890E94AD3746
:101340002E833F83488759876A877B878C879D8751
:10135000AA83BB836EC0AE17BF07B4F0EA17FB07C2
:10136000D9F52E813F81488559856A857B85AE8474
:10137000BF84C888D988EA88FB880C891D898C8538
:101380009D850E94CB3740F18F010A1B1B0B2E85D8
:101390003F85488959896A897B898C899D890E9402
:1013A0009137A22EB32EC42ED52EE62EF72E082F5F
:1013B000192F2E813F81488559856A857B858C85CB
:1013C0009D850E94C2372E833F83488759876A874D
:1013D0007B878C879D872DC08D010E1B1F0B2E8157
:1013E0003F81488559856A857B858C859D850E94CE
:1013F0009137A22EB32EC42ED52EE62EF72E082F0F
:10140000192F2E853F85488959896A897B898C895E
:101410009D890E94C2372E833F83488759876A87F8
:101420007B878C879D8781E0E8ADF9AD8083AA83B7
:10143000BB834A815B814A5051099E012A5F3F4F1D
:1014400060E0C3010E947202A596CDBFDEBFDF91AE
:10145000CF911F910F91FF90EF90DF90CF90BF90B1
:10146000AF909F908F907F906F9008954F925F9272
:101470006F927F928F929F92AF92BF92CF92DF92A4
:10148000EF92FF921F93CF93DF93CDB7DEB76097B4
:10149000CDBFDEBF2B013C01E89467F877245301F0
:1014A0004201BB0C8808982C540149825A826B82F5
:1014B0007C828D828E828F8288866B017C010B2ECE
:1014C000B7E1F594E794D794C794BA95D1F7B02DC6
:1014D000F601FF276B017C01CC24F7FCC394DD24CB
:1014E000EE24FF241C2D309709F066C0242D352DE5
:1014F000462D572D682D782D882D982DA0E00E941F
:10150000D43711F517C0242D352D462D572D682DB4
:10151000782D882D982DA0E00E94D43749F511111F
:1015200030C020E030E040E050E060E070E080EF6C
:101530009FE746C019821A8280E88B831C821D8235
:101540001E821F82188602C0EEE9F3E09E012F5F23
:101550003F4FAF016C2DCE0109960E947202298582
:101560003A854B855C856D857E858F85988928C0F9
:101570002FEF3FEF4FEF5FEF6FEF7FEF8FEF9FE7C3
:101580001FC020E030E040E050E060E070E080EF1D
:101590009FEF16C0D301C201A06889839A83AB83F1
:1015A000BC83BB0F880B982FDC018D838E838F83C8
:1015B0008887E356FC4FCACFEF3FF10559F7A3CF19
:1015C0006096CDBFDEBFDF91CF911F91FF90EF906E
:1015D000DF90CF90BF90AF909F908F907F906F9053
:1015E0005F904F9008952F923F924F925F926F922B
:1015F0007F928F929F92AF92BF92CF92DF92EF92A3
:10160000FF920F931F93CF93DF93CDB7DEB72A9747
:10161000CDBFDEBF422E532E642E5A87B62FA72F82
:10162000F82FE92F302E0FE30E9491372170722E90
:101630002A2D3B2D4C2D5D2D6E2D7F2D832D912F31
:101640000E9491372170222E271509F1CE010196B3
:101650009F938F931F928A2C9B2CAC2CBD2CCE2C4D
:10166000DF2CE32CF12E042D152D262D3A854B2F42
:101670005A2F6F2F7E2F01960E948D082980272DCB
:1016800022252170222E0F900F900F901DC0CE01A9
:1016900001969F938F9381E08F938A2C9B2CAC2C87
:1016A000BD2CCE2CDF2CE32CF12E042D152D262D58
:1016B0003A854B2F5A2F6F2F7E2FCE0102960E9414
:1016C0008D080F900F900F90222021F0898580685F
:1016D000898703C089858F7789872A813B814C81DF
:1016E0005D816E817F81888599852A96CDBFDEBF19
:1016F000DF91CF911F910F91FF90EF90DF90CF90EE
:10170000BF90AF909F908F907F906F905F904F9021
:101710003F902F9008957F928F929F92AF92BF92A9
:10172000CF92DF92EF92FF920F931F93CF93DF93AD
:10173000722E832E942ED52FC62FB72FA82FF92FB8
:10174000E02F2A2D3B2D4C2D5D2D6E2D7F2D802FD2
:10175000912F0FE30E94913720FD03C00E2F1068D8
:1017600002C00E2F1F77272D382D492D5D2F6C2F8E
:101770007B2F8A2F9F2F0E94F30ADF91CF911F9119
:101780000F91FF90EF90DF90CF90BF90AF909F9020
:101790008F907F900895AF92BF92CF92DF92EF9299
:1017A000FF920F931F93CF93DF93CDB7DEB7A6972A
:1017B000CDBFDEBF2F8B388F498F5A8F6B8F7C8FB9
:1017C0008D8F9E8FAF8EB8A2C9A2DAA2EBA2FCA227
:1017D0000DA31EA30BE09E01295F3F4FAE014D5F9D
:1017E0005F4FBE016F5F7F4FCE0147960E94CA01D7
:1017F0009E01215F3F4FAE014B5F5F4FBE016E5FA9
:101800007F4FCE014F960E94CA01EB81FC81EF3FD2
:1018100027E0F20721F52F81388549855A856B85A8
:101820007C858D859E85A0E00E94D43709F06CC030
:101830008D819E818F3F27E0920769F42F8538893B
:1018400049895A896B897C898D899E890E94D43700
:1018500009F063C043C0892B09F468C03FC08D8183
:101860009E818F3F27E09207E9F42F8538894989C7
:101870005A896B897C898D899E89A0E00E94D43722
:1018800009F05DC0EF2B09F463C08FEF97E08B8305
:101890009C831F82188619861A861B861C861D86C5
:1018A0001E861CC0309709F45CC0009709F462C022
:1018B000E80FF91FE950F440EB83FC8340E0BE01E0
:1018C000615F7F4FCE0107960E940C052F833887FA
:1018D00049875A876B877C878D879E8769818A8134
:1018E000682769834B815C819E01295F3F4FCE0150
:1018F00047960E9472022F89388D498D5A8D6B8DC3
:101900007C8D8D8D9E8D3EC02FEF3FEF4FEF5FEFB3
:101910006FEF7FEF8FEF9FE735C02FEF3FEF4FEF78
:101920005FEF6FEF7FEF8FEF9FE72CC02FEF3FEF61
:101930004FEF5FEF6FEF7FEF8FEF9FE723C02FEF4A
:101940003FEF4FEF5FEF6FEF7FEF8FEF9FE71AC033
:101950002FEF3FEF4FEF5FEF6FEF7FEF8FEF9FE7DF
:1019600011C020E030E040E050E060E070E080E056
:1019700090E008C020E030E040E050E060E070E03F
:1019800080E090E0A696CDBFDEBFDF91CF911F91A2
:101990000F91FF90EF90DF90CF90BF90AF900895A0
:1019A000AF92BF92CF92DF92EF92FF920F931F936D
:1019B000CF93DF93CDB7DEB7E697CDBFDEBF2FA3C2
:1019C00038A749A75AA76BA77CA78DA79EA7AFA644
:1019D000B8AAC9AADAAAEBAAFCAA0DAB1EAB0BE007
:1019E0009E01295F3F4FAE014D5F5F4FBE016F5FAC
:1019F0007F4FCE0187960E94CA019E01215F3F4F13
:101A0000AE014B5F5F4FBE016E5F7F4FCE018F9681
:101A10000E94CA010D811E810115110509F482C0C1
:101A2000EB80FC808FEFE81687E0F806F1F42F8159
:101A3000388549855A856B857C858D859E85A0E096
:101A40000E94D43709F07AC00F3F174009F482C0D2
:101A500099818A8198138AC0D12CE12CF12C00E065
:101A600010E0B0E0F0EFEFE789C00F3F87E0180724
:101A700009F5DF84E888F9880A891B89BC89FD8912
:101A8000EE892D2D3E2D4F2D502F612F7B2F8F2F27
:101A90009E2FA0E00E94D43709F470C0DD24DA94B0
:101AA000EE24EA94FF24FA940FEF1FEFBFEFFFEF4D
:101AB000EFE764C0CE010F960E945A062F8F38A31D
:101AC00049A35AA36BA37CA38DA39EA340E0BE01B0
:101AD000615E7F4FCE0107960E940C052F8B388FD9
:101AE000498F5A8F6B8F7C8F8D8F9E8FA701401BE4
:101AF000510B41505C4F4B835C834A5051096981C3
:101B00008A8168279E01295E3F4FCE0187960E94F9
:101B10007202DFA0E8A4F9A40AA51BA5BCA5FDA537
:101B2000EEA52CC0DD24DA94EE24EA94FF24FA9486
:101B30000FEF1FEFBFEFFFEFEFE720C0DD24DA94D8
:101B4000EE24EA94FF24FA940FEF1FEFBFEFFFEFAC
:101B5000EFE714C0DD24DA94EE24EA94FF24FA942B
:101B60000FEF1FEFBFEFFFEFEFE708C0D12CE12C25
:101B7000F12C00E010E0B0E0F0EFEFEF2D2D3E2D66
:101B80004F2D502F612F7B2F8F2F9E2FE696CDBF8D
:101B9000DEBFDF91CF911F910F91FF90EF90DF900B
:101BA000CF90BF90AF9008952F923F924F925F9247
:101BB0006F927F928F929F92AF92BF92CF92DF925D
:101BC000EF92FF920F931F93CF93DF93CDB7DEB7C2
:101BD000AB97CDBFDEBF2F8B388F498F5A8F6B8F5E
:101BE0007C8F8D8F9E8FAF8EB8A2C9A2DAA2EBA296
:101BF000FCA20DA31EA300E09E01295F3F4FAE0192
:101C00004D5F5F4FBE016F5F7F4FCE0147960E94D1
:101C1000CA019E01215F3F4FAE014B5F5F4FBE0186
:101C20006E5F7F4FCE014F960E94CA018B809C80D1
:101C30002FEF821627E0920671F42F8138854985AF
:101C40005A856B857C858D859E85A0E00E94D43762
:101C500009F4DCC09AC08D819E818F3F27E09207F6
:101C600009F0B8C02F85388949895A896B897C89E0
:101C70008D899E89A0E00E94D43709F4A4C087C052
:101C800089819A81891709F484C0811184C081E017
:101C9000C4C08981811181C081E0BFC08A81811166
:101CA0007EC08FEFBAC081149104A1F4892B69F42E
:101CB0002F85388949895A896B897C898D899E89C4
:101CC000A0E00E94D43709F46CC08A8181116BC0F6
:101CD0008FEFA3C0009739F0E9812A81E21303C096
:101CE000881599052CF4898181115FC081E095C028
:101CF0008816990624F4E1115AC08FEF8EC02F8008
:101D0000388449845A846B847C848D849E84BF8506
:101D1000A889F9898A898FA32B8928A78C8989A703
:101D20002D892AA78E898BA7222D332D442D552D41
:101D3000662D772D882D992DAB2EBA2ECF2EDFA0B4
:101D4000E8A4F9A40AA51BA50E94CB3791F10E9433
:101D5000CB3721F018F0E11144C02DC0222D332DD6
:101D6000442D552D662D772D882D992DAB2EBA2E0D
:101D7000CF2EDFA0E8A4F9A40AA51BA50E94CB37AB
:101D8000E0F4EE23E1F081E048C080E046C080E06E
:101D900044C080E042C08FEF40C08FEF3EC081E082
:101DA0003CC080E03AC081E038C08FEF36C081E0AF
:101DB00034C080E032C081E030C08FEF2EC08FEFA2
:101DC0002CC08FEF2AC02FEF821627E0920609F071
:101DD00065CF56CF2FEF821627E0920609F063CF2A
:101DE00058CF222D332D442D552D662D772D882D3E
:101DF000992DAB2EBA2ECF2EDFA0E8A4F9A40AA508
:101E00001BA50E94CB37E8F681E007C08D819E813B
:101E10008F3F974009F03DCF25CFAB96CDBFDEBFBA
:101E2000DF91CF911F910F91FF90EF90DF90CF90B6
:101E3000BF90AF909F908F907F906F905F904F90EA
:101E40003F902F9008952F923F924F925F926F9202
:101E50007F928F929F92AF92BF92CF92DF92EF923A
:101E6000FF920F931F93CF93DF93CDB7DEB7ED971C
:101E7000CDBFDEBF2CA73DA74EA75FA768AB79AB50
:101E80008AAB9BABE9AECEAADFAA502E21E1201788
:101E900020F40F2EF1E15F2EF02D511002C05524D9
:101EA00053940BE09E012C5F3F4FAE014E5F5F4F9E
:101EB000BE016F5F7F4FCE018C960E94CA018A815E
:101EC0009B81009731F4E0E6F0E280E380831182A9
:101ED00014C38F3F37E0930751F52C813D814E812C
:101EE0005F81688579858A859B85A0E00E94D437CB
:101EF00059F0E0E6F0E28EE491E6808391838EE48F
:101F000090E082839383F9C28981811102C08BE2C0
:101F100001C08DE280936020E1E6F0E289E49EE476
:101F20008083918386E490E082839383E6C2AC0150
:101F30004F5F53404A835B832981222331F02DE296
:101F40002093602081E088AF01C018AE5523D4F003
:101F50001A01220C331CCA01880F991F880F991F80
:101F6000880F991F280E391E9FE1290E311C3694C7
:101F7000279436942794369427943694279436944D
:101F8000279413C027EF24031001259F300C112440
:101F9000369427943694279436942794369427942D
:101FA00036942794319421943108EE27FF27E219C3
:101FB000F3090E2FDF2E1F2F110F110BC12E912EA3
:101FC000812E712E612E1C8A1D8A1E8A1F8A188EF0
:101FD000198E1A8E80EA8B8F1C861D861E861F86A0
:101FE000188A198A1A8A80E88B8B2E2F3F2F412F4F
:101FF000512F612F712F812F912FA0E00E94D43794
:102000000CF064C20E946637022FD32E142FC52E07
:10201000962E872E782E692E0E94D43709F46BC035
:102020004424439401C0412CA12CB12C0F2EF3E089
:10203000EF2EF12CF02D202F217030E040E050E009
:1020400060E070E080E090E0A0E00E94D437E1F032
:10205000BE016C5E7F4FCE010C960E940C052C8752
:102060003D874E875F87688B798B8A8B9B8BCE01F0
:102070000C960E94540497012F5F3F4F281B310993
:1020800087FD3395A20EB31E40E0BE016C5E7F4F0C
:10209000CB010E940C052C8B3D8B4E8B5F8B688F88
:1020A000798F8A8F9B8FEE0CFF1CAFEFEA1AFA0A2A
:1020B000CE0144960E945404E81AF10887FDF39477
:1020C000202F3D2D412F5C2D692D782D872D962DAC
:1020D00001E00E948F37022FD32E142FC52E962E8B
:1020E000872E782E692EA0E00E94D43709F0A3CF66
:1020F0004420D1F002C0A12CB12CCE010C960E943C
:102100005A062C873D874E875F87688B798B8A8B31
:102110009B8BB194A194B108CE010C960E945404FB
:10212000A81AB10887FDB3948A819B81A80EB91EB5
:10213000AA82BB8240E0BE01645F7F4FCE0104965D
:102140000E940C052C833D834E835F8368877987CB
:102150008A879B87CE0104960E94540421E030E0D8
:10216000F901E81BF10987FDF395CF012A813B8135
:10217000820F931F8A839B83992394F50F2EF0EA95
:10218000FF2EF02D04E010E01CA21DA21EA21FA233
:1021900018A619A61AA6FBA640E0BE016C5D7F4FEB
:1021A000CE0104960E940C052C833D834E835F83F1
:1021B000688779878A879B87CE0104960E9454049A
:1021C0009801281B310987FD33958A819B81820FF5
:1021D000931F8A839B83F1E02F1A31089923A4F27D
:1021E0001CEC2AC01C8F1D8F1E8F1F8F18A319A3D4
:1021F0001AA31BA340E0BE01645E7F4FCE0104968C
:102200000E940C052C833D834E835F83688779870A
:102210008A879B87CE0104960E945404082E000CE6
:10222000990B03962A813B81A901481B590B4A83CC
:102230005B835FEF251A350AEA81FB81E430F10503
:102240008CF6E330F105A9F49B8520E030E040E016
:1022500050E060E070E080E0907F2F3F3F4F4F4FB5
:102260005F4F6F4F7F4F8F4F9F4911F008F0BACFEC
:102270003DC1B8ADBF5F8FEF850D552009F487C014
:102280001B2F0F2EFFE34F2E512CF02D6894AA2404
:10229000A2F8B12C8B0F99249394980E2AAE3BAEE2
:1022A000812F90E0FC01E05AFF4D20E32083EA817A
:1022B000FB81ECAFFDAFFF23DCF13C806D807E80C5
:1022C0008F80E884F984BA85AB85FC01E05AFF4D24
:1022D000ECABFDAB6201ECADFDADCE1ADF0A232DF8
:1022E000362D472D582D6E2D7F2D8B2F9A2F0C2D8F
:1022F0000E949137205DECA9FDA92083ECADFDADD6
:102300003196232D362D472D582D6E2D7F2D8B2F59
:102310009A2F0E2F0E9476372C833D834E835F8346
:10232000688779878A879B872FEF3FEF2A833B83D4
:102330001F5F1C8A1D8A1E8A1F8A188E198E1A8E8C
:1023400030EA3B8F40E0BE016C5E7F4FCE010496C9
:102350000E940C052C833D834E835F8368877987B9
:102360008A879B87CE0104960E945404A501481BCE
:10237000510987FD5395CA012A813B81820F931F22
:102380008A839B83B92D91128BCF2AAC3BACEA8117
:10239000FB81FF230CF45AC00FE310E00E1B1F0B50
:1023A0002C813D814E815F81688579858A859B85F9
:1023B0000E949137A4E00E94D43709F008F446C087
:1023C0003FEF3B0F58AD5317F0F0232F3B2F26C0A4
:1023D000822F90E0FC01E05AFF4D4081493369F4BF
:1023E000322F02C050E368ADFC01E05AFF4D50832C
:1023F0002FEF230F621760F311C0FC01E05AFF4D6D
:102400004F5F40830BC0832F90E0FC01E05AFF4DEB
:102410004081493339F3232F3B2FEFCF88AD82130F
:1024200015C09FEF291A390AE32FF0E0E05AFF4D5B
:1024300081E380833F5F3B1748F480E3E32FF0E0C4
:10244000E05AFF4D80833F5F3B13F8CFA8AD8A2F42
:1024500090E0FC013196AF01405A5F4DFA012081B6
:10246000805A9F4DFC0120838EE2FA018083F9ADF2
:10247000FF2331F0EB2FF0E0E05AFF4D1082BF5FF9
:1024800031E03B0F8B2F90E0805A9F4D25E4FC01FB
:1024900020831214130444F4BE5FE32FF0E0E05AEB
:1024A000FF4D8BE2808301C0B32F6B2F70E0605A29
:1024B0007F4D4AE0C1010E94ED382EA93FA92115A8
:1024C0003105D9F0F9012082318217C02E2F3F2F1C
:1024D000412F512F612F712F812F912FA0E00E944A
:1024E000D43709F0A0CDA12CB12C1ECEB8ADBF5F62
:1024F0008FEF850D5110C4CE4FCF80E690E2ED9660
:10250000CDBFDEBFDF91CF911F910F91FF90EF9074
:10251000DF90CF90BF90AF909F908F907F906F9003
:102520005F904F903F902F9008952F923F924F923F
:102530005F926F927F928F929F92AF92BF92CF9253
:10254000DF92EF92FF920F931F93CF93DF93CDB75C
:10255000DEB76597CDBFDEBFA22E732E642E552E3B
:10256000462E372EF82EB92E802EEA8AA0E00E9441
:10257000D43724F499249A94900E01C0902E11E03F
:10258000190D191554F504C091160CF063C003C061
:10259000812F192D982E9E012F5F3F4F6901EE2448
:1025A000E394092D2A2D372D462D552D642D732D9D
:1025B0008F2D9B2D0E94230FFC0120E030E040E096
:1025C00050E060E070E08F2D807F9B2D9F77A0E032
:1025D0000E94D43709F478C188C02A2D372D462DA2
:1025E000552D642D732D8F2D9B2D04E30E94913763
:1025F0002B8337703B87EFEFE80D2A2D372D462DC3
:10260000552D642D732D8F2D9B2D0FE30E94913737
:1026100020FF02C08E2F01C0882D8D8B482F082EE1
:10262000000C550B488B598B0F2EF3E02F2EF02DFD
:102630005F2D507F5C879B2D9F779D87AA892A2FCE
:1026400030E0A901409550954E875F878B8B815074
:102650008C8B01C0912ECE0101966C01EE24E39487
:10266000092D2A2D372D462D552D642D732D8F2D97
:102670009B2D0E94230FFC012B813B8540E050E005
:1026800060E070E080E090E02F3FA7E03A0741056E
:102690005105610571058105910509F4ABC120E083
:1026A00030E08C859D85A0E00E94D43709F4A2C15A
:1026B00089819A812E853F85821793070CF494C1F6
:1026C000992324F481501D89180F09C00196488967
:1026D00059898417950714F41C8901C01B892A9411
:1026E000222019F0191150CF192DA981BA815A89C8
:1026F000852F90E0919581959109A817B9070CF461
:10270000E3C0812F110F990BA817B9070CF0DCC09B
:102710002A2D372D462D552D642D732D8F2D9B2D54
:102720000FE30E949137622F617020FD3196BB2329
:102730005CF01A161B060CF084C08281818388230A
:1027400009F457C081E074C0DF010D900020E9F763
:1027500011979D012E1B3F0B8FEF820F222321F13A
:10276000DF01A80FB11D9C91903311F03FC1892F5B
:102770001C929FEF980F8823B9F0DF01A90FB11DBC
:102780002C912033A1F333C1282F30E0DF01A20FB9
:10279000B31F9C9149815A81241B350BDF01A20F85
:1027A000B31F9C93815081F780E380838EE2818305
:1027B00089819A81019689839A8399230CF07FC03D
:1027C00022E030E3DF01A20FB11D3C9389819A81A1
:1027D000019689839A832F5F9923A4F370C0DF0148
:1027E000A80FB11D11969C9111979C93911120C037
:1027F00001C081E0282F30E049815A8142175307F8
:1028000084F070E391E0980FDF01A80FB11D7C9375
:10281000892F492F50E029813A812417350794F7F1
:1028200001C0982FDF01A90FB11D1C92892F43C051
:102830008F5F482F50E029813A81241735077CF6B5
:1028400001C081E0282F30E02F5F3F4F912C2815E9
:1028500039058CF5DF01A80FB11D9C91992359F121
:102860008EE28C93DF010D900020E9F711979D0116
:102870002E1B3F0B8FEF820F2223A9F0DF01A80F41
:10288000B11D9C91903379F48EEF820F01C0822F9D
:102890001C928F3F41F0DF01A80FB11D2FEF280FD1
:1028A0009C919033A1F3DF01A80FB11D8C918E3262
:1028B00031F41C9204C0DF01A80FB11D1C926623E5
:1028C00009F498C0319796C02A2D372D462D552DE5
:1028D000642D732D8F2D9B2D0FE30E949137822F36
:1028E0008170282E20FD03C01CEF180D02C01BEFC5
:1028F000180D2A2D372D462D552D642D732D8F2D16
:102900009B2D04E30E9491372B833C834D835E8390
:102910006F83788789879A878B819C819770898359
:102920009A838F3FA3E09A070CF411508D5D93407A
:102930008534910508F0115011110CC011E00AC046
:10294000115049F48281882361F18F7D8534E9F447
:1029500092E028C0912CC12CD12CE12C012F2A2DE2
:10296000372D462D552D642D732D8F2D9B2D0E94B7
:10297000230FFC01DC010D900020E9F71197A81B43
:10298000B90B8A169B06E0F2DDCF92E09F5FDF0174
:10299000A90FB11D8C91882329F08F7D8534B1F763
:1029A00001C092E0892F8150843020F421100AC0A8
:1029B000833050F0DF01A80FB11D2C91203399F323
:1029C000282F03C0282F01C0282F981B892F820F82
:1029D0002F5FDF01A80FB11D8C91DF01A20FB11D88
:1029E0008C938111F3CF06C0192D7FCE822F908159
:1029F0009183CACECF016596CDBFDEBFDF91CF9167
:102A00001F910F91FF90EF90DF90CF90BF90AF900C
:102A10009F908F907F906F905F904F903F902F90FE
:102A20000895E0EAF6E080E1828380E2828380E438
:102A3000828380E8828308958091A80684FD0EC079
:102A40008091E6209091E72080362AEE9207E8F404
:102A500001968093E6209093E72017C08091E620AE
:102A60009091E7208B30910548F0C39718F01092B1
:102A7000702D07C081E08093702D03C082E08093A9
:102A8000702D1092E6201092E7208091A80685FD17
:102A90000EC08091E4209091E52080362AEE9207C6
:102AA000E8F401968093E4209093E52017C080918C
:102AB000E4209091E5208B30910548F0C39718F001
:102AC0001092712D07C081E08093712D03C082E0C8
:102AD0008093712D1092E4201092E5208091A80639
:102AE00086FD0EC08091E2209091E32080362AEE90
:102AF0009207E8F401968093E2209093E32017C0B8
:102B00008091E2209091E3208B30910548F0C397AB
:102B100018F01092722D07C081E08093722D03C0CF
:102B200082E08093722D1092E2201092E320809137
:102B3000A806882374F08091E0209091E1208036EF
:102B40002AEE9207E8F401968093E0209093E1202A
:102B500008958091E0209091E1208B30910548F01C
:102B6000C39718F01092732D07C081E08093732DE6
:102B700003C082E08093732D1092E0201092E12038
:102B80000895813049F028F0823049F0833051F0C7
:102B90000CC08091702D08958091712D08958091C1
:102BA000722D08958091732D089582E008950F93FA
:102BB000CF93DF931F92CDB7DEB72FB72983F89459
:102BC0001BBEFC0108ED04BF608389818FBF0F909D
:102BD000DF91CF910F910895611102C090E001C083
:102BE00090E2842B892B8093520008956F71862B7D
:102BF000809355000895E0E5F0E09081282F20951E
:102C000092239083908189230895682B81E490E03A
:102C10000E94D71508950F931F93CF93C82F00E4F8
:102C200010E0F8016081687F682B80E490E00E94EA
:102C3000D715F80180818C23CF911F910F910895B2
:102C4000FC019081907F692B60830895FC01918144
:102C5000987F692B61830895FC0196819C7F692B85
:102C600066830895000088ED84BF81E08093790039
:102C700008950E9432160895CF93DF9380E190E08B
:102C80000E94D917EC01009741F0FC0111921192BA
:102C900011921192CF010E940018CE01DF91CF91C5
:102CA00008952F923F924F925F926F927F928F92F0
:102CB0009F92AF92BF92CF92DF92EF92FF920F93CB
:102CC0001F93CF93DF93EC014A015B01622E702EBC
:102CD0000E944D1F288039804A805B8001110DC001
:102CE00081E0B201A101482159216A217B21452BB4
:102CF000462B472B79F480E00DC081E0B201A101A1
:102D0000482159216A217B21481559056A057B050F
:102D100009F080E0882381F0662009F470C0809477
:102D20009094A094B09482209320A420B52088820F
:102D30009982AA82BB8263C0C114D104E104F10468
:102D400009F45DC0662029F040E050E060E071E0E9
:102D500003C040E050E0BA0171107460482959295D
:102D60006A297B2997018601CE0104960E947C2165
:102D70000E943820811102C00E945E190E94B9226F
:102D800091FD39C0F091A200FF93F87FF093A2006B
:102D9000688179818A819B8171100DC021E0750164
:102DA0006401C622D722E822F922CD28CE28CF28D6
:102DB00079F420E00DC021E075016401C622D7221C
:102DC000E822F922C814D904EA04FB0409F020E03F
:102DD000222371F0662061F080949094A094B094C6
:102DE00086229722A822B92288829982AA82BB824F
:102DF000FF91F093A2001B012C01552402C00E94F8
:102E00003820C201B101DF91CF911F910F91FF9046
:102E1000EF90DF90CF90BF90AF909F908F907F907A
:102E20006F905F904F903F902F9008950F931F9356
:102E3000F091A200FF93F87FF093A200FC010081C3
:102E40001181228133814095509560957095402382
:102E50005123622373234083518362837383FF91E1
:102E6000F093A200C901B8011F910F9108954F92EC
:102E70005F926F927F92AF92BF92CF92DF92EF926A
:102E8000FF920F931F93CF93DF93EC016A017B01B5
:102E90008C01095F1F4F0E944D1FEB85FC858881C7
:102EA0009981AA81BB81C82AD92AEA2AFB2AC88229
:102EB000D982EA82FB820E171F0709F442C0C12C97
:102EC000D12C7601A480B58080819181A281B381CB
:102ED000AC01BD017727B2FD0FC0488059806A80E0
:102EE0007B80442255226622772221E0452846280D
:102EF000472889F420E00FC0488059806A807B8091
:102F0000442255226622772221E0441655066606A1
:102F1000770609F020E0222371F0B0FF04C0C42A34
:102F2000D52AE62AF72A488159816A817B81726015
:102F3000CF010E940422EA2DFB2D0E171F0711F668
:102F400003C0C12CD12C7601C094D094E094F094AD
:102F500088819981AA81BB81C822D922EA22FB22D9
:102F6000C882D982EA82FB820E94382068817981F6
:102F70008A819B81DF91CF911F910F91FF90EF90FC
:102F8000DF90CF90BF90AF907F906F905F904F9009
:102F900008950E94371708950F931F9389019A018E
:102FA000AB01BC0189EC97E10E9499251F910F911B
:102FB0000895CF93DF93EC010E944D1F2091E820EC
:102FC0003091E920C9018C0F9D1F883B4BE094078D
:102FD00058F42817390758F4E901C651DF4D80939A
:102FE000E8209093E92005C0C0E0D0E002C0C0E036
:102FF000D0E00E943820CE01DF91CF91089508954E
:10300000FC010396818392834FEF5FEFBA01438304
:103010005483658376838783908781879287108224
:103020000895FC01128613860895CF93DF939C01C7
:10303000FB01DC011196CD91DC911297C483D583FD
:103040008E819F81868397838E819F81DC01149678
:103050006D937C9315976E837F8322873387F90165
:1030600080818F5F8083DF91CF9108950F931F93AD
:10307000CF93DF93EB01088119812A813B810F3FB8
:103080004FEF14072407340721F4FC01A185B28512
:1030900011C0DC01139601C0DF011496ED91FC9183
:1030A00015974081518162817381041715072607A6
:1030B000370790F71496ED91FC911597EC83FD83FB
:1030C000C683D783AE83BF831496CD93DC931597C5
:1030D0008A879B87FC0120812F5F2083DF91CF911E
:1030E0001F910F910895CF93DF93FC01A285B385C3
:1030F000C481D581868197818E839F83C681D78144
:10310000848195818C839D8311968D919C911297DA
:10311000E817F90731F48681978111968D939C9376
:103120001297128613868C9181508C938C91DF912B
:10313000CF910895E0EAF0E082819281987F9283B6
:103140000895CF92DF92EF92FF9231E1FC0130833C
:10315000319722E220833197A3E3A0836B01E12C16
:10316000F12C319760833197D0823197E08231978B
:1031700061E36083319760E86083319767E860833B
:103180003197108231971082319762E060833197D6
:1031900063E06083319764E06083319765E060832A
:1031A000319766E06083319767E06083319768E02C
:1031B0006083319769E06083319760E16083319784
:1031C0003083319732E13083319733E13083319767
:1031D00034E13083319735E13083319736E1308304
:1031E000319737E13083319738E13083319739E1D6
:1031F0003083319730E23083319731E23083319739
:103200002083319723E220836A01319740833197ED
:10321000D082319726E22083319727E220833197AD
:1032200028E22083319729E22083319720E320830D
:103230008897FF90EF90DF90CF90089583EF91E013
:10324000809326089093270865E080E098E00E942C
:10325000201661E080E098E00E942C16A091102DCD
:10326000B091112D0D900DBE0D900EBEEF91DF911E
:10327000CF91BF91AF919F918F917F916F915F910E
:103280004F913F912F911F910F91FF90EF90DF9001
:10329000CF90BF90AF909F908F907F906F905F90F6
:1032A0004F903F902F901F900F90FF91F093A200AE
:1032B000FF91FFBFFF91089581E00895FF93FFB74D
:1032C000FF93F091A200FF93F87FF093A2000F927A
:1032D0001F9211242F923F924F925F926F927F9292
:1032E0008F929F92AF92BF92CF92DF92EF92FF9216
:1032F0000F931F932F933F934F935F936F937F93FE
:103300008F939F93AF93BF93CF93DF93EF93A0914E
:10331000102DB091112D0DB60D920EB60D920E948A
:10332000D620A091102DB091112D0D900DBE0D90B5
:103330000EBEEF91DF91CF91BF91AF919F918F9191
:103340007F916F915F914F913F912F911F910F91BD
:10335000FF90EF90DF90CF90BF90AF909F908F90B5
:103360007F906F905F904F903F902F901F900F90A5
:10337000FF91F093A200FF91FFBFFF910895CF93BB
:103380009091742D892B8093742D9091A000913091
:1033900041F09091A000923021F09091A0009430E3
:1033A00059F4882349F00E949A18C82F1092742D5E
:1033B0000E94D620C093A200CF910895FF93FFB73B
:1033C000FF93F091A200FF93F87FF093A2000F9279
:1033D0001F9211242F923F924F925F926F927F9291
:1033E0008F929F92AF92BF92CF92DF92EF92FF9215
:1033F0000F931F932F933F934F935F936F937F93FD
:103400008F939F93AF93BF93CF93DF93EF93A0914D
:10341000102DB091112D0DB60D920EB60D920E9489
:103420009A18C82F0E94651FC093A20081E00E94D5
:10343000BF19A091102DB091112D0D900DBE0D90C2
:103440000EBEEF91DF91CF91BF91AF919F918F9180
:103450007F916F915F914F913F912F911F910F91AC
:10346000FF90EF90DF90CF90BF90AF909F908F90A4
:103470007F906F905F904F903F902F901F900F9094
:10348000FF91F093A200FF91FFBFFF911895F0917B
:10349000A200FF93F87FF093A200FC01968DFF91AC
:1034A000F093A20081E0911180E00895DC01F09199
:1034B000A200FF93F87FF093A2005E969C915E9726
:1034C000FF91F093A20081E05F962C91291380E098
:1034D00008950F931F93CF93DF93EC01042F1E8D5C
:1034E00048A14423B9F1011116C050E08C819D819F
:1034F0000E94D23828A18C819D81820F911D8C83DE
:103500009D832A813B818217930720F188819981CD
:103510008C839D831FC050E08E819F810E94D23892
:1035200088A190E09195819591092E813F81280F86
:10353000391F2E833F83488159812417350730F482
:103540002A813B81820F931F8E839F83023011F467
:10355000111111501F5F1E8F80E0DF91CF911F91DD
:103560000F910895FC0140A14423A9F050E0268169
:103570003781240F351F2683378382819381281753
:10358000390720F08081918186839783CB01668102
:1035900077810E94D2380895EF92FF920F931F9384
:1035A000CF938C01F091A200FF93F87FF093A200DB
:1035B000FC01C2A11C16ACF48389811106C011C0A4
:1035C000F8018389811105C00CC07801F3E1EF0E89
:1035D000F11CC7010E94C22181110E94A722C15083
:1035E00079F78FEFF80182A3FF91F093A200F09199
:1035F000A200FF93F87FF093A200F801C1A11C166E
:10360000ACF48085811106C011C0F801808581115C
:1036100005C00CC07801F8E0EF0EF11CC7010E9454
:10362000C22181110E94A722C15079F78FEFF801C2
:1036300081A3FF91F093A200CF911F910F91FF9072
:10364000EF900895CF93DF93EC01F091A200FF93E8
:10365000F87FF093A2004881598128A130E07F8D46
:10366000729FC001739F900D1124FA01E80FF91F9A
:10367000EA83FB831E8E4C835D83821B930B840F36
:10368000951F8E839F838FEF89A38AA361110CC03E
:103690008885882389F0CE0108960E94C22188235C
:1036A00059F00E945E1908C0CE0108960E940018C9
:1036B000CE0143960E940018FF91F093A20081E092
:1036C000DF91CF910895FF920F931F93CF93DF93D4
:1036D000082F162FF42E6623C9F0869FC0011124EF
:1036E00085960E94D917EC01009749F416C00F8FF8
:1036F00018A361E0CE010E94221BFCA20EC0859699
:1037000088839983F4CFC883D983F1CF85E290E091
:103710000E94D917EC01892BB1F7CE01DF91CF912F
:103720001F910F91FF900895AF92BF92CF92DF92B9
:10373000EF92FF920F931F93CF93DF93CDB7DEB736
:103740002997CDBFDEBF7C015B012E833F83488775
:10375000598710E06C0188E0C80ED11CF091A200DE
:10376000FF93F87FF093A200F701968D878D98174D
:1037700010F00230D1F4402FB501C7010E94691A40
:10378000F7019389992349F0C70143960E94C2210A
:10379000882331F00E945E1903C081110E945E19D6
:1037A000FF91F093A20081E057C08E819F81A88590
:1037B000B985892B8A2B8B2B29F4FF91F093A200DA
:1037C00080E04AC0111105C0CE0101960E94382246
:1037D00011E0FF91F093A2000E944D1FF091A20012
:1037E000FF93F87FF093A200F70181A18F3F09F4C6
:1037F00011A2F70182A18F3F09F412A2FF91F09369
:10380000A200BE016A5F7F4FCE0101960E9449224D
:1038100081111CC0C7010E94561A882389F04E816D
:103820005F8168857985C6010E946421C7010E9475
:10383000CC1A0E943820811191CF0E945E198ECF40
:10384000C7010E94CC1A0E94382088CFC7010E946D
:10385000CC1A0E94382080E02996CDBFDEBFDF91D0
:10386000CF911F910F91FF90EF90DF90CF90BF907D
:10387000AF900895AF92BF92CF92DF92FF920F93D5
:103880001F93CF93DF93EC016B015A01022F0E942B
:103890009A18F82E9E8D8F8D981710F00230E1F453
:1038A0001AA1402FB601CE010E94691A1F3F81F470
:1038B0008B89882399F0CE0143960E94C2218823E8
:1038C00079F0A114B10471F081E0F50180830BC09F
:1038D0001F5F1AA381E007C080E005C081E003C03C
:1038E00081E001C081E0F092A200DF91CF911F91B1
:1038F0000F91FF90DF90CF90BF90AF900895AF925F
:10390000BF92CF92DF92EF92FF920F931F93CF93CC
:10391000DF93CDB7DEB72997CDBFDEBF8C015B014A
:103920002E833F8348875987E12C6C0183E1C80EC1
:10393000D11CF091A200FF93F87FF093A200F80150
:10394000F68CFF20B1F0B501C8010E94B21AFA94BA
:10395000F801F68E8085882339F0C80108960E9408
:10396000C22181110E945E19FF91F093A20081E0B3
:103970005EC08E819F81A885B985892B8A2B8B2B70
:1039800029F4FF91F093A20080E051C0E11006C03D
:10399000CE0101960E943822EE24E394FF91F09329
:1039A000A2000E944D1FF091A200FF93F87FF093B8
:1039B000A200F80181A18F3F09F411A2F80182A1B0
:1039C0008F3F09F412A2FF91F093A200BE016A5F3B
:1039D0007F4FCE0101960E94492281111CC0C8016F
:1039E0000E94471A882389F04E815F816885798516
:1039F000C6010E946421C8010E94CC1A0E9438208E
:103A0000811197CF0E945E1994CFC8010E94CC1AF1
:103A10000E9438208ECFC8010E94CC1A0E94382004
:103A2000C8010E94471A882309F483CF80E02996B1
:103A3000CDBFDEBFDF91CF911F910F91FF90EF902F
:103A4000DF90CF90BF90AF900895F091A200FF93C8
:103A5000F87FF093A200FC01868DFF91F093A20005
:103A60000895CF93DF93EC01F091A200FF93F87FCC
:103A7000F093A20089A18F3F09F419A28AA18F3F78
:103A800009F41AA2FF91F093A2008E8D811104C057
:103A9000CE0143960E94A121CE010E94CC1ADF9153
:103AA000CF910895E091CC2CF091CD2C80818111A3
:103AB0000CC08FEF9FEFDC018093A52C9093A62C78
:103AC000A093A72CB093A82C0895E091CC2CF09152
:103AD000CD2C0780F085E02D0084F185E02D8281DA
:103AE0009381A481B5818093A52C9093A62CA0935B
:103AF000A72CB093A82C08958F929F92AF92BF925B
:103B0000CF92DF92EF92FF92CF936B017C01C42F93
:103B10008090AF2C9090B02CA090B12CB090B22C93
:103B20008091102D9091112D02960E9473188FEFA5
:103B3000C816D806E806F80669F4CC2359F0609157
:103B4000102D7091112D6E5F7F4F84EB9CE20E94CF
:103B500015183FC0C80CD91CEA1CFB1CE091102DA5
:103B6000F091112DC282D382E482F582C814D90467
:103B7000EA04FB0468F46091102D7091112D80917E
:103B8000CA2C9091CB2C6E5F7F4F0E94361821C0BB
:103B90006091102D7091112D8091CC2C9091CD2C95
:103BA0006E5F7F4F0E9436188091A52C9091A62CB5
:103BB000A091A72CB091A82CC816D906EA06FB063E
:103BC00040F4C092A52CD092A62CE092A72CF092A3
:103BD000A82CCF91FF90EF90DF90CF90BF90AF9047
:103BE0009F908F900895C4EEDCE28881823010F0BF
:103BF0000E945E190E94702AF8CF4F925F926F92D6
:103C00007F928F929F92AF92BF92CF92DF92EF926C
:103C1000FF920F93CF93DF934C016B015A0129015F
:103C2000CA010E94D9173C01892B09F4EAC08CE231
:103C300090E00E94D917EC01892BB1F06B8E7C8E3D
:103C4000A50165EA70E0C3010E94DB3821E0A21AF9
:103C5000B1088B8D9C8DA80EB91ED6018C918D8FCD
:103C60008C91811105C018C0C3010E94FF17C9C003
:103C7000AE01425E5F4FF6013196B8E0CB0ED11C2B
:103C8000CF012191DA012D93AD01DC018C918823C4
:103C900019F0EC15FD05A1F71CA2043008F003E0B3
:103CA0000A8F6E01B2E0CB0ED11CC6010E94111822
:103CB000CE010E960E941118CA87DB8784E090E03F
:103CC000A0E0B0E0801B9109A109B1098E879F8710
:103CD000A88BB98BCE8BDF8B1FA218A619A61AA6AC
:103CE0001BA6A201B401C5010E94A1188883998373
:103CF000E114F10419F0F701C083D183F091A2001F
:103D0000FF93F87FF093A2008091B32C8F5F809394
:103D1000B32C8091102D9091112D892BA9F5C09372
:103D2000102DD093112D8091B32C8130E9F584EEC4
:103D30009CE20E9400188FEE9CE20E9400188AEF1D
:103D40009CE20E94001885E09DE20E94001889ED27
:103D50009CE20E9400188EEC9CE20E9400188FEBFF
:103D60009CE20E94001884EB9CE20E94001889EDFE
:103D70009CE28093CC2C9093CD2C8EEC9CE2809393
:103D8000CA2C9093CB2C10C08091AD2C81110CC00B
:103D9000E091102DF091112D928D8A8D891720F0D0
:103DA000C093102DD093112D8091A92C8F5F8093FB
:103DB000A92C8DA38A8D9091AE2C981710F4809326
:103DC000AE2CFBE08F9FC0011124B6018C51934DA6
:103DD0000E941518FF91F093A2008091AD2C8823CA
:103DE00061F0E091102DF091112D928D8A8D981730
:103DF00030F40E945E1981E005C081E003C081E0DB
:103E000001C08FEFDF91CF910F91FF90EF90DF9086
:103E1000CF90BF90AF909F908F907F906F905F906A
:103E20004F900895EF92FF920F930F2EF3EAEF2E2B
:103E3000FCE2FF2EF02D00E020E030E048EC50E006
:103E400060E070E283EF9DE10E94FD1D813009F585
:103E50000E9457238130E9F4E0EAF0E08281887F14
:103E600082838FEF9FEFDC018093A52C9093A62C8B
:103E7000A093A72CB093A82C81E08093AD2C109236
:103E8000AF2C1092B02C1092B12C1092B22C0E9438
:103E90001E190F91FF90EF9008958091A22C8F5FD3
:103EA0008093A22C0895F091A200FF93F87FF093E5
:103EB000A2006091AF2C7091B02C8091B12C9091A8
:103EC000B22CFF91F093A2000895AF92BF92CF92CF
:103ED000DF92EF92FF920F931F93CF93DF93809126
:103EE000A22C8111ADC0C090AF2CD090B02CE0902E
:103EF000B12CF090B22C8FEFC81AD80AE80AF80A51
:103F0000C092AF2CD092B02CE092B12CF092B22C97
:103F1000C114D104E104F104B9F48091CC2C909146
:103F2000CD2C2091CA2C3091CB2C2093CC2C3093CB
:103F3000CD2C8093CA2C9093CB2C8091AA2C8F5F90
:103F40008093AA2C0E94521D8091A52C9091A62CA2
:103F5000A091A72CB091A82CC816D906EA06FB069A
:103F600010F4B12C5CC0B12C0F2EFBE0AF2EF02D65
:103F7000E091CC2CF091CD2C808181110CC08FEF81
:103F80009FEFDC018093A52C9093A62CA093A72CE7
:103F9000B093A82C44C0E091CC2CF091CD2C07809C
:103FA000F085E02DC085D1858A819B81AC81BD8162
:103FB000C816D906EA06FB0648F48093A52C909310
:103FC000A62CA093A72CB093A82C29C08E010E5F1D
:103FD0001F4FC8010E947318888D998D892B21F07D
:103FE000CE010E960E9473188A8D9091AE2C981770
:103FF00010F48093AE2CA89EC0011124B8018C51FE
:10400000934D0E941518E091102DF091112D9A8D6D
:10401000828D981708F4ACCFBB24B394A9CFE0915C
:10402000102DF091112DE28D8BE0E89FF00111240D
:10403000EC51F34D8081823048F0BB24B39406C02C
:104040008091AC2C8F5F8093AC2CB12C8091AB2CE9
:10405000882311F0BB24B3948B2DDF91CF911F9156
:104060000F91FF90EF90DF90CF90BF90AF900895A9
:10407000CF92DF92EF92FF920F931F93CF93DF9334
:10408000F091A200FF93F87FF093A2008091A22C00
:1040900081508093A22C8091A22C81115CC08091D0
:1040A000B32C81112CC05AC0D7011796ED91FC9109
:1040B0001897C085D185CE010E960E9473188E0187
:1040C0000E5F1F4FC8010E9473188A8D9091AE2C0D
:1040D000981710F48093AE2CD89EC0011124B8011B
:1040E0008C51934D0E941518E091102DF091112DD7
:1040F0009A8D828D981788F0C092AB2C0EC0C0E0CC
:10410000D0E00F2EFFEBEF2EFCE2FF2EF02D0F2E56
:10411000FBE0DF2EF02DCC24C394F70180818111C8
:10412000C3CFCD2B11F00E94521DC091AC2CCC23DB
:1041300051F0D1E00E94651F8111D093AB2CC1508A
:10414000C9F71092AC2C8091AB2C882331F00E94DF
:104150005E1981E003C080E001C080E0FF91F09330
:10416000A200DF91CF911F910F91FF90EF90DF9010
:10417000CF900895CF92DF92EF92FF926B017C0176
:10418000672B682B692B59F00E944D1F40E0C70137
:10419000B6010E947C1D0E943820811102C00E943D
:1041A0005E19FF90EF90DF90CF9008958091A22C40
:1041B000882321F081E08093AB2C08951092AB2CE2
:1041C000E091102DF091112D038CF48DE02D808164
:1041D0009181A281B381853A954AA54AB54AD9F41D
:1041E00084819581A681B781853A954AA54AB54AC9
:1041F00091F480859185A285B385853A954AA54A33
:10420000B54A49F484859585A685B785853A954A4A
:10421000A54AB54A61F06091102D7091112D8091E1
:10422000102D9091112D635E7F4F0E943916809161
:10423000AE2C282F30E09BE0899FF0011124EC5137
:10424000F34D908191110EC04BE08150282F30E04A
:10425000429FF001439FF00D1124EC51F34D9081EA
:10426000992399F39BE0929FA001939F500D1124F5
:10427000DA01AC51B34D1196ED91FC911297048087
:10428000F581E02D1196ED93FC9312974951534D12
:10429000E417F50729F444815581FD0141835283D8
:1042A0009BE0929FF001939FF00D1124EC51F34D90
:1042B0000180F281E02D208531852093102D3093EF
:1042C000112D8093AE2C0895CF92DF92EF92FF9242
:1042D0006A017B016091102D7091112D625F7F4FFB
:1042E0000E94361841E0C701B6010E947C1DFF9074
:1042F000EF90DF90CF900895CF92DF92EF92FF92F0
:104300000F931F9368017901E091102DF091112D09
:10431000706846875787608B718B6091102D709104
:10432000112D625F7F4F0E94151841E0C701B60151
:104330000E947C1D1F910F91FF90EF90DF90CF9016
:104340000895CF92DF92EF92FF92CF936A017B01A3
:10435000C22F6091102D7091112D625F7F4F0E94CE
:104360001518CC2321F0CC24CA94DC2C76014C2FD8
:10437000C701B6010E947C1DCF91FF90EF90DF90A6
:10438000CF9008950F931F93CF93DF93DC0117967F
:10439000ED91FC911897C085D1858E01025F1F4F6A
:1043A000C8010E9473188091A22C811116C00C5074
:1043B0001109C8010E9473188A8D9091AE2C98172C
:1043C00010F48093AE2CBBE08B9FC0011124B80188
:1043D0008C51934D0E94151805C0B8018FEB9CE2DB
:1043E0000E941518E091102DF091112D9A8D828D5B
:1043F000891720F481E08093AB2C01C080E0DF912D
:10440000CF911F910F9108950F931F93CF93DF9337
:104410007068FC014083518362837383C085D185BA
:104420000E9473188E010E5F1F4FC8010E947318FF
:104430008A8D9091AE2C981710F48093AE2CFBE0EF
:104440008F9FC0011124B8018C51934D0E94151803
:10445000E091102DF091112D9A8D828D891718F40D
:1044600081E08093AB2CDF91CF911F910F91089544
:104470002091AA2CFC0120834091AF2C5091B02CAC
:104480006091B12C7091B22C418352836383748309
:104490000895CF92DF92EF92FF920F931F93CF93E5
:1044A000DF93DB01F091A200FF93F87FF093A2006D
:1044B0004091AF2C5091B02C6091B12C7091B22CE6
:1044C0000D911D912D913C9113970F3FCFEF1C073C
:1044D0002C073C0769F1FC01C180D280E380F480A5
:1044E000E091AA2CEC01F881FE1729F04C155D052E
:1044F0006E057F05F8F44C195D096E097F094017B8
:1045000051076207730768F4FD01041B150B260BA6
:10451000370B00831183228333830E94382280E08B
:104520000AC01D921D921D921C92139781E003C038
:1045300080E001C081E0FF91F093A200DF91CF9174
:104540001F910F91FF90EF90DF90CF90089581E041
:104550008093AB2C08958091AD2C882331F080910D
:10456000A22C882321F080E0089581E0089582E064
:104570000895CF92DF92EF92FF92E091102DF0918B
:10458000112D6685778580899189E091102DF091B4
:10459000112DA091102DB091112D5A962C91C12C56
:1045A000D12C76016894C2F8C21AD108E108F1084A
:1045B000C686D786E08AF18AFF90EF90DF90CF9091
:1045C0000895CF92DF92EF92FF920F931F93FC0119
:1045D0004283538364837583828793870417150707
:1045E00026073707C0F00C191D092E093F098685DB
:1045F0009785A089B189081719072A073B0700F595
:10460000BF016E5F7F4F80911A2D90911B2D0E94EC
:10461000361880E018C00C151D052E053F0528F43E
:104620004C155D056E057F0568F4BF016E5F7F4F19
:1046300080911C2D90911D2D0E94361880E003C0A2
:1046400081E001C081E01F910F91FF90EF90DF901A
:10465000CF900895F091A200FF93F87FF093A2000D
:104660008091182D9091192D892BE9F489E29DE212
:104670000E9400188EE19DE20E94001889E29DE2EE
:1046800080931C2D90931D2D8EE19DE280931A2D19
:1046900090931B2D40E069E085E00E94631B8093AE
:1046A000182D9093192DFF91F093A2000895EF9289
:1046B000FF920F930E942A238091182D9091192D1B
:1046C000892B91F00F2EF6E1EF2EFDE2FF2EF02D5B
:1046D00003E020E030E048EC50E065E070E28AE67C
:1046E00094E20E94FD1D01C080E00F91FF90EF90C9
:1046F00008958F929F92AF92BF92CF92DF92EF92E6
:10470000FF920F931F93CF93DF93CDB7DEB7299717
:10471000CDBFDEBFE091182DF091192D309789F1B2
:1047200069832A833B834C835D838E839F836630BA
:10473000FCF40E94AB22823069F400E0A7019601EC
:10474000BE016F5F7F4F8091182D9091192D0E94AF
:10475000941B18C000E020E030E0A901BE016F5FAB
:104760007F4F8091182D9091192D0E94941B0AC0A3
:1047700020E0A801BE016F5F7F4FCF010E943A1C6D
:1047800001C080E02996CDBFDEBFDF91CF911F91A0
:104790000F91FF90EF90DF90CF90BF90AF909F90E0
:1047A0008F9008952F923F924F925F926F927F92D7
:1047B0008F929F92AF92BF92CF92DF92EF92FF9231
:1047C0000F931F93CF93DF931C010E94531F2B0164
:1047D0003C018091122D9091132DA091142DB09138
:1047E000152D481659066A067B0608F054C03CC0D1
:1047F0000780F085E02D80809180A280B380C08505
:10480000D1858E010E5F1F4FC8010E947318ED897C
:10481000FE89CE0119958A89813031F58E859F8573
:10482000A889B989880D991DAA1DBB1D88169906EE
:10483000AA06BB0670F48A839B83AC83BD83CA87B8
:10484000DB87B80180911C2D90911D2D0E94361898
:104850000BC0C12CD12C760100E010E0A501940121
:1048600060E0CE010E947923E0911C2DF0911D2D76
:1048700080818111BDCF80911A2D90911B2D809345
:104880001C2D90931D2DE0931A2DF0931B2D81E08C
:10489000F101808302C0F10110824092122D5092EA
:1048A000132D6092142D7092152DC301B201DF916A
:1048B000CF911F910F91FF90EF90DF90CF90BF901D
:1048C000AF909F908F907F906F905F904F903F90B0
:1048D0002F900895CF93DF93CDB7DEB72E97CDBF3E
:1048E000DEBFCE0101961C01A82EB32CE0911C2D39
:1048F000F0911D2D8081882309F403C10780F08584
:10490000E02D40805180628073800E944D1FC10164
:104910000E94D2236B877C878D879E878981811136
:104920005EC08B859C85AD85BE8584159505A605E5
:10493000B705E8F10E943820E0911C2DF0911D2D63
:104940000780F085E02D80849184C40102960E9446
:104950007318D40152968C915297813001F51E96AE
:104960004D915D916D917C915197440D551D661D42
:10497000771D730162010B851C852D853E85C40161
:104980000E94E122882359F0C12CD12C760100E04D
:1049900010E0A301920160E0C4010E947923D401D8
:1049A0005596ED91FC915697C40119959CC020E055
:1049B000B301A2018B859C85AD85BE85481B590B33
:1049C0006A0B7B0B8091182D9091192D0E94311D3F
:1049D0000E943820811187C00E945E1984C00E9405
:1049E000382081C0898188236CF44E815F8168857D
:1049F0007985EA81FB818C819D8119958981882344
:104A00000CF471C08E809F80D4011C968D919C9176
:104A10001D97892B21F0C40102960E947318CE01C4
:104A20000A960E94D2238B019C018981082E000CDA
:104A3000990BAA0BBB0B8A30910508F054C0FC01FE
:104A40008827E250FF4F8F4F0C940537CA80DB80D8
:104A5000EC80FD80F40146855785608971894C0D95
:104A60005D1D6E1D7F1DC4010E94E1228823D9F1C6
:104A7000D4015596ED91FC915697C4011995F40116
:104A80008289813081F54A815B816C817D81868557
:104A90009785A089B1899A01AB01280F391F4A1F58
:104AA0005B1FC12CD12C760100E010E060E0C40156
:104AB0000E94792318C04A815B816C817D81D40179
:104AC0001E964D935D936D937C935197400F511FAC
:104AD000621F731F68017901C4010E94E12203C0B3
:104AE000C4010E94FF1720E030E0A9016A2D7B2D50
:104AF0008091182D9091192D0E947F1C811172CFE9
:104B0000F5CE0E944D1FC1010E94D2236B877C8786
:104B10008D879E878981811162CFE0911A2DF09156
:104B20001B2D808121E0811120E0412C512C32018C
:104B30003FCF0F931F93CF93DF93CDB7DEB7299766
:104B4000CDBFDEBFEEEFE9838A839B836C837D83D9
:104B50002E833F834887598720E0A801BE016F5FFD
:104B60007F4F8091182D9091192D0E943A1C299603
:104B7000CDBFDEBFDF91CF911F910F910895E0E58A
:104B8000F0E0808181608083818180FFFDCF80E0C3
:104B90000E940B168EE10E94FB1560E080E00E94EF
:104BA000051643E060E080E40E94EC15E0E5F0E0EB
:104BB000808188608083818183FFFDCF64E080EC09
:104BC0000E94F615E0E5F0E080818061808360E07E
:104BD00080E00E940516E0E5F0E0818184FFFDCFD2
:104BE00084E00E940B1687E00E94FB150895CF9386
:104BF000DF93CDB7DEB76497CDBFDEBF0F2EF5E7ED
:104C00002F2EFDE23F2EF02D64EE7FE089E490E44C
:104C10000E94360A522E632E742E852E962E7C8B81
:104C20008B8B492E60E070E0CB010E94360A29830D
:104C30003A834B835C836D837E838F8398876CEA92
:104C400075EC87EA96E30E94360A29873A874B87F4
:104C50005C876D877E878F87988BA090402DB09062
:104C6000412DC090422DD090432DE090442DF090E6
:104C7000452D0091462D1091472D252D362D472D80
:104C8000582D692D7C898B89942D0E948B0BA980CE
:104C9000BA80CB80DC80ED80FE800F8118850E9479
:104CA000D40D898BA090402DB090412DC090422D05
:104CB000D090432DE090442DF090452D0091462D4D
:104CC0001091472D252D362D472D582D692D7C8986
:104CD0008B89942D0E948B0BA22EB32EC42ED52E21
:104CE000E62EF72E082F192F29853A854B855C85EE
:104CF0006D857E858F8598890E94D40D8A8B209141
:104D0000402D3091412D4091422D5091432D609185
:104D1000442D7091452DA52CB62CC72CD82CE92CF0
:104D2000FC880B89142D8091462D9091472D0E946F
:104D30008B0BA980BA80CB80DC80ED80FE800F8158
:104D400018850E94D40D89832091402D3091412DEA
:104D50004091422D5091432D6091442D7091452DED
:104D6000A52CB62CC72CD82CE92CFC880B89142D2B
:104D70008091462D9091472D0E948B0BA22EB32E31
:104D8000C42ED52EE62EF72E082F192F29853A8509
:104D90004B855C856D857E858F8598890E94D40DB5
:104DA0008A8329891216B4F48DE090E29F938F9341
:104DB0001F928BE08F931F921F920E943C2D0F90A9
:104DC0000F900F900F900F900F908A8918160CF487
:104DD000E0C028C09A8919162CF58FE090E29F93C5
:104DE0008F931F928CE08F931F921F920E943C2DF5
:104DF0000F900F900F900F900F900F9089891816B9
:104E00008CF481E190E29F938F931F928DE08F93BA
:104E10001F921F920E943C2D0F900F900F900F90A9
:104E20000F900F90998119160CF0F0C08DE090E270
:104E30009F938F931F928EE08F931F921F920E94D9
:104E40003C2D0F900F900F900F900F900F908A8134
:104E500018160CF4B0C099891916C4F42A891216D0
:104E6000ACF483E190E29F938F931F9281E18F9343
:104E70001F921F920E943C2D10923E2D10923F2DAA
:104E80000F900F900F900F900F900F902091402D4A
:104E90003091412D4091422D5091432D6091442DF0
:104EA0007091452D6894EE24E4F800E18091462D40
:104EB0009091472D0E9495129F938F9385E190E2E8
:104EC0009F938F933F922F920E944E390E94312DD3
:104ED0008BE190E29F938F931F921F921F921F92DC
:104EE0000E943C2D3F922F9288E190E29F938F93F6
:104EF0001F921F921F9281E08F930E943C2D40E0F1
:104F000050E0BA0180918B2D90918C2D0E94161744
:104F1000CDBFDEBF62FF12C086E290E29F938F9307
:104F20001F921F921F9282E08F930E943C2D0F9040
:104F30000F900F900F900F900F9011C08EE290E2A3
:104F40009F938F931F921F921F9282E08F930E94D4
:104F50003C2D0F900F900F900F900F900F9080911D
:104F60003D2D8F9380913C2D8F9386E390E29F930C
:104F70008F931F921F921F9283E08F930E943C2D6C
:104F800064EF71E080E090E00E94BA20CDBFDEBF08
:104F90003BCE8FE090E29F938F931F928CE08F9394
:104FA0001F921F920E943C2D0F900F900F900F9018
:104FB0000F900F9026CF8FE090E29F938F931F92D8
:104FC0008FE08F931F921F920E943C2D81E190E20F
:104FD0009F938F931F9280E18F931F921F920E9445
:104FE0003C2DCDBFDEBF3DCF8FE090E29F938F93EE
:104FF0001F928FE08F931F921F920E943C2D0F9063
:105000000F900F900F900F900F9025CF8A81181658
:105010000CF021CFE9CFC1E0D0E00E941C1580E068
:105020000E94C115813071F4C0933E2DD0933F2D65
:1050300041E050E060E070E080918B2D90918C2DEC
:105040000E94371781E00E94C115813071F41092DF
:105050003E2D10923F2D41E050E060E070E08091E5
:105060008B2D90918C2D0E94161782E00E94C11505
:10507000813051F442E050E060E070E080918B2D8F
:1050800090918C2D0E9437176AE070E080E090E0EC
:105090000E94BA20C2CFCF93DF93CDB7DEB7289757
:1050A000CDBFDEBFE0E8F6E081E081838483412C60
:1050B000512C612C712C812C912C18861F8240E080
:1050C00050E0BA0180918B2D90918C2D0E94161783
:1050D00060FF85C12091342D217030E040E050E028
:1050E00060E070E080E090E0A0E00E94D43709F436
:1050F000B6C060E070E080E090E40E94360AA22E24
:10510000B32EC42ED52EE62EF72E082F192F242DC0
:10511000352D462D572D682D792D88859F810E942C
:10512000CB0B222E332E49835A836B837C838D8352
:105130009E8360E070E080E89FE30E94360AA22E22
:10514000B32EC42ED52EE62EF72E082F192F222D82
:10515000332D49815A816B817C818D819E810E9492
:10516000F30AA22EB32EC42ED52EE62EF72E082F2C
:10517000192F60E070E080E890E40E94360A0E94F7
:10518000D00CA22EB32EC42ED52EE62EF72E2091B3
:10519000402D3091412D4091422D5091432D6091F1
:1051A000442D7091452D082F192F8091462D9091F7
:1051B000472D0E948B0B2093402D3093412D40931F
:1051C000422D5093432D6093442D7093452D809331
:1051D000462D9093472D60E070E080E89FE30E94A9
:1051E000360AA22EB32EC42ED52EE62EF72E082F69
:1051F000192F242D352D462D572D682D792D888575
:105200009F810E94F30A422E532E642E752E862E05
:10521000972E88879F832091342D3091352D409192
:10522000362D5091372D6091382D7091392D809108
:105230003A2D90913B2DA1E00E94B6372093342D5A
:105240003093352D4093362D5093372D6093382D64
:105250007093392D80933A2D90933B2DB5C060E02B
:1052600070E080E090E40E94360AA22EB32EC42E95
:10527000D52EE62EF72E082F192F242D352D462D4D
:10528000572D682D792D88859F810E94CB0B222E6A
:10529000332E49835A836B837C838D839E8360E0A6
:1052A00070E080E89FE30E94360AA22EB32EC42E3F
:1052B000D52EE62EF72E082F192F222D332D4981BA
:1052C0005A816B817C818D819E810E94F30AA22E7E
:1052D000B32EC42ED52EE62EF72E082F192F60E000
:1052E00070E080E890E40E94360A0E94D00CA22E62
:1052F000B32EC42ED52EE62EF72E2091402D3091C0
:10530000412D4091422D5091432D6091442D70913B
:10531000452D082F192F8091462D9091472D0E94E1
:10532000F30A2093402D3093412D4093422D50930A
:10533000432D6093442D7093452D8093462D90937B
:10534000472D60E070E080E89FE30E94360AA22EBD
:10535000B32EC42ED52EE62EF72E082F192F242D6E
:10536000352D462D572D682D792D88859F810E94DA
:10537000F30A422E532E642E752E862E972E888782
:105380009F832091342D3091352D4091362D5091B1
:10539000372D6091382D7091392D80913A2D909153
:1053A0003B2DA1E00E94B6372093342D3093352D4C
:1053B0004093362D5093372D6093382D7093392DAF
:1053C00080933A2D90933B2D44E050E060E070E0F4
:1053D00080918B2D90918C2D0E9437170AC044E04C
:1053E00050E060E070E080918B2D90918C2D0E94B8
:1053F000161740E050E0BA0180918B2D90918C2DD2
:105400000E94161761FF5BCE1092342D1092352D3D
:105410001092362D1092372D1092382D1092392D72
:1054200010923A2D10923B2D1092402D1092412D4A
:105430001092422D1092432D1092442D1092452D22
:105440001092462D1092472D10923C2D10923D2D1A
:1054500042E050E060E070E080918B2D90918C2DC7
:105460000E94161724CE88ED84BFE0E5F0E080812D
:105470008460808385E08093430081E08093000412
:10548000E0E0F4E0818180FDFDCFE0E0F4E0E28740
:10549000F3878281836082831086118682E090E0A8
:1054A0008487958708951F920F920FB60F9211244B
:1054B0008F939F9380913E2D90913F2D892B49F0A2
:1054C00080913C2D90913D2D019680933C2D9093A1
:1054D0003D2D9F918F910F900FBE0F901F901895AB
:1054E0000895EF92FF920F930E94332A0E94DF30BB
:1054F0000E943C1680938B2D90938C2D0E94BF258B
:105500000E94B52B0E9411150F2EF9E8EF2EFDE237
:10551000FF2EF02D02E020E030E044EF51E06FE399
:1055200070E287EF95E20E94FD1D20E030E044EF3D
:1055300051E067E470E28BE098E20E94FD1D01E01B
:1055400020E030E044EF51E06EE470E28BE498E25A
:105550000E94FD1D0E94312D0E94121F80E090E0EC
:105560000F91FF90EF9008951F920F920FB60F9238
:1055700011240BB60F922F933F934F935F936F932A
:105580007F938F939F93AF93BF93EF93FF93CF93AB
:10559000DF931F92CDB7DEB719829E012F5F3F4F79
:1055A00041E050E060E070E080918F2D9091902D6F
:1055B0000E94CC1760E080E09BE00E9420161092D1
:1055C000060B0F90DF91CF91FF91EF91BF91AF91BB
:1055D0009F918F917F916F915F914F913F912F910B
:1055E0000F900BBE0F900FBE0F901F901895CF928B
:1055F000DF92EF92FF920F936B017C0182E0C8165D
:10560000D104E104F10408F44EC0E0E0FBE081E0E5
:10561000868310A211A260E080E09BE00E94261623
:105620008EEFC8168FEFD806E104F10470F4F694FB
:10563000E794D794C794C092260BD092270B65E0CD
:1056400080E09BE00E94201619C080E4C81682E426
:10565000D8068FE0E806F10488F4689414F8F6940C
:10566000E794D794C7941694D1F7C092260BD092A2
:10567000270B67E080E09BE00E9420160F2EF4EFDE
:10568000CF2EDD24D394E12CF12CF02D00E021E08D
:1056900041E050E060E070E080918F2D9091902D7E
:1056A0000E94511611C0E0E0FBE081E0868310A269
:1056B00011A260E080E09BE00E942616C12CD12C54
:1056C00076016894C1F8B3CF0F91FF90EF90DF900F
:1056D000CF9008958295807FE0E0F6E09481282FB6
:1056E0002F60922394839481892B848308951F9340
:1056F000CF93DF93C0E6D6E014E01D8361E070E055
:1057000080E090E00E94F72A1E83DF91CF911F91E5
:105710000895CF93C82F82958F700E946A2BE0E680
:10572000F6E081E0868382E086830E94772B8C2FCF
:105730008F700E946A2B0E94772BCF910895CF9390
:10574000C82F82958F700E946A2BE0E6F6E081E018
:10575000858382E086830E94772B8C2F8F700E9436
:105760006A2B0E94772BCF910895EF92FF920F93AF
:10577000E0E0F6E080E1818380E2818380E4818360
:1057800080E88183A0E6B6E081E011968C931197C2
:1057900082E011968C93119784E011968C93119767
:1057A00084818F70848314968C911497887F1496CB
:1057B0008C9340E066E188E00E94631B80938D2D0E
:1057C00090938E2D0E943C1680938F2D9093902D58
:1057D000E12CF12C01E020E030E04EE551E065E500
:1057E00070E283E59CE20E94FD1D0F91FF90EF9017
:1057F00008958130910579F01CF4892B39F019C096
:105800008230910569F0039781F013C080E8860F1C
:105810000E94892B0EC080EC860F0E94892B09C044
:1058200084E9860F0E94892B04C084ED860F0E94B4
:10583000892B67E270E080E090E00E94F72A0895EB
:105840000E949F2B6BE270E080E090E00E94F72ABC
:1058500008950F931F93CF93DF93FC0180818111F3
:105860000AC011C08991882371F00E94202C0C1766
:105870001D07C1F708C08F010E94202CE801219666
:105880000C5E1F4FEFCFDF91CF911F910F910895C5
:10589000CF93DF93EA010E94F92BCE010E94292CBD
:1058A000DF91CF910895CF93DF93CDB7DEB7C65682
:1058B000D109CDBFDEBF5E0141E5A40EB11CFE01E2
:1058C000319620E208C02193E817F907E1F7FC01BF
:1058D000A816B90619F0CF014496F5CF60E47CE92B
:1058E00080E090E00E94F72A83E00E946A2B68E83B
:1058F00073E180E090E00E94F72A0E94772B60EA33
:1059000070E080E090E00E94F72A0E94772B60EA26
:1059100070E080E090E00E94F72A0E94772B60EA16
:1059200070E080E090E00E94F72A82E00E946A2BFB
:105930000E94772B88E20E94892B80E10E94892BAC
:105940008CE00E94892B86E00E94892B10E26E0178
:1059500051E5C50ED11C0F2EF4E14F2EF02D0F2E68
:10596000F6E18F2E912CF02D5C2C0D2D68EC70E063
:1059700080E090E00E94BA2040E050E0BA018091BF
:105980008F2D9091902D0E941617672B682B692BF5
:1059900009F449C042E050E060E070E080918F2D52
:1059A0009091902D0E941617FE01319608C0119318
:1059B000E817F907E1F7FC018A159B05A1F1CF0172
:1059C0004496F5CF2FEF3FEFA901652D702F809101
:1059D0008D2D90918E2D0E947F1C882321F1F60140
:1059E0002181822F90E04497F4F482818823D9F0BA
:1059F000908130E0D901499EA00DB11D112441E0F4
:105A000050E04C0F5D1FA40FB51F3396A401421B3D
:105A1000530B9A012C0D3D1D8D93E217F30719F0DE
:105A200081918111F9CF80918D2D90918E2D0E94C1
:105A3000251D8111C7CFCE0101967C01612C712CEF
:105A4000A70160E070E0C3010E94482C9FEF691A33
:105A5000790AE4E1EE0EF11CF4E06F16710481F7AF
:105A600085CF42E050E060E070E080918F2D909112
:105A7000902D0E94371708952F923F924F925F9278
:105A80006F927F928F929F92AF92BF92CF92DF924E
:105A9000EF92FF920F931F93CF93DF93CDB7DEB7B3
:105AA0006D97CDBFDEBF2BA92B8FAFA9B8AD7E01FF
:105AB00039E3E30EF11C20E73DE2ECE5FDE2119253
:105AC000E217F307E1F70F2EF8E4AF2EFDE2BF2E49
:105AD000F02D2CE53DE2F5011192E217F307E1F715
