:100000000C949F010C94C8010C94C8010C94C80175
:100010000C94C8010C94C8010C94C8010C94C8013C
:100020000C94C8010C94C8010C94A0290C94C8012C
:100030000C94C8010C94C8010C94DE190C94C801EE
:100040000C94C8010C94C8010C94C8010C94C8010C
:100050000C94C8010C94C8010C94C8010C94C801FC
:100060000C94C8010C94C8010C94C8010C94C801EC
:100070000C94C8010C94C8010C94C8010C94C801DC
:100080000C94C8010C94C8010C94C8010C94C801CC
:100090000C94C8010C94C8010C94C8010C94C801BC
:1000A0000C94C8010C94C8010C94C8010C94C801AC
:1000B0000C94C8010C94C8010C94C8010C94C8019C
:1000C0000C94C8010C94C8010C94C8010C94C8018C
:1000D0000C94C8010C94C8010C94C8010C94C8017C
:1000E0000C94C8010C94C8010C94C8010C94C8016C
:1000F0000C94C8010C94C8010C94C8010C94C8015C
:100100000C94C8010C94C8010C94C8010C94C8014B
:100110000C94C8010C94C8010C94C8010C94C8013B
:100120000C94C8010C94C8010C94C8010C94C8012B
:100130000C94C8010C94C8010C94C8010C94C8011B
:100140000C94C8010C94C8010C94C8010C94C8010B
:100150000C94C8010C94C8010C94C8010C94C801FB
:100160000C94C8010C94C8010C94C8010C94C801EB
:100170000C94C8010C94C8010C94C8010C94C801DB
:100180000C94C8010C94C8010C94C8010C94C801CB
:100190000C94C8010C94C8010C94C8010C94C801BB
:1001A0000C94C8010C94C8010C94C8010C94C801AB
:1001B0000C94012A0C94C8010C94C8010C94C80139
:1001C0000C94C8010C94C8010C94C8010C94C8018B
:1001D0000C94C8010C94C8010C94C8010C94C8017B
:1001E0000C94C8010C94C8010C94C8010C94C8016B
:1001F0000C94C8010C94C8010C94C801262526252E
:10020000262573255B2570252625262573255B2548
:100210000C9473250C9470250C9498270C94C91792
:100220000C94F31D0C946A240C94F7250C94A02BC9
:100230000C9426250C945B250C9458276E616E0057
:10024000696E660000407A10F35A00A0724E1809D9
:100250000010A5D4E80000E87648170000E40B542D
:10026000020000CA9A3B000000E1F50500008096FC
:100270009800000040420F000000A086010000002E
:10028000102700000000E8030000000064000000E8
:1002900000000A00000000000100000000002C76B1
:1002A000D888DC674F0823DFC1DFAE59E1B1B796CC
:1002B000E5E3E453C63AE651997696E8E6C2842629
:1002C000EB898C9B62ED407C6FFCEFBC9C9F40F205
:1002D000BAA56FA5F490055A2AF75C936B6CF96781
:1002E0006DC11BFCE0E40D47FEF520E6B500D0ED46
:1002F000902E0300943577050080841E08000020AE
:100300004E0A000000C80C333333330F986E12834B
:100310001141EF8D2114893BE65516CFFEE6DB181F
:10032000D1844B381BF77C1D901DA4BBE4242032E4
:1003300084725E228100C9F124ECA1E53D271124DD
:100340001FBECFEFCDBFDFE3DEBF00E00CBFE7E8AD
:10035000FDE28AEA90E48193E030F907E0F310E2ED
:10036000A0E0B0E2E4E2F2E700E00BBF02C00790D9
:100370000D92A635B107D9F72DE2A6E5B0E201C08E
:100380001D92A738B207E1F70E94BE290C941039DC
:100390000C9400002F923F924F925F926F927F9247
:1003A0008F929F92AF92BF92CF92DF92EF92FF9285
:1003B0000F931F93CF93DF93DC011B012A01F901F7
:1003C000102F8C91808311968C91119781831296B6
:1003D0008C911297828313968C9113978383149632
:1003E0008C911497848315968C9115978583169616
:1003F0008C9116978F70868317822C9111963C9161
:10040000119712964C91129713965C91139714962C
:100410006C91149715967C91159716968C9116975A
:1004200017969C91179704E30E94DE36822E932E36
:10043000340187E07822E2016882798261147104D4
:1004400049F410821182128213821482158216825C
:10045000178208C0DFEF6D16D7E07D0619F08681A0
:1004600080618683208131814281538164817581DD
:1004700086819781012F0E94C33620833183428376
:10048000538364837583868397832C9111963C9163
:10049000119712964C91129713965C91139714969C
:1004A0006C91149715967C91159716968C911697CA
:1004B00017969C910FE30E94DE36F1012083DF91B5
:1004C000CF911F910F91FF90EF90DF90CF90BF9051
:1004D000AF909F908F907F906F905F904F903F90E4
:1004E0002F9008952F923F924F925F926F927F923A
:1004F0008F929F92AF92BF92CF92DF92EF92FF9234
:100500000F931F93CF93DF9300D01F92CDB7DEB729
:100510005C0169836A01D901EC911196FC911197F4
:100520001296BC91BC83D9011396BC91BA83D901B0
:100530001496BC91BB83D9011596FC90159716961D
:100540001C9116971796EC902E2F3F2F4C815A81B5
:100550006B817F2D812F9E2DA0E00E94213709F411
:100560001CC120E030E040E050E060E0707E0E947E
:10057000213701F52E2F3F2F4C815A816B817F2D22
:10058000812F9E2D08E00E94C336E22FF32F4C836B
:100590005A836B83F72E182FE92EB8E0CB1AD108B7
:1005A000707E20E030E040E050E060E0A0E00E949B
:1005B000213701F320E030E040E050E060E070E0FF
:1005C000812F807F9E2DA0E00E94213709F52E2FDC
:1005D0003F2F4C815A816B817F2D812F9E2D01E011
:1005E0000E94C336E22FF32F4C835A836B83F72E7E
:1005F000182FE92E21E0C21AD10820E030E040E0B7
:1006000050E060E070E0807FA0E00E942137F9F2C6
:1006100020E030E040E050E060E070E080E09E2DBF
:10062000A0E00E94213749F41AC1E82DF22D3C8246
:100630004A825B82F62C172DE92C2E2F3F2F4C81FE
:100640005A816B817F2D812F9E2D04E00E94DE3622
:10065000822E232E342E452E562E672E782E992E3E
:1006600084E0C80ED11C20E030E040E050E060E0C3
:1006700070E080E0992DA0E00E942137B1F6872D2F
:10068000807E0E94213731F52E2F3F2F4C815A81D9
:100690006B817F2D812F9E2D03E00E94DE3621701D
:1006A000E82DF22D3C824A825B82F62C172DE92C34
:1006B00036C08E2E2F2E3C804A805B806F2C712E90
:1006C0009E2C08C08E2E2F2E3C804A805B806F2C83
:1006D000712E9E2C282D322D432D542D652D762DD7
:1006E000872D992D01E00E94DE36E22FF32F4C83F7
:1006F0005A836B83F72E182FE92E9FEFC91AD90A58
:1007000020E030E040E050E060E070E0812F807E4B
:100710009E2DA0E00E942137A9F6282D21702223CA
:10072000C1F12E2F3F2F4C815A816B817F2D812F5C
:100730009E2DA1E00E940337422E532E642E752E6B
:10074000862E972E082FE22FF32F4C835A836B832C
:10075000F72E182F20E030E040E050E060E070E03D
:10076000807EA0E00E942137A1F0242D352D462D5A
:10077000572D682D792D802F01E00E94DE36E22F63
:10078000F32F4C835A836B83F72E182FAFEFCA1ABF
:10079000DA0A1C141D044CF01BC0BFEFCB16B7E0E7
:1007A000DB0604F5C12CD12C23C02FEFC21627E0A5
:1007B000D206F4F0E0E0F0E01C821A821B82F12CF9
:1007C00010E00F2ECC24CA94F7E0DF2EF02D10C0DD
:1007D000E0E0F0E01C821A821B82F12C10E0C12CB8
:1007E000D12C06C00F2ECC24CA94F7E0DF2EF02DBA
:1007F000298130E040E050E060E070E080E090E08F
:100800000FE30E94C336A92F1F70E22BEF2EE32ABD
:10081000BC81B42B9A80952A8B80862AF72A182BC4
:100820009D2D990F990B2C2D3D2D492F592F692F57
:10083000792F892F04E30E94C3362E2BF5012083E4
:100840003E2931834B2B4283592953836829648382
:100850007F297583812B86839A2B97830FC020E095
:1008600030E040E050E060E070E0812F807E9E2D1F
:10087000A0E00E94213709F01CCF8BCF2496CDBF7A
:10088000DEBFDF91CF911F910F91FF90EF90DF902E
:10089000CF90BF90AF909F908F907F906F905F9020
:1008A0004F903F902F900895AF92BF92CF92DF92DA
:1008B000EF92FF920F931F93CF93DF937C01DC01A4
:1008C000DC901196AC9011971296BC91FC01C381FB
:1008D000D4811581C680078120E030E040E050E0FF
:1008E00060E070E080E0902FA0E00E94213709F0E6
:1008F00078C0B12C2D2D3A2D4B2F5C2F6D2F712FE1
:100900008C2D902F08E00E94C336D22EA32EB42F38
:10091000C52FD62F172FC82E092FF8E0BF0E20E0C5
:1009200030E040E050E060E070E080E0A0E00E9455
:10093000213791F0F701D082A182B283C383D4839F
:100940001583C682978390780E94213709F058C09A
:10095000FFE3FB157CF454C080E4B812CBCFF70161
:10096000D082A182B283C383D4831583C682978346
:1009700047C0B12C2D2D3A2D4B2F5C2F6D2F712F91
:100980008C2D902F01E00E94C336D22EA32EB42FBF
:10099000C52FD62F172FC82E092FB39420E030E093
:1009A00040E050E060E070E080E09078A0E00E94DD
:1009B000213751F0F701D082A182B283C383D4835F
:1009C0001583C68207831CC0FFE3FB159CF6F70165
:1009D000D082A182B283C383D4831583C682078366
:1009E0000FC020E030E040E050E060E070E080E0E8
:1009F000902F9078A0E00E94213709F4BACFB12C53
:100A00008B2DDF91CF911F910F91FF90EF90DF9091
:100A1000CF90BF90AF9008952F923F924F925F92E8
:100A20006F927F928F929F92AF92BF92CF92DF92FE
:100A3000EF92FF920F931F93CF93DF93CDB7DEB763
:100A4000A197CDBFDEBFDC01FB01342E8C918E83DC
:100A500011968C9111978F8312968C91129788879B
:100A600013968C911397898714968C9114978C8F79
:100A700015968C9115978D8F16968C9116978E8F53
:100A800017968C918F8F2E813F81488559856C8D6B
:100A90007D8D8E8D9F8D00E20E94DE3629A338A3C6
:100AA0004A875B876C877D878E879F8740805180D0
:100AB000628023808481888F8581898F86818A8F57
:100AC00087818B8F242D352D462D522D688D798D64
:100AD0008A8D9B8D0E94DE36288B398B4A8B5B8BEF
:100AE0006C8B7D8B8E8B9F8BA9A0B8A0CA84DB8476
:100AF000EC84FD840E851F85242D352D462D522D29
:100B000060E070E080E090E00E945A3600E20E94CF
:100B1000DE3629833A834B835C836D83772E882E60
:100B2000992EA888B988CA88DB88EC88FD880E8948
:100B30001F892E813F814885598560E070E080E003
:100B400090E00E945A3600E20E94DE36A22EB32EBA
:100B5000C42ED52EE62EF72E082F192F29813A8183
:100B60004B815C816D81772D882D992D0E94FA36FD
:100B700029833A834B835C836D83772E882E992E4D
:100B8000A888B988CA88DB88EC88FD880E891F8907
:100B900029A138A14A855B856C857D858E859F85D9
:100BA0000E945A36A22EB32EC42ED52EE62EF72E34
:100BB000082F192F29813A814B815C816D81772D16
:100BC000882D992D0E94FA36922E3A834983B52FAB
:100BD000F62FE72F782E892E30FE26C02E813F81FA
:100BE000488559856C8D7D8D8E8D9F8DA0E00E94EE
:100BF0002137D4F4292D3A8149815B2F6F2F7E2F25
:100C0000872D982DA42CB52CC62CD22CE88CF98CD1
:100C10000A8D1B8D0E940F37922E3A834983B52F80
:100C2000F62FE72F782E892E31FE26C0242D352D64
:100C3000462D522D688D798D8A8D9B8DA0E00E9466
:100C40002137D4F4292D3A8149815B2F6F2F7E2FD4
:100C5000872D982DAE80BF80C884D984EC8CFD8C04
:100C60000E8D1F8D0E940F37922E3A834983B52F28
:100C7000F62FE72F782E892E292D3A8149815B2F77
:100C80006F2F7E2F872D982DA196CDBFDEBFDF91D0
:100C9000CF911F910F91FF90EF90DF90CF90BF9079
:100CA000AF909F908F907F906F905F904F903F900C
:100CB0002F9008952F923F924F925F926F927F9262
:100CC0008F929F92AF92BF92CF92DF92EF92FF925C
:100CD0000F931F93CF93DF93CDB7DEB7E297CDBFCE
:100CE000DEBFFC018080898E91809A8EA280AB8EBF
:100CF000B380BC8EC480CD8ED580DE8EE680EF8E34
:100D0000F780F8A2282D392D4A2D5B2D6C2D7D2DD5
:100D10008E2D9F2D00E20E94DE36822F932FA42F6E
:100D2000B52F8DA79EA7AFA7B8AB098D1A8D2B8DB8
:100D30003C8D33237CF49C01AD012F5F3F4F4F4F1F
:100D40005F4F2DA73EA74FA758AB232B242B252B56
:100D500009F4C1C18DA49EA4AFA4B8A895014427ED
:100D60005527C9019F77892B29F524013501662470
:100D70007724411451046104710459F4298D3A8D8A
:100D80004B8D5C8D6D8D7E8D8F8D98A10E94B336BD
:100D9000AEC1440C551C661C771C440C551C661CCB
:100DA000771C7094609450944094411C511C611CB9
:100DB000711C8DC02F3F0FEF300769F44DA45EA466
:100DC0006FA478A87094609450944094411C511C76
:100DD000611C711C7CC0B90176956795CB01A0E0C0
:100DE000B0E0BC01CD0160957095809590950E9412
:100DF00030362F5F3F4F6901E12CF12CB701A6017E
:100E0000032E31E1440F551F661F771F3A95D1F726
:100E1000302D8DA59EA5AFA5B8A980959095A095DC
:100E2000B0954A015B01880E991EAA1EBB1E89A6B9
:100E30009AA6ABA6BCA6D701C60112961C012D012D
:100E4000A90160E070E080E090E0DC0129A35AA3F2
:100E50006BA37CA38DA39EA3AFA3B8A78DA59EA5CE
:100E6000AFA5B8A98C019D01A82EB12EC22ED32EFC
:100E7000E12CF12C00E010E029A13AA140E050E083
:100E800060E070E080E090E00E945A36A22EB32E1F
:100E9000C42ED52EE62EF72E082F192F222D332DF6
:100EA000442D552D60E070E080E090E00E945A36BD
:100EB00000E20E94DE36822E932EA42EB52E49A487
:100EC0005AA46BA47CA4481859086A087B088DA40E
:100ED0009EA4AFA4B8A895018401A82CB12EC22E5F
:100EE000D32EE12CF12C00E010E0A301920160E090
:100EF00070E0CB0149A23AA34BA35CA36DA37EA3F0
:100F00008FA398A761E070E080E090E00E945A36DD
:100F10008DA49EA4AFA4B8A8B694A79497948794E0
:100F20006501540145015601ABA2BCA2A82CB92C05
:100F3000CBA0DCA0E12CF12C0E94FA3629873A875D
:100F40004B875C876D877E878F87988BC22ED32EC9
:100F5000E42EF52E00E20E94DE362223C9F04DA5D4
:100F60005EA56FA578A9DB01CA018C0D9D1DAE1D84
:100F7000BF1D8C159D05AE05BF0508F42F5F0FEF53
:100F8000401A500A600A700A6C017D012111EBCFF2
:100F900053014201242D392D4A2D5B2D60E070E074
:100FA00080E090E00FE10E94C336222E332E442EC3
:100FB000552E662EF72E182F722E832E49A359A771
:100FC0006DA779AB8AAB9068992E29823A824B82C1
:100FD0005C826D82FE821F839887298D3A8D4B8DAE
:100FE0005C8D6D8D7E8D8F8D98A101E00E94C33642
:100FF000298B3A8B4B8B5C8B6D8B7E8B8F8B988F79
:1010000040E0BE016F5E7F4FCE0101960E940C054D
:10101000A22EB32EC42ED52EE62EE72F082FF92FA1
:10102000222D332D442D552D662D7F2D812F992D69
:10103000FE2E1F2F0E94FA360E94B336A22EB32E28
:10104000C42ED52EE62EF72E082F192F29873A8782
:101050004B875C876D877E878F87988B40E0BE01CA
:10106000675F7F4FCE0101960E940C05222E332E22
:10107000442E552E662EB72FF82FE92F2A2D3B2D03
:101080004C2D5D2D6E2D7F2D802F912FA0E00E9485
:10109000213744F4712C812C19A219A61DA619AA76
:1010A0001AAA912C222D332D442D552D662D7B2FE0
:1010B0008F2F9E2FA1E00E940337A72CB82CC9A028
:1010C000D9A4EDA4F9A80AA9192D0E94FA3601E0C5
:1010D0000E94DE360CC019861A861B861C861D8669
:1010E0001E861F86188A412C512C320151CFE29660
:1010F000CDBFDEBFDF91CF911F910F91FF90EF9099
:10110000DF90CF90BF90AF909F908F907F906F9027
:101110005F904F903F902F9008956F927F928F92A3
:101120009F92AF92BF92CF92DF92EF92FF920F9376
:101130001F93CF93DF93CDB7DEB7A597CDBFDEBFAB
:101140003C010E8B1F8B288F398F4A8F5B8F6C8FE2
:101150007D8F8E8E9F8EA8A2B9A2CAA2DBA2ECA21E
:10116000FDA20AE09E012A5F3F4FAE014E5F5F4F36
:10117000BE016F5F7F4FCE0146960E94CA019E015D
:10118000225F3F4FAE014C5F5F4FBE016F5F7F4FED
:10119000CE014E960E94CA01E8ADF9AD1082EA81F7
:1011A000FB81EF3F27E0F207E9F52E813F8148857B
:1011B00059856A857B858C859D85A0E00E942137B5
:1011C00029F58C819D818F3F974071F42E853F8555
:1011D000488959896A897B898C899D890E94213730
:1011E000A9F4FFA9FF2391F08E89F30180838F89F1
:1011F0008183888D8283898D83838A8D84838B8D7F
:1012000085838C8D86838D8D87831EC18FEFF3013F
:1012100080838183828383838483858386838FE72E
:10122000878312C1AC81BD81AF3F27E0B20791F443
:101230008E8DF30180838F8D818388A1828389A124
:1012400083838AA184838BA185838CA186838DA1CE
:101250008783FAC0309731F0CF01805C9F4FA81789
:10126000B907B4F08E8DF30180838F8D818388A1BF
:10127000828389A183838AA184838BA185838CA1A6
:1012800086838DA1878381E0E8ADF9AD8083DCC0E2
:10129000109731F0CD01805C9F4FE817F90794F06B
:1012A0008E89F30180838F898183888D8283898DE4
:1012B00083838A8D84838B8D85838C8D86838D8DAE
:1012C0008783C2C02FA9222309F445C0EA17FB0770
:1012D00004F18F010A1B1B0B2E853F854889598914
:1012E0006A897B898C899D890E94DE36AE80BF80A9
:1012F000C884D984EA84FB840C851D850E94FA3653
:101300002E833F83488759876A877B878C879D8791
:1013100090C08D010E1B1F0B2E813F814885598582
:101320006A857B858C859D850E94DE36AE84BF8470
:10133000C888D988EA88FB880C891D890E94FA36FA
:101340002E833F83488759876A877B878C879D8751
:10135000AA83BB836EC0AE17BF07B4F0EA17FB07C2
:10136000D9F52E813F81488559856A857B85AE8474
:10137000BF84C888D988EA88FB880C891D898C8538
:101380009D850E94183740F18F010A1B1B0B2E858B
:101390003F85488959896A897B898C899D890E9402
:1013A000DE36A22EB32EC42ED52EE62EF72E082F13
:1013B000192F2E813F81488559856A857B858C85CB
:1013C0009D850E940F372E833F83488759876A8700
:1013D0007B878C879D872DC08D010E1B1F0B2E8157
:1013E0003F81488559856A857B858C859D850E94CE
:1013F000DE36A22EB32EC42ED52EE62EF72E082FC3
:10140000192F2E853F85488959896A897B898C895E
:101410009D890E940F372E833F83488759876A87AB
:101420007B878C879D8781E0E8ADF9AD8083AA83B7
:10143000BB834A815B814A5051099E012A5F3F4F1D
:1014400060E0C3010E947202A596CDBFDEBFDF91AE
:10145000CF911F910F91FF90EF90DF90CF90BF90B1
:10146000AF909F908F907F906F9008954F925F9272
:101470006F927F928F929F92AF92BF92CF92DF92A4
:10148000EF92FF921F93CF93DF93CDB7DEB76097B4
:10149000CDBFDEBF2B013C01E89467F877245301F0
:1014A0004201BB0C8808982C540149825A826B82F5
:1014B0007C828D828E828F8288866B017C010B2ECE
:1014C000B7E1F594E794D794C794BA95D1F7B02DC6
:1014D000F601FF276B017C01CC24F7FCC394DD24CB
:1014E000EE24FF241C2D309709F066C0242D352DE5
:1014F000462D572D682D782D882D982DA0E00E941F
:10150000213711F517C0242D352D462D572D682D67
:10151000782D882D982DA0E00E94213749F51111D2
:1015200030C020E030E040E050E060E070E080EF6C
:101530009FE746C019821A8280E88B831C821D8235
:101540001E821F82188602C0EEE9F3E09E012F5F23
:101550003F4FAF016C2DCE0109960E947202298582
:101560003A854B855C856D857E858F85988928C0F9
:101570002FEF3FEF4FEF5FEF6FEF7FEF8FEF9FE7C3
:101580001FC020E030E040E050E060E070E080EF1D
:101590009FEF16C0D301C201A06889839A83AB83F1
:1015A000BC83BB0F880B982FDC018D838E838F83C8
:1015B0008887E356FC4FCACFEF3FF10559F7A3CF19
:1015C0006096CDBFDEBFDF91CF911F91FF90EF906E
:1015D000DF90CF90BF90AF909F908F907F906F9053
:1015E0005F904F9008952F923F924F925F926F922B
:1015F0007F928F929F92AF92BF92CF92DF92EF92A3
:10160000FF920F931F93CF93DF93CDB7DEB72A9747
:10161000CDBFDEBF422E532E642E5A87B62FA72F82
:10162000F82FE92F302E0FE30E94DE362170722E44
:101630002A2D3B2D4C2D5D2D6E2D7F2D832D912F31
:101640000E94DE362170222E271509F1CE01019667
:101650009F938F931F928A2C9B2CAC2CBD2CCE2C4D
:10166000DF2CE32CF12E042D152D262D3A854B2F42
:101670005A2F6F2F7E2F01960E948D082980272DCB
:1016800022252170222E0F900F900F901DC0CE01A9
:1016900001969F938F9381E08F938A2C9B2CAC2C87
:1016A000BD2CCE2CDF2CE32CF12E042D152D262D58
:1016B0003A854B2F5A2F6F2F7E2FCE0102960E9414
:1016C0008D080F900F900F90222021F0898580685F
:1016D000898703C089858F7789872A813B814C81DF
:1016E0005D816E817F81888599852A96CDBFDEBF19
:1016F000DF91CF911F910F91FF90EF90DF90CF90EE
:10170000BF90AF909F908F907F906F905F904F9021
:101710003F902F9008957F928F929F92AF92BF92A9
:10172000CF92DF92EF92FF920F931F93CF93DF93AD
:10173000722E832E942ED52FC62FB72FA82FF92FB8
:10174000E02F2A2D3B2D4C2D5D2D6E2D7F2D802FD2
:10175000912F0FE30E94DE3620FD03C00E2F10688C
:1017600002C00E2F1F77272D382D492D5D2F6C2F8E
:101770007B2F8A2F9F2F0E94F30ADF91CF911F9119
:101780000F91FF90EF90DF90CF90BF90AF909F9020
:101790008F907F900895AF92BF92CF92DF92EF9299
:1017A000FF920F931F93CF93DF93CDB7DEB7A6972A
:1017B000CDBFDEBF2F8B388F498F5A8F6B8F7C8FB9
:1017C0008D8F9E8FAF8EB8A2C9A2DAA2EBA2FCA227
:1017D0000DA31EA30BE09E01295F3F4FAE014D5F9D
:1017E0005F4FBE016F5F7F4FCE0147960E94CA01D7
:1017F0009E01215F3F4FAE014B5F5F4FBE016E5FA9
:101800007F4FCE014F960E94CA01EB81FC81EF3FD2
:1018100027E0F20721F52F81388549855A856B85A8
:101820007C858D859E85A0E00E94213709F06CC0E3
:101830008D819E818F3F27E0920769F42F8538893B
:1018400049895A896B897C898D899E890E942137B3
:1018500009F063C043C0892B09F468C03FC08D8183
:101860009E818F3F27E09207E9F42F8538894989C7
:101870005A896B897C898D899E89A0E00E942137D5
:1018800009F05DC0EF2B09F463C08FEF97E08B8305
:101890009C831F82188619861A861B861C861D86C5
:1018A0001E861CC0309709F45CC0009709F462C022
:1018B000E80FF91FE950F440EB83FC8340E0BE01E0
:1018C000615F7F4FCE0107960E940C052F833887FA
:1018D00049875A876B877C878D879E8769818A8134
:1018E000682769834B815C819E01295F3F4FCE0150
:1018F00047960E9472022F89388D498D5A8D6B8DC3
:101900007C8D8D8D9E8D3EC02FEF3FEF4FEF5FEFB3
:101910006FEF7FEF8FEF9FE735C02FEF3FEF4FEF78
:101920005FEF6FEF7FEF8FEF9FE72CC02FEF3FEF61
:101930004FEF5FEF6FEF7FEF8FEF9FE723C02FEF4A
:101940003FEF4FEF5FEF6FEF7FEF8FEF9FE71AC033
:101950002FEF3FEF4FEF5FEF6FEF7FEF8FEF9FE7DF
:1019600011C020E030E040E050E060E070E080E056
:1019700090E008C020E030E040E050E060E070E03F
:1019800080E090E0A696CDBFDEBFDF91CF911F91A2
:101990000F91FF90EF90DF90CF90BF90AF900895A0
:1019A000AF92BF92CF92DF92EF92FF920F931F936D
:1019B000CF93DF93CDB7DEB7E697CDBFDEBF2FA3C2
:1019C00038A749A75AA76BA77CA78DA79EA7AFA644
:1019D000B8AAC9AADAAAEBAAFCAA0DAB1EAB0BE007
:1019E0009E01295F3F4FAE014D5F5F4FBE016F5FAC
:1019F0007F4FCE0187960E94CA019E01215F3F4F13
:101A0000AE014B5F5F4FBE016E5F7F4FCE018F9681
:101A10000E94CA010D811E810115110509F482C0C1
:101A2000EB80FC808FEFE81687E0F806F1F42F8159
:101A3000388549855A856B857C858D859E85A0E096
:101A40000E94213709F07AC00F3F174009F482C085
:101A500099818A8198138AC0D12CE12CF12C00E065
:101A600010E0B0E0F0EFEFE789C00F3F87E0180724
:101A700009F5DF84E888F9880A891B89BC89FD8912
:101A8000EE892D2D3E2D4F2D502F612F7B2F8F2F27
:101A90009E2FA0E00E94213709F470C0DD24DA9463
:101AA000EE24EA94FF24FA940FEF1FEFBFEFFFEF4D
:101AB000EFE764C0CE010F960E945A062F8F38A31D
:101AC00049A35AA36BA37CA38DA39EA340E0BE01B0
:101AD000615E7F4FCE0107960E940C052F8B388FD9
:101AE000498F5A8F6B8F7C8F8D8F9E8FA701401BE4
:101AF000510B41505C4F4B835C834A5051096981C3
:101B00008A8168279E01295E3F4FCE0187960E94F9
:101B10007202DFA0E8A4F9A40AA51BA5BCA5FDA537
:101B2000EEA52CC0DD24DA94EE24EA94FF24FA9486
:101B30000FEF1FEFBFEFFFEFEFE720C0DD24DA94D8
:101B4000EE24EA94FF24FA940FEF1FEFBFEFFFEFAC
:101B5000EFE714C0DD24DA94EE24EA94FF24FA942B
:101B60000FEF1FEFBFEFFFEFEFE708C0D12CE12C25
:101B7000F12C00E010E0B0E0F0EFEFEF2D2D3E2D66
:101B80004F2D502F612F7B2F8F2F9E2FE696CDBF8D
:101B9000DEBFDF91CF911F910F91FF90EF90DF900B
:101BA000CF90BF90AF9008952F923F924F925F9247
:101BB0006F927F928F929F92AF92BF92CF92DF925D
:101BC000EF92FF920F931F93CF93DF93CDB7DEB7C2
:101BD000AB97CDBFDEBF2F8B388F498F5A8F6B8F5E
:101BE0007C8F8D8F9E8FAF8EB8A2C9A2DAA2EBA296
:101BF000FCA20DA31EA300E09E01295F3F4FAE0192
:101C00004D5F5F4FBE016F5F7F4FCE0147960E94D1
:101C1000CA019E01215F3F4FAE014B5F5F4FBE0186
:101C20006E5F7F4FCE014F960E94CA018B809C80D1
:101C30002FEF821627E0920671F42F8138854985AF
:101C40005A856B857C858D859E85A0E00E94213715
:101C500009F4DCC09AC08D819E818F3F27E09207F6
:101C600009F0B8C02F85388949895A896B897C89E0
:101C70008D899E89A0E00E94213709F4A4C087C005
:101C800089819A81891709F484C0811184C081E017
:101C9000C4C08981811181C081E0BFC08A81811166
:101CA0007EC08FEFBAC081149104A1F4892B69F42E
:101CB0002F85388949895A896B897C898D899E89C4
:101CC000A0E00E94213709F46CC08A8181116BC0A9
:101CD0008FEFA3C0009739F0E9812A81E21303C096
:101CE000881599052CF4898181115FC081E095C028
:101CF0008816990624F4E1115AC08FEF8EC02F8008
:101D0000388449845A846B847C848D849E84BF8506
:101D1000A889F9898A898FA32B8928A78C8989A703
:101D20002D892AA78E898BA7222D332D442D552D41
:101D3000662D772D882D992DAB2EBA2ECF2EDFA0B4
:101D4000E8A4F9A40AA51BA50E94183791F10E94E6
:101D5000183721F018F0E11144C02DC0222D332D89
:101D6000442D552D662D772D882D992DAB2EBA2E0D
:101D7000CF2EDFA0E8A4F9A40AA51BA50E9418375E
:101D8000E0F4EE23E1F081E048C080E046C080E06E
:101D900044C080E042C08FEF40C08FEF3EC081E082
:101DA0003CC080E03AC081E038C08FEF36C081E0AF
:101DB00034C080E032C081E030C08FEF2EC08FEFA2
:101DC0002CC08FEF2AC02FEF821627E0920609F071
:101DD00065CF56CF2FEF821627E0920609F063CF2A
:101DE00058CF222D332D442D552D662D772D882D3E
:101DF000992DAB2EBA2ECF2EDFA0E8A4F9A40AA508
:101E00001BA50E941837E8F681E007C08D819E81EE
:101E10008F3F974009F03DCF25CFAB96CDBFDEBFBA
:101E2000DF91CF911F910F91FF90EF90DF90CF90B6
:101E3000BF90AF909F908F907F906F905F904F90EA
:101E40003F902F9008952F923F924F925F926F9202
:101E50007F928F929F92AF92BF92CF92DF92EF923A
:101E6000FF920F931F93CF93DF93CDB7DEB7ED971C
:101E7000CDBFDEBF2CA73DA74EA75FA768AB79AB50
:101E80008AAB9BABE9AECEAADFAA502E21E1201788
:101E900020F40F2EF1E15F2EF02D511002C05524D9
:101EA00053940BE09E012C5F3F4FAE014E5F5F4F9E
:101EB000BE016F5F7F4FCE018C960E94CA018A815E
:101EC0009B81009731F4E6E5F0E280E380831182A4
:101ED00014C38F3F37E0930751F52C813D814E812C
:101EE0005F81688579858A859B85A0E00E9421377E
:101EF00059F0E6E5F0E28EE491E6808391838EE48A
:101F000090E082839383F9C28981811102C08BE2C0
:101F100001C08DE280935620E7E5F0E289E49EE47B
:101F20008083918386E490E082839383E6C2AC0150
:101F30004F5F53404A835B832981222331F02DE296
:101F40002093562081E088AF01C018AE5523D4F00D
:101F50001A01220C331CCA01880F991F880F991F80
:101F6000880F991F280E391E9FE1290E311C3694C7
:101F7000279436942794369427943694279436944D
:101F8000279413C027EF24031001259F300C112440
:101F9000369427943694279436942794369427942D
:101FA00036942794319421943108EE27FF27E219C3
:101FB000F3090E2FDF2E1F2F110F110BC12E912EA3
:101FC000812E712E612E1C8A1D8A1E8A1F8A188EF0
:101FD000198E1A8E80EA8B8F1C861D861E861F86A0
:101FE000188A198A1A8A80E88B8B2E2F3F2F412F4F
:101FF000512F612F712F812F912FA0E00E94213747
:102000000CF064C20E94B336022FD32E142FC52EBB
:10201000962E872E782E692E0E94213709F46BC0E8
:102020004424439401C0412CA12CB12C0F2EF3E089
:10203000EF2EF12CF02D202F217030E040E050E009
:1020400060E070E080E090E0A0E00E942137E1F0E5
:10205000BE016C5E7F4FCE010C960E940C052C8752
:102060003D874E875F87688B798B8A8B9B8BCE01F0
:102070000C960E94540497012F5F3F4F281B310993
:1020800087FD3395A20EB31E40E0BE016C5E7F4F0C
:10209000CB010E940C052C8B3D8B4E8B5F8B688F88
:1020A000798F8A8F9B8FEE0CFF1CAFEFEA1AFA0A2A
:1020B000CE0144960E945404E81AF10887FDF39477
:1020C000202F3D2D412F5C2D692D782D872D962DAC
:1020D00001E00E94DC36022FD32E142FC52E962E3F
:1020E000872E782E692EA0E00E94213709F0A3CF19
:1020F0004420D1F002C0A12CB12CCE010C960E943C
:102100005A062C873D874E875F87688B798B8A8B31
:102110009B8BB194A194B108CE010C960E945404FB
:10212000A81AB10887FDB3948A819B81A80EB91EB5
:10213000AA82BB8240E0BE01645F7F4FCE0104965D
:102140000E940C052C833D834E835F8368877987CB
:102150008A879B87CE0104960E94540421E030E0D8
:10216000F901E81BF10987FDF395CF012A813B8135
:10217000820F931F8A839B83992394F50F2EF0EA95
:10218000FF2EF02D04E010E01CA21DA21EA21FA233
:1021900018A619A61AA6FBA640E0BE016C5D7F4FEB
:1021A000CE0104960E940C052C833D834E835F83F1
:1021B000688779878A879B87CE0104960E9454049A
:1021C0009801281B310987FD33958A819B81820FF5
:1021D000931F8A839B83F1E02F1A31089923A4F27D
:1021E0001CEC2AC01C8F1D8F1E8F1F8F18A319A3D4
:1021F0001AA31BA340E0BE01645E7F4FCE0104968C
:102200000E940C052C833D834E835F83688779870A
:102210008A879B87CE0104960E945404082E000CE6
:10222000990B03962A813B81A901481B590B4A83CC
:102230005B835FEF251A350AEA81FB81E430F10503
:102240008CF6E330F105A9F49B8520E030E040E016
:1022500050E060E070E080E0907F2F3F3F4F4F4FB5
:102260005F4F6F4F7F4F8F4F9F4911F008F0BACFEC
:102270003DC1B8ADBF5F8FEF850D552009F487C014
:102280001B2F0F2EFFE34F2E512CF02D6894AA2404
:10229000A2F8B12C8B0F99249394980E2AAE3BAEE2
:1022A000812F90E0FC01EA5AFF4D20E32083EA8170
:1022B000FB81ECAFFDAFFF23DCF13C806D807E80C5
:1022C0008F80E884F984BA85AB85FC01EA5AFF4D1A
:1022D000ECABFDAB6201ECADFDADCE1ADF0A232DF8
:1022E000362D472D582D6E2D7F2D8B2F9A2F0C2D8F
:1022F0000E94DE36205DECA9FDA92083ECADFDAD8A
:102300003196232D362D472D582D6E2D7F2D8B2F59
:102310009A2F0E2F0E94C3362C833D834E835F83FA
:10232000688779878A879B872FEF3FEF2A833B83D4
:102330001F5F1C8A1D8A1E8A1F8A188E198E1A8E8C
:1023400030EA3B8F40E0BE016C5E7F4FCE010496C9
:102350000E940C052C833D834E835F8368877987B9
:102360008A879B87CE0104960E945404A501481BCE
:10237000510987FD5395CA012A813B81820F931F22
:102380008A839B83B92D91128BCF2AAC3BACEA8117
:10239000FB81FF230CF45AC00FE310E00E1B1F0B50
:1023A0002C813D814E815F81688579858A859B85F9
:1023B0000E94DE36A4E00E94213709F008F446C0EE
:1023C0003FEF3B0F58AD5317F0F0232F3B2F26C0A4
:1023D000822F90E0FC01EA5AFF4D4081493369F4B5
:1023E000322F02C050E368ADFC01EA5AFF4D508322
:1023F0002FEF230F621760F311C0FC01EA5AFF4D63
:102400004F5F40830BC0832F90E0FC01EA5AFF4DE1
:102410004081493339F3232F3B2FEFCF88AD82130F
:1024200015C09FEF291A390AE32FF0E0EA5AFF4D51
:1024300081E380833F5F3B1748F480E3E32FF0E0C4
:10244000EA5AFF4D80833F5F3B13F8CFA8AD8A2F38
:1024500090E0FC013196AF014A5A5F4DFA012081AC
:102460008A5A9F4DFC0120838EE2FA018083F9ADE8
:10247000FF2331F0EB2FF0E0EA5AFF4D1082BF5FEF
:1024800031E03B0F8B2F90E08A5A9F4D25E4FC01F1
:1024900020831214130444F4BE5FE32FF0E0EA5AE1
:1024A000FF4D8BE2808301C0B32F6B2F70E06A5A1F
:1024B0007F4D4AE0C1010E9441382EA93FA9211554
:1024C0003105D9F0F9012082318217C02E2F3F2F1C
:1024D000412F512F612F712F812F912FA0E00E944A
:1024E000213709F0A0CDA12CB12C1ECEB8ADBF5F15
:1024F0008FEF850D5110C4CE4FCF86E590E2ED965B
:10250000CDBFDEBFDF91CF911F910F91FF90EF9074
:10251000DF90CF90BF90AF909F908F907F906F9003
:102520005F904F903F902F9008952F923F924F923F
:102530005F926F927F928F929F92AF92BF92CF9253
:10254000DF92EF92FF920F931F93CF93DF93CDB75C
:10255000DEB76597CDBFDEBFA22E732E642E552E3B
:10256000462E372EF82EB92E802EEA8AA0E00E9441
:10257000213724F499249A94900E01C0902E11E0F2
:10258000190D191554F504C091160CF063C003C061
:10259000812F192D982E9E012F5F3F4F6901EE2448
:1025A000E394092D2A2D372D462D552D642D732D9D
:1025B0008F2D9B2D0E94230FFC0120E030E040E096
:1025C00050E060E070E08F2D807F9B2D9F77A0E032
:1025D0000E94213709F478C188C02A2D372D462D55
:1025E000552D642D732D8F2D9B2D04E30E94DE3617
:1025F0002B8337703B87EFEFE80D2A2D372D462DC3
:10260000552D642D732D8F2D9B2D0FE30E94DE36EB
:1026100020FF02C08E2F01C0882D8D8B482F082EE1
:10262000000C550B488B598B0F2EF3E02F2EF02DFD
:102630005F2D507F5C879B2D9F779D87AA892A2FCE
:1026400030E0A901409550954E875F878B8B815074
:102650008C8B01C0912ECE0101966C01EE24E39487
:10266000092D2A2D372D462D552D642D732D8F2D97
:102670009B2D0E94230FFC012B813B8540E050E005
:1026800060E070E080E090E02F3FA7E03A0741056E
:102690005105610571058105910509F4ABC120E083
:1026A00030E08C859D85A0E00E94213709F4A2C10D
:1026B00089819A812E853F85821793070CF494C1F6
:1026C000992324F481501D89180F09C00196488967
:1026D00059898417950714F41C8901C01B892A9411
:1026E000222019F0191150CF192DA981BA815A89C8
:1026F000852F90E0919581959109A817B9070CF461
:10270000E3C0812F110F990BA817B9070CF0DCC09B
:102710002A2D372D462D552D642D732D8F2D9B2D54
:102720000FE30E94DE36622F617020FD3196BB23DD
:102730005CF01A161B060CF084C08281818388230A
:1027400009F457C081E074C0DF010D900020E9F763
:1027500011979D012E1B3F0B8FEF820F222321F13A
:10276000DF01A80FB11D9C91903311F03FC1892F5B
:102770001C929FEF980F8823B9F0DF01A90FB11DBC
:102780002C912033A1F333C1282F30E0DF01A20FB9
:10279000B31F9C9149815A81241B350BDF01A20F85
:1027A000B31F9C93815081F780E380838EE2818305
:1027B00089819A81019689839A8399230CF07FC03D
:1027C00022E030E3DF01A20FB11D3C9389819A81A1
:1027D000019689839A832F5F9923A4F370C0DF0148
:1027E000A80FB11D11969C9111979C93911120C037
:1027F00001C081E0282F30E049815A8142175307F8
:1028000084F070E391E0980FDF01A80FB11D7C9375
:10281000892F492F50E029813A812417350794F7F1
:1028200001C0982FDF01A90FB11D1C92892F43C051
:102830008F5F482F50E029813A81241735077CF6B5
:1028400001C081E0282F30E02F5F3F4F912C2815E9
:1028500039058CF5DF01A80FB11D9C91992359F121
:102860008EE28C93DF010D900020E9F711979D0116
:102870002E1B3F0B8FEF820F2223A9F0DF01A80F41
:10288000B11D9C91903379F48EEF820F01C0822F9D
:102890001C928F3F41F0DF01A80FB11D2FEF280FD1
:1028A0009C919033A1F3DF01A80FB11D8C918E3262
:1028B00031F41C9204C0DF01A80FB11D1C926623E5
:1028C00009F498C0319796C02A2D372D462D552DE5
:1028D000642D732D8F2D9B2D0FE30E94DE36822FEA
:1028E0008170282E20FD03C01CEF180D02C01BEFC5
:1028F000180D2A2D372D462D552D642D732D8F2D16
:102900009B2D04E30E94DE362B833C834D835E8344
:102910006F83788789879A878B819C819770898359
:102920009A838F3FA3E09A070CF411508D5D93407A
:102930008534910508F0115011110CC011E00AC046
:10294000115049F48281882361F18F7D8534E9F447
:1029500092E028C0912CC12CD12CE12C012F2A2DE2
:10296000372D462D552D642D732D8F2D9B2D0E94B7
:10297000230FFC01DC010D900020E9F71197A81B43
:10298000B90B8A169B06E0F2DDCF92E09F5FDF0174
:10299000A90FB11D8C91882329F08F7D8534B1F763
:1029A00001C092E0892F8150843020F421100AC0A8
:1029B000833050F0DF01A80FB11D2C91203399F323
:1029C000282F03C0282F01C0282F981B892F820F82
:1029D0002F5FDF01A80FB11D8C91DF01A20FB11D88
:1029E0008C938111F3CF06C0192D7FCE822F908159
:1029F0009183CACECF016596CDBFDEBFDF91CF9167
:102A00001F910F91FF90EF90DF90CF90BF90AF900C
:102A10009F908F907F906F905F904F903F902F90FE
:102A20000895E0EAF6E080E1828380E2828380E438
:102A3000828380E8828308958091A80684FD0EC079
:102A40008091DC209091DD2080362AEE9207E8F418
:102A500001968093DC209093DD2017C08091DC20CC
:102A60009091DD208B30910548F0C39718F01092BB
:102A7000662D07C081E08093662D03C082E08093BD
:102A8000662D1092DC201092DD208091A80685FD35
:102A90000EC08091DA209091DB2080362AEE9207DA
:102AA000E8F401968093DA209093DB2017C08091A0
:102AB000DA209091DB208B30910548F0C39718F015
:102AC0001092672D07C081E08093672D03C082E0DC
:102AD0008093672D1092DA201092DB208091A80657
:102AE00086FD0EC08091D8209091D92080362AEEA4
:102AF0009207E8F401968093D8209093D92017C0CC
:102B00008091D8209091D9208B30910548F0C397BF
:102B100018F01092682D07C081E08093682D03C0E3
:102B200082E08093682D1092D8201092D920809155
:102B3000A806882374F08091D6209091D720803603
:102B40002AEE9207E8F401968093D6209093D7203E
:102B500008958091D6209091D7208B30910548F030
:102B6000C39718F01092692D07C081E08093692DFA
:102B700003C082E08093692D1092D6201092D72056
:102B80000895813049F028F0823049F0833051F0C7
:102B90000CC08091662D08958091672D08958091D5
:102BA000682D08958091692D089582E008950F930E
:102BB000CF93DF931F92CDB7DEB72FB72983F89459
:102BC0001BBEFC0108ED04BF608389818FBF0F909D
:102BD000DF91CF910F910895611102C090E001C083
:102BE00090E2842B892B8093520008956F71862B7D
:102BF000809355000895E0E5F0E09081282F20951E
:102C000092239083908189230895682B81E490E03A
:102C10000E94D71508950F931F93CF93C82F00E4F8
:102C200010E0F8016081687F682B80E490E00E94EA
:102C3000D715F80180818C23CF911F910F910895B2
:102C4000FC019081907F692B60830895FC01918144
:102C5000987F692B61830895FC0196819C7F692B85
:102C600066830895000088ED84BF81E08093790039
:102C700008950E9432160895CF93DF9380E190E08B
:102C80000E94D917EC01009741F0FC0111921192BA
:102C900011921192CF010E940018CE01DF91CF91C5
:102CA00008952F923F924F925F926F927F928F92F0
:102CB0009F92AF92BF92CF92DF92EF92FF920F93CB
:102CC0001F93CF93DF93EC014A015B01622E702EBC
:102CD0000E944D1F288039804A805B8001110DC001
:102CE00081E0B201A101482159216A217B21452BB4
:102CF000462B472B79F480E00DC081E0B201A101A1
:102D0000482159216A217B21481559056A057B050F
:102D100009F080E0882381F0662009F470C0809477
:102D20009094A094B09482209320A420B52088820F
:102D30009982AA82BB8263C0C114D104E104F10468
:102D400009F45DC0662029F040E050E060E071E0E9
:102D500003C040E050E0BA0171107460482959295D
:102D60006A297B2997018601CE0104960E947C2165
:102D70000E943820811102C00E945E190E94B9226F
:102D800091FD39C0F091A200FF93F87FF093A2006B
:102D9000688179818A819B8171100DC021E0750164
:102DA0006401C622D722E822F922CD28CE28CF28D6
:102DB00079F420E00DC021E075016401C622D7221C
:102DC000E822F922C814D904EA04FB0409F020E03F
:102DD000222371F0662061F080949094A094B094C6
:102DE00086229722A822B92288829982AA82BB824F
:102DF000FF91F093A2001B012C01552402C00E94F8
:102E00003820C201B101DF91CF911F910F91FF9046
:102E1000EF90DF90CF90BF90AF909F908F907F907A
:102E20006F905F904F903F902F9008950F931F9356
:102E3000F091A200FF93F87FF093A200FC010081C3
:102E40001181228133814095509560957095402382
:102E50005123622373234083518362837383FF91E1
:102E6000F093A200C901B8011F910F9108954F92EC
:102E70005F926F927F92AF92BF92CF92DF92EF926A
:102E8000FF920F931F93CF93DF93EC016A017B01B5
:102E90008C01095F1F4F0E944D1FEB85FC858881C7
:102EA0009981AA81BB81C82AD92AEA2AFB2AC88229
:102EB000D982EA82FB820E171F0709F442C0C12C97
:102EC000D12C7601A480B58080819181A281B381CB
:102ED000AC01BD017727B2FD0FC0488059806A80E0
:102EE0007B80442255226622772221E0452846280D
:102EF000472889F420E00FC0488059806A807B8091
:102F0000442255226622772221E0441655066606A1
:102F1000770609F020E0222371F0B0FF04C0C42A34
:102F2000D52AE62AF72A488159816A817B81726015
:102F3000CF010E940422EA2DFB2D0E171F0711F668
:102F400003C0C12CD12C7601C094D094E094F094AD
:102F500088819981AA81BB81C822D922EA22FB22D9
:102F6000C882D982EA82FB820E94382068817981F6
:102F70008A819B81DF91CF911F910F91FF90EF90FC
:102F8000DF90CF90BF90AF907F906F905F904F9009
:102F900008950E94371708950F931F9389019A018E
:102FA000AB01BC0189EC97E10E9499251F910F911B
:102FB0000895CF93DF93EC010E944D1F2091DE20F6
:102FC0003091DF20C9018C0F9D1F883B4BE0940797
:102FD00058F42817390758F4E901C052DF4D80939F
:102FE000DE209093DF2005C0C0E0D0E002C0C0E04A
:102FF000D0E00E943820CE01DF91CF91089508954E
:10300000FC010396818392834FEF5FEFBA01438304
:103010005483658376838783908781879287108224
:103020000895FC01128613860895CF93DF939C01C7
:10303000FB01DC011196CD91DC911297C483D583FD
:103040008E819F81868397838E819F81DC01149678
:103050006D937C9315976E837F8322873387F90165
:1030600080818F5F8083DF91CF9108950F931F93AD
:10307000CF93DF93EB01088119812A813B810F3FB8
:103080004FEF14072407340721F4FC01A185B28512
:1030900011C0DC01139601C0DF011496ED91FC9183
:1030A00015974081518162817381041715072607A6
:1030B000370790F71496ED91FC911597EC83FD83FB
:1030C000C683D783AE83BF831496CD93DC931597C5
:1030D0008A879B87FC0120812F5F2083DF91CF911E
:1030E0001F910F910895CF93DF93FC01A285B385C3
:1030F000C481D581868197818E839F83C681D78144
:10310000848195818C839D8311968D919C911297DA
:10311000E817F90731F48681978111968D939C9376
:103120001297128613868C9181508C938C91DF912B
:10313000CF910895E0EAF0E082819281987F9283B6
:103140000895CF92DF92EF92FF9231E1FC0130833C
:10315000319722E220833197A3E3A0836B01E12C16
:10316000F12C319760833197D0823197E08231978B
:1031700061E36083319760E86083319767E860833B
:103180003197108231971082319762E060833197D6
:1031900063E06083319764E06083319765E060832A
:1031A000319766E06083319767E06083319768E02C
:1031B0006083319769E06083319760E16083319784
:1031C0003083319732E13083319733E13083319767
:1031D00034E13083319735E13083319736E1308304
:1031E000319737E13083319738E13083319739E1D6
:1031F0003083319730E23083319731E23083319739
:103200002083319723E220836A01319740833197ED
:10321000D082319726E22083319727E220833197AD
:1032200028E22083319729E22083319720E320830D
:103230008897FF90EF90DF90CF90089583EF91E013
:10324000809326089093270865E080E098E00E942C
:10325000201661E080E098E00E942C16A091062DD7
:10326000B091072D0D900DBE0D900EBEEF91DF9128
:10327000CF91BF91AF919F918F917F916F915F910E
:103280004F913F912F911F910F91FF90EF90DF9001
:10329000CF90BF90AF909F908F907F906F905F90F6
:1032A0004F903F902F901F900F90FF91F093A200AE
:1032B000FF91FFBFFF91089581E00895FF93FFB74D
:1032C000FF93F091A200FF93F87FF093A2000F927A
:1032D0001F9211242F923F924F925F926F927F9292
:1032E0008F929F92AF92BF92CF92DF92EF92FF9216
:1032F0000F931F932F933F934F935F936F937F93FE
:103300008F939F93AF93BF93CF93DF93EF93A0914E
:10331000062DB091072D0DB60D920EB60D920E949E
:10332000D620A091062DB091072D0D900DBE0D90C9
:103330000EBEEF91DF91CF91BF91AF919F918F9191
:103340007F916F915F914F913F912F911F910F91BD
:10335000FF90EF90DF90CF90BF90AF909F908F90B5
:103360007F906F905F904F903F902F901F900F90A5
:10337000FF91F093A200FF91FFBFFF910895CF93BB
:1033800090916A2D892B80936A2D9091A0009130A5
:1033900041F09091A000923021F09091A0009430E3
:1033A00059F4882349F00E949A18C82F10926A2D68
:1033B0000E94D620C093A200CF910895FF93FFB73B
:1033C000FF93F091A200FF93F87FF093A2000F9279
:1033D0001F9211242F923F924F925F926F927F9291
:1033E0008F929F92AF92BF92CF92DF92EF92FF9215
:1033F0000F931F932F933F934F935F936F937F93FD
:103400008F939F93AF93BF93CF93DF93EF93A0914D
:10341000062DB091072D0DB60D920EB60D920E949D
:103420009A18C82F0E94651FC093A20081E00E94D5
:10343000BF19A091062DB091072D0D900DBE0D90D6
:103440000EBEEF91DF91CF91BF91AF919F918F9180
:103450007F916F915F914F913F912F911F910F91AC
:10346000FF90EF90DF90CF90BF90AF909F908F90A4
:103470007F906F905F904F903F902F901F900F9094
:10348000FF91F093A200FF91FFBFFF911895F0917B
:10349000A200FF93F87FF093A200FC01968DFF91AC
:1034A000F093A20081E0911180E00895DC01F09199
:1034B000A200FF93F87FF093A2005E969C915E9726
:1034C000FF91F093A20081E05F962C91291380E098
:1034D00008950F931F93CF93DF93EC01042F1E8D5C
:1034E00048A14423B9F1011116C050E08C819D819F
:1034F0000E941F3828A18C819D81820F911D8C8391
:103500009D832A813B818217930720F188819981CD
:103510008C839D831FC050E08E819F810E941F3845
:1035200088A190E09195819591092E813F81280F86
:10353000391F2E833F83488159812417350730F482
:103540002A813B81820F931F8E839F83023011F467
:10355000111111501F5F1E8F80E0DF91CF911F91DD
:103560000F910895FC0140A14423A9F050E0268169
:103570003781240F351F2683378382819381281753
:10358000390720F08081918186839783CB01668102
:1035900077810E941F380895EF92FF920F931F9337
:1035A000CF938C01F091A200FF93F87FF093A200DB
:1035B000FC01C2A11C16ACF48389811106C011C0A4
:1035C000F8018389811105C00CC07801F3E1EF0E89
:1035D000F11CC7010E94C22181110E94A722C15083
:1035E00079F78FEFF80182A3FF91F093A200F09199
:1035F000A200FF93F87FF093A200F801C1A11C166E
:10360000ACF48085811106C011C0F801808581115C
:1036100005C00CC07801F8E0EF0EF11CC7010E9454
:10362000C22181110E94A722C15079F78FEFF801C2
:1036300081A3FF91F093A200CF911F910F91FF9072
:10364000EF900895CF93DF93EC01F091A200FF93E8
:10365000F87FF093A2004881598128A130E07F8D46
:10366000729FC001739F900D1124FA01E80FF91F9A
:10367000EA83FB831E8E4C835D83821B930B840F36
:10368000951F8E839F838FEF89A38AA361110CC03E
:103690008885882389F0CE0108960E94C22188235C
:1036A00059F00E945E1908C0CE0108960E940018C9
:1036B000CE0143960E940018FF91F093A20081E092
:1036C000DF91CF910895FF920F931F93CF93DF93D4
:1036D000082F162FF42E6623C9F0869FC0011124EF
:1036E00085960E94D917EC01009749F416C00F8FF8
:1036F00018A361E0CE010E94221BFCA20EC0859699
:1037000088839983F4CFC883D983F1CF85E290E091
:103710000E94D917EC01892BB1F7CE01DF91CF912F
:103720001F910F91FF900895AF92BF92CF92DF92B9
:10373000EF92FF920F931F93CF93DF93CDB7DEB736
:103740002997CDBFDEBF7C015B012E833F83488775
:10375000598710E06C0188E0C80ED11CF091A200DE
:10376000FF93F87FF093A200F701968D878D98174D
:1037700010F00230D1F4402FB501C7010E94691A40
:10378000F7019389992349F0C70143960E94C2210A
:10379000882331F00E945E1903C081110E945E19D6
:1037A000FF91F093A20081E057C08E819F81A88590
:1037B000B985892B8A2B8B2B29F4FF91F093A200DA
:1037C00080E04AC0111105C0CE0101960E94382246
:1037D00011E0FF91F093A2000E944D1FF091A20012
:1037E000FF93F87FF093A200F70181A18F3F09F4C6
:1037F00011A2F70182A18F3F09F412A2FF91F09369
:10380000A200BE016A5F7F4FCE0101960E9449224D
:1038100081111CC0C7010E94561A882389F04E816D
:103820005F8168857985C6010E946421C7010E9475
:10383000CC1A0E943820811191CF0E945E198ECF40
:10384000C7010E94CC1A0E94382088CFC7010E946D
:10385000CC1A0E94382080E02996CDBFDEBFDF91D0
:10386000CF911F910F91FF90EF90DF90CF90BF907D
:10387000AF900895AF92BF92CF92DF92FF920F93D5
:103880001F93CF93DF93EC016B015A01022F0E942B
:103890009A18F82E9E8D8F8D981710F00230E1F453
:1038A0001AA1402FB601CE010E94691A1F3F81F470
:1038B0008B89882399F0CE0143960E94C2218823E8
:1038C00079F0A114B10471F081E0F50180830BC09F
:1038D0001F5F1AA381E007C080E005C081E003C03C
:1038E00081E001C081E0F092A200DF91CF911F91B1
:1038F0000F91FF90DF90CF90BF90AF900895AF925F
:10390000BF92CF92DF92EF92FF920F931F93CF93CC
:10391000DF93CDB7DEB72997CDBFDEBF8C015B014A
:103920002E833F8348875987E12C6C0183E1C80EC1
:10393000D11CF091A200FF93F87FF093A200F80150
:10394000F68CFF20B1F0B501C8010E94B21AFA94BA
:10395000F801F68E8085882339F0C80108960E9408
:10396000C22181110E945E19FF91F093A20081E0B3
:103970005EC08E819F81A885B985892B8A2B8B2B70
:1039800029F4FF91F093A20080E051C0E11006C03D
:10399000CE0101960E943822EE24E394FF91F09329
:1039A000A2000E944D1FF091A200FF93F87FF093B8
:1039B000A200F80181A18F3F09F411A2F80182A1B0
:1039C0008F3F09F412A2FF91F093A200BE016A5F3B
:1039D0007F4FCE0101960E94492281111CC0C8016F
:1039E0000E94471A882389F04E815F816885798516
:1039F000C6010E946421C8010E94CC1A0E9438208E
:103A0000811197CF0E945E1994CFC8010E94CC1AF1
:103A10000E9438208ECFC8010E94CC1A0E94382004
:103A2000C8010E94471A882309F483CF80E02996B1
:103A3000CDBFDEBFDF91CF911F910F91FF90EF902F
:103A4000DF90CF90BF90AF900895F091A200FF93C8
:103A5000F87FF093A200FC01868DFF91F093A20005
:103A60000895CF93DF93EC01F091A200FF93F87FCC
:103A7000F093A20089A18F3F09F419A28AA18F3F78
:103A800009F41AA2FF91F093A2008E8D811104C057
:103A9000CE0143960E94A121CE010E94CC1ADF9153
:103AA000CF910895E091C22CF091C32C80818111B7
:103AB0000CC08FEF9FEFDC0180939B2C90939C2C8C
:103AC000A0939D2CB0939E2C0895E091C22CF09170
:103AD000C32C0780F085E02D0084F185E02D8281E4
:103AE0009381A481B58180939B2C90939C2CA0936F
:103AF0009D2CB0939E2C08958F929F92AF92BF926F
:103B0000CF92DF92EF92FF92CF936B017C01C42F93
:103B10008090A52C9090A62CA090A72CB090A82CBB
:103B20008091062D9091072D02960E9473188FEFB9
:103B3000C816D806E806F80669F4CC2359F0609157
:103B4000062D7091072D6E5F7F4F8AEA9CE20E94DE
:103B500015183FC0C80CD91CEA1CFB1CE091062DAF
:103B6000F091072DC282D382E482F582C814D90471
:103B7000EA04FB0468F46091062D7091072D809192
:103B8000C02C9091C12C6E5F7F4F0E94361821C0CF
:103B90006091062D7091072D8091C22C9091C32CBD
:103BA0006E5F7F4F0E94361880919B2C90919C2CC9
:103BB000A0919D2CB0919E2CC816D906EA06FB0652
:103BC00040F4C0929B2CD0929C2CE0929D2CF092C1
:103BD0009E2CCF91FF90EF90DF90CF90BF90AF9051
:103BE0009F908F900895CAEDDCE28881823010F0BA
:103BF0000E945E190E94BD29F8CF4F925F926F928A
:103C00007F928F929F92AF92BF92CF92DF92EF926C
:103C1000FF920F93CF93DF934C016B015A0129015F
:103C2000CA010E94D9173C01892B09F4EAC08CE231
:103C300090E00E94D917EC01892BB1F06B8E7C8E3D
:103C4000A50165EA70E0C3010E94283821E0A21AAC
:103C5000B1088B8D9C8DA80EB91ED6018C918D8FCD
:103C60008C91811105C018C0C3010E94FF17C9C003
:103C7000AE01425E5F4FF6013196B8E0CB0ED11C2B
:103C8000CF012191DA012D93AD01DC018C918823C4
:103C900019F0EC15FD05A1F71CA2043008F003E0B3
:103CA0000A8F6E01B2E0CB0ED11CC6010E94111822
:103CB000CE010E960E941118CA87DB8784E090E03F
:103CC000A0E0B0E0801B9109A109B1098E879F8710
:103CD000A88BB98BCE8BDF8B1FA218A619A61AA6AC
:103CE0001BA6A201B401C5010E94A1188883998373
:103CF000E114F10419F0F701C083D183F091A2001F
:103D0000FF93F87FF093A2008091A92C8F5F80939E
:103D1000A92C8091062D9091072D892BA9F5C09390
:103D2000062DD093072D8091A92C8130E9F58AEDDD
:103D30009CE20E94001885EE9CE20E94001880EF31
:103D40009CE20E9400188BEF9CE20E9400188FEC0E
:103D50009CE20E94001884EC9CE20E94001885EB13
:103D60009CE20E9400188AEA9CE20E9400188FECF4
:103D70009CE28093C22C9093C32C84EC9CE28093B1
:103D8000C02C9093C12C10C08091A32C81110CC029
:103D9000E091062DF091072D928D8A8D891720F0E4
:103DA000C093062DD093072D80919F2C8F5F809319
:103DB0009F2C8DA38A8D9091A42C981710F480933A
:103DC000A42CFBE08F9FC0011124B6018652934DB5
:103DD0000E941518FF91F093A2008091A32C8823D4
:103DE00061F0E091062DF091072D928D8A8D981744
:103DF00030F40E945E1981E005C081E003C081E0DB
:103E000001C08FEFDF91CF910F91FF90EF90DF9086
:103E1000CF90BF90AF909F908F907F906F905F906A
:103E20004F900895EF92FF920F930F2EF9E9EF2E26
:103E3000FCE2FF2EF02D00E020E030E048EC50E006
:103E400060E070E283EF9DE10E94FD1D813009F585
:103E50000E9457238130E9F4E0EAF0E08281887F14
:103E600082838FEF9FEFDC0180939B2C90939C2C9F
:103E7000A0939D2CB0939E2C81E08093A32C109254
:103E8000A52C1092A62C1092A72C1092A82C0E9460
:103E90001E190F91FF90EF9008958091982C8F5FDD
:103EA0008093982C0895F091A200FF93F87FF093EF
:103EB000A2006091A52C7091A62C8091A72C9091C6
:103EC000A82CFF91F093A2000895AF92BF92CF92D9
:103ED000DF92EF92FF920F931F93CF93DF93809126
:103EE000982C8111ADC0C090A52CD090A62CE0904C
:103EF000A72CF090A82C8FEFC81AD80AE80AF80A65
:103F0000C092A52CD092A62CE092A72CF092A82CBF
:103F1000C114D104E104F104B9F48091C22C909150
:103F2000C32C2091C02C3091C12C2093C22C3093F3
:103F3000C32C8093C02C9093C12C8091A02C8F5FB8
:103F40008093A02C0E94521D80919B2C90919C2CC0
:103F5000A0919D2CB0919E2CC816D906EA06FB06AE
:103F600010F4B12C5CC0B12C0F2EFBE0AF2EF02D65
:103F7000E091C22CF091C32C808181110CC08FEF95
:103F80009FEFDC0180939B2C90939C2CA0939D2C05
:103F9000B0939E2C44C0E091C22CF091C32C0780BA
:103FA000F085E02DC085D1858A819B81AC81BD8162
:103FB000C816D906EA06FB0648F480939B2C90931A
:103FC0009C2CA0939D2CB0939E2C29C08E010E5F3B
:103FD0001F4FC8010E947318888D998D892B21F07D
:103FE000CE010E960E9473188A8D9091A42C98177A
:103FF00010F48093A42CA89EC0011124B80186520D
:10400000934D0E941518E091062DF091072D9A8D81
:10401000828D981708F4ACCFBB24B394A9CFE0915C
:10402000062DF091072DE28D8BE0E89FF001112421
:10403000E652F34D8081823048F0BB24B39406C031
:104040008091A22C8F5F8093A22CB12C8091A12C07
:10405000882311F0BB24B3948B2DDF91CF911F9156
:104060000F91FF90EF90DF90CF90BF90AF900895A9
:10407000CF92DF92EF92FF920F931F93CF93DF9334
:10408000F091A200FF93F87FF093A2008091982C0A
:1040900081508093982C8091982C81115CC08091E4
:1040A000A92C81112CC05AC0D7011796ED91FC9113
:1040B0001897C085D185CE010E960E9473188E0187
:1040C0000E5F1F4FC8010E9473188A8D9091A42C17
:1040D000981710F48093A42CD89EC0011124B80125
:1040E0008652934D0E941518E091062DF091072DF0
:1040F0009A8D828D981788F0C092A12C0EC0C0E0D6
:10410000D0E00F2EF5EBEF2EFCE2FF2EF02D0F2E60
:10411000FBE0DF2EF02DCC24C394F70180818111C8
:10412000C3CFCD2B11F00E94521DC091A22CCC23E5
:1041300051F0D1E00E94651F8111D093A12CC15094
:10414000C9F71092A22C8091A12C882331F00E94F3
:104150005E1981E003C080E001C080E0FF91F09330
:10416000A200DF91CF911F910F91FF90EF90DF9010
:10417000CF900895CF92DF92EF92FF926B017C0176
:10418000672B682B692B59F00E944D1F40E0C70137
:10419000B6010E947C1D0E943820811102C00E943D
:1041A0005E19FF90EF90DF90CF9008958091982C4A
:1041B000882321F081E08093A12C08951092A12CF6
:1041C000E091062DF091072D038CF48DE02D808178
:1041D0009181A281B381853A954AA54AB54AD9F41D
:1041E00084819581A681B781853A954AA54AB54AC9
:1041F00091F480859185A285B385853A954AA54A33
:10420000B54A49F484859585A685B785853A954A4A
:10421000A54AB54A61F06091062D7091072D8091F5
:10422000062D9091072D635E7F4F0E943916809175
:10423000A42C282F30E09BE0899FF0011124E65246
:10424000F34D908191110EC04BE08150282F30E04A
:10425000429FF001439FF00D1124E652F34D9081EF
:10426000992399F39BE0929FA001939F500D1124F5
:10427000DA01A652B34D1196ED91FC91129704808C
:10428000F581E02D1196ED93FC9312974352534D17
:10429000E417F50729F444815581FD0141835283D8
:1042A0009BE0929FF001939FF00D1124E652F34D95
:1042B0000180F281E02D208531852093062D3093F9
:1042C000072D8093A42C0895CF92DF92EF92FF9256
:1042D0006A017B016091062D7091072D625F7F4F0F
:1042E0000E94361841E0C701B6010E947C1DFF9074
:1042F000EF90DF90CF900895CF92DF92EF92FF92F0
:104300000F931F9368017901E091062DF091072D1D
:10431000706846875787608B718B6091062D70910E
:10432000072D625F7F4F0E94151841E0C701B6015B
:104330000E947C1D1F910F91FF90EF90DF90CF9016
:104340000895CF92DF92EF92FF92CF936A017B01A3
:10435000C22F6091062D7091072D625F7F4F0E94E2
:104360001518CC2321F0CC24CA94DC2C76014C2FD8
:10437000C701B6010E947C1DCF91FF90EF90DF90A6
:10438000CF9008950F931F93CF93DF93DC0117967F
:10439000ED91FC911897C085D1858E01025F1F4F6A
:1043A000C8010E9473188091982C811116C00C507E
:1043B0001109C8010E9473188A8D9091A42C981736
:1043C00010F48093A42CBBE08B9FC0011124B80192
:1043D0008652934D0E94151805C0B80185EB9CE2EA
:1043E0000E941518E091062DF091072D9A8D828D6F
:1043F000891720F481E08093A12C01C080E0DF9137
:10440000CF911F910F9108950F931F93CF93DF9337
:104410007068FC014083518362837383C085D185BA
:104420000E9473188E010E5F1F4FC8010E947318FF
:104430008A8D9091A42C981710F48093A42CFBE003
:104440008F9FC0011124B8018652934D0E94151808
:10445000E091062DF091072D9A8D828D891718F421
:1044600081E08093A12CDF91CF911F910F9108954E
:104470002091A02CFC0120834091A52C5091A62CCA
:104480006091A72C7091A82C41835283638374831D
:104490000895CF92DF92EF92FF920F931F93CF93E5
:1044A000DF93DB01F091A200FF93F87FF093A2006D
:1044B0004091A52C5091A62C6091A72C7091A82C0E
:1044C0000D911D912D913C9113970F3FCFEF1C073C
:1044D0002C073C0769F1FC01C180D280E380F480A5
:1044E000E091A02CEC01F881FE1729F04C155D0538
:1044F0006E057F05F8F44C195D096E097F094017B8
:1045000051076207730768F4FD01041B150B260BA6
:10451000370B00831183228333830E94382280E08B
:104520000AC01D921D921D921C92139781E003C038
:1045300080E001C081E0FF91F093A200DF91CF9174
:104540001F910F91FF90EF90DF90CF90089581E041
:104550008093A12C08958091A32C882331F0809121
:10456000982C882321F080E0089581E0089582E06E
:104570000895CF92DF92EF92FF92E091062DF09195
:10458000072D6685778580899189E091062DF091C8
:10459000072DA091062DB091072D5A962C91C12C74
:1045A000D12C76016894C2F8C21AD108E108F1084A
:1045B000C686D786E08AF18AFF90EF90DF90CF9091
:1045C0000895CF92DF92EF92FF920F931F93FC0119
:1045D0004283538364837583828793870417150707
:1045E00026073707C0F00C191D092E093F098685DB
:1045F0009785A089B189081719072A073B0700F595
:10460000BF016E5F7F4F8091102D9091112D0E9400
:10461000361880E018C00C151D052E053F0528F43E
:104620004C155D056E057F0568F4BF016E5F7F4F19
:104630008091122D9091132D0E94361880E003C0B6
:1046400081E001C081E01F910F91FF90EF90DF901A
:10465000CF900895F091A200FF93F87FF093A2000D
:1046600080910E2D90910F2D892BE9F48FE19DE221
:104670000E94001884E19DE20E9400188FE19DE2F3
:104680008093122D9093132D84E19DE28093102D41
:104690009093112D40E069E085E00E94631B8093B8
:1046A0000E2D90930F2DFF91F093A2000895EF929D
:1046B000FF920F930E942A2380910E2D90910F2D2F
:1046C000892B91F00F2EFCE0EF2EFDE2FF2EF02D56
:1046D00003E020E030E048EC50E065E070E28AE67C
:1046E00094E20E94FD1D01C080E00F91FF90EF90C9
:1046F00008958F929F92AF92BF92CF92DF92EF92E6
:10470000FF920F931F93CF93DF93CDB7DEB7299717
:10471000CDBFDEBFE0910E2DF0910F2D309789F1C6
:1047200069832A833B834C835D838E839F836630BA
:10473000FCF40E94AB22823069F400E0A7019601EC
:10474000BE016F5F7F4F80910E2D90910F2D0E94C3
:10475000941B18C000E020E030E0A901BE016F5FAB
:104760007F4F80910E2D90910F2D0E94941B0AC0B7
:1047700020E0A801BE016F5F7F4FCF010E943A1C6D
:1047800001C080E02996CDBFDEBFDF91CF911F91A0
:104790000F91FF90EF90DF90CF90BF90AF909F90E0
:1047A0008F9008952F923F924F925F926F927F92D7
:1047B0008F929F92AF92BF92CF92DF92EF92FF9231
:1047C0000F931F93CF93DF931C010E94531F2B0164
:1047D0003C018091082D9091092DA0910A2DB09156
:1047E0000B2D481659066A067B0608F054C03CC0DB
:1047F0000780F085E02D80809180A280B380C08505
:10480000D1858E010E5F1F4FC8010E947318ED897C
:10481000FE89CE0119958A89813031F58E859F8573
:10482000A889B989880D991DAA1DBB1D88169906EE
:10483000AA06BB0670F48A839B83AC83BD83CA87B8
:10484000DB87B8018091122D9091132D0E943618AC
:104850000BC0C12CD12C760100E010E0A501940121
:1048600060E0CE010E947923E091122DF091132D8A
:1048700080818111BDCF8091102D9091112D809359
:10488000122D9093132DE093102DF093112D81E0B4
:10489000F101808302C0F10110824092082D5092F4
:1048A000092D60920A2D70920B2DC301B201DF9188
:1048B000CF911F910F91FF90EF90DF90CF90BF901D
:1048C000AF909F908F907F906F905F904F903F90B0
:1048D0002F900895CF93DF93CDB7DEB72E97CDBF3E
:1048E000DEBFCE0101961C01A82EB32CE091122D43
:1048F000F091132D8081882309F403C10780F0858E
:10490000E02D40805180628073800E944D1FC10164
:104910000E94D2236B877C878D879E878981811136
:104920005EC08B859C85AD85BE8584159505A605E5
:10493000B705E8F10E943820E091122DF091132D77
:104940000780F085E02D80849184C40102960E9446
:104950007318D40152968C915297813001F51E96AE
:104960004D915D916D917C915197440D551D661D42
:10497000771D730162010B851C852D853E85C40161
:104980000E94E122882359F0C12CD12C760100E04D
:1049900010E0A301920160E0C4010E947923D401D8
:1049A0005596ED91FC915697C40119959CC020E055
:1049B000B301A2018B859C85AD85BE85481B590B33
:1049C0006A0B7B0B80910E2D90910F2D0E94311D53
:1049D0000E943820811187C00E945E1984C00E9405
:1049E000382081C0898188236CF44E815F8168857D
:1049F0007985EA81FB818C819D8119958981882344
:104A00000CF471C08E809F80D4011C968D919C9176
:104A10001D97892B21F0C40102960E947318CE01C4
:104A20000A960E94D2238B019C018981082E000CDA
:104A3000990BAA0BBB0B8A30910508F054C0FC01FE
:104A40008827E250FF4F8F4F0C945236CA80DB808C
:104A5000EC80FD80F40146855785608971894C0D95
:104A60005D1D6E1D7F1DC4010E94E1228823D9F1C6
:104A7000D4015596ED91FC915697C4011995F40116
:104A80008289813081F54A815B816C817D81868557
:104A90009785A089B1899A01AB01280F391F4A1F58
:104AA0005B1FC12CD12C760100E010E060E0C40156
:104AB0000E94792318C04A815B816C817D81D40179
:104AC0001E964D935D936D937C935197400F511FAC
:104AD000621F731F68017901C4010E94E12203C0B3
:104AE000C4010E94FF1720E030E0A9016A2D7B2D50
:104AF00080910E2D90910F2D0E947F1C811172CFFD
:104B0000F5CE0E944D1FC1010E94D2236B877C8786
:104B10008D879E878981811162CFE091102DF09160
:104B2000112D808121E0811120E0412C512C320196
:104B30003FCF0F931F93CF93DF93CDB7DEB7299766
:104B4000CDBFDEBFEEEFE9838A839B836C837D83D9
:104B50002E833F834887598720E0A801BE016F5FFD
:104B60007F4F80910E2D90910F2D0E943A1C299617
:104B7000CDBFDEBFDF91CF911F910F910895E0E58A
:104B8000F0E0808181608083818180FFFDCF80E0C3
:104B90000E940B168EE10E94FB1560E080E00E94EF
:104BA000051643E060E080E40E94EC15E0E5F0E0EB
:104BB000808188608083818183FFFDCF64E080EC09
:104BC0000E94F615E0E5F0E080818061808360E07E
:104BD00080E00E940516E0E5F0E0818184FFFDCFD2
:104BE00084E00E940B1687E00E94FB150895CF9386
:104BF000DF93CDB7DEB76297CDBFDEBF64EE7FE057
:104C000089E490E40E94360A422E532E642E752EBB
:104C1000862E972E8A8B998B60E070E0CB010E94E4
:104C2000360A222E39834A835B836C837D838E838D
:104C30009F836CEA75EC87EA96E30E94360A322E6F
:104C4000388749875A876B877C878D879E87A09096
:104C5000362DB090372DC090382DD090392DE09062
:104C60003A2DF0903B2D00913C2D10913D2D242D9F
:104C7000352D462D572D682D792D8A8999890E94C9
:104C80008B0BA22CB980CA80DB80EC80FD800E816A
:104C90001F810E94D40D8F87A090362DB090372DA4
:104CA000C090382DD090392DE0903A2DF0903B2DCA
:104CB00000913C2D10913D2D242D352D462D572D45
:104CC000682D792D8A8999890E948B0BA22EB32E8B
:104CD000C42ED52EE62EF72E082F192F232D38851A
:104CE00049855A856B857C858D859E850E94D40D6E
:104CF000888B2091362D3091372D4091382D509151
:104D0000392D60913A2D70913B2DA42CB52CC62CD9
:104D1000D72CE82CF92C0A89198980913C2D909187
:104D20003D2D0E948B0BA22CB980CA80DB80EC80C9
:104D3000FD800E811F810E94D40D282E2091362DDA
:104D40003091372D4091382D5091392D60913A2D69
:104D500070913B2DA42CB52CC62CD72CE82CF92C0B
:104D60000A89198980913C2D90913D2D0E948B0BD1
:104D7000A22EB32EC42ED52EE62EF72E082F192FD5
:104D8000232D388549855A856B857C858D859E8543
:104D90000E94D40D121414F4181634F02F85121634
:104DA0003CF48889181624F41092342D1092352D75
:104DB0002091362D3091372D4091382D5091392D3D
:104DC00060913A2D70913B2D6894EE24E4F800E157
:104DD00080913C2D90913D2D0E949512BC018BE657
:104DE0009DE20E942F380E947E2C8DE090E29F93DE
:104DF0008F931F921F921F921F920E94892C8BE605
:104E00009DE29F938F9388E190E29F938F931F92EF
:104E10001F921F9281E08F930E94892C40E050E006
:104E2000BA018091812D9091822D0E941617CDBFDD
:104E3000DEBF62FF12C08BE190E29F938F931F92BF
:104E40001F921F9282E08F930E94892C0F900F90E7
:104E50000F900F900F900F9011C083E290E29F93FC
:104E60008F931F921F921F9282E08F930E94892C32
:104E70000F900F900F900F900F900F908091332D07
:104E80008F938091322D8F938BE290E29F938F933B
:104E90001F921F921F9283E08F930E94892C64EFD0
:104EA00071E080E090E00E94BA20CDBFDEBFA6CEC8
:104EB000C1E0D0E00E941C1580E00E94C115813045
:104EC00071F4C093342DD093352D41E050E060E073
:104ED00070E08091812D9091822D0E94371781E0A2
:104EE0000E94C115813071F41092342D1092352D2D
:104EF00041E050E060E070E08091812D9091822D42
:104F00000E94161782E00E94C115813051F442E0E0
:104F100050E060E070E08091812D9091822D0E94A0
:104F200037176AE070E080E090E00E94BA20C2CFBC
:104F3000CF93DF93CDB7DEB72897CDBFDEBFE0E8D4
:104F4000F6E081E081838483412C512C612C712C0B
:104F5000812C912C18861F8240E050E0BA0180918C
:104F6000812D9091822D0E94161760FF85C120919E
:104F70002A2D217030E040E050E060E070E080E0F9
:104F800090E0A0E00E94213709F4B6C060E070E034
:104F900080E090E40E94360AA22EB32EC42ED52EB5
:104FA000E62EF72E082F192F242D352D462D572D9F
:104FB000682D792D88859F810E94CB0B222E332E60
:104FC00049835A836B837C838D839E8360E070E08A
:104FD00080E89FE30E94360AA22EB32EC42ED52E5F
:104FE000E62EF72E082F192F222D332D49815A81B5
:104FF0006B817C818D819E810E94F30AA22EB32E4B
:10500000C42ED52EE62EF72E082F192F60E070E063
:1050100080E890E40E94360A0E94D00CA22EB32EA3
:10502000C42ED52EE62EF72E2091362D3091372D19
:105030004091382D5091392D60913A2D70913B2D32
:10504000082F192F80913C2D90913D2D0E948B0BA4
:105050002093362D3093372D4093382D5093392D92
:1050600060933A2D70933B2D80933C2D90933D2D72
:1050700060E070E080E89FE30E94360AA22EB32E23
:10508000C42ED52EE62EF72E082F192F242D352DC0
:10509000462D572D682D792D88859F810E94F30A12
:1050A000422E532E642E752E862E972E88879F8330
:1050B00020912A2D30912B2D40912C2D50912D2D6A
:1050C00060912E2D70912F2D8091302D9091312D4A
:1050D000A1E00E94033720932A2D30932B2D40937B
:1050E0002C2D50932D2D60932E2D70932F2D80936A
:1050F000302D9093312DB5C060E070E080E090E4F9
:105100000E94360AA22EB32EC42ED52EE62EF72EDE
:10511000082F192F242D352D462D572D682D792D2B
:1051200088859F810E94CB0B222E332E49835A8380
:105130006B837C838D839E8360E070E080E89FE3D7
:105140000E94360AA22EB32EC42ED52EE62EF72E9E
:10515000082F192F222D332D49815A816B817C8193
:105160008D819E810E94F30AA22EB32EC42ED52ECD
:10517000E62EF72E082F192F60E070E080E890E40B
:105180000E94360A0E94D00CA22EB32EC42ED52E19
:10519000E62EF72E2091362D3091372D4091382D67
:1051A0005091392D60913A2D70913B2D082F192F78
:1051B00080913C2D90913D2D0E94F30A2093362D35
:1051C0003093372D4093382D5093392D60933A2DDD
:1051D00070933B2D80933C2D90933D2D60E070E0CB
:1051E00080E89FE30E94360AA22EB32EC42ED52E4D
:1051F000E62EF72E082F192F242D352D462D572D4D
:10520000682D792D88859F810E94F30A422E532EA6
:10521000642E752E862E972E88879F8320912A2DA7
:1052200030912B2D40912C2D50912D2D60912E2DB4
:1052300070912F2D8091302D9091312DA1E00E9401
:10524000033720932A2D30932B2D40932C2D5093F0
:105250002D2D60932E2D70932F2D8093302D9093B4
:10526000312D44E050E060E070E08091812D90911C
:10527000822D0E9437170AC044E050E060E070E0E1
:105280008091812D9091822D0E94161740E050E070
:10529000BA018091812D9091822D0E94161761FF95
:1052A0005BCE10922A2D10922B2D10922C2D109245
:1052B0002D2D10922E2D10922F2D1092302D1092F8
:1052C000312D1092362D1092372D1092382D1092CC
:1052D000392D10923A2D10923B2D10923C2D1092A8
:1052E0003D2D1092322D1092332D42E050E060E0BF
:1052F00070E08091812D9091822D0E94161724CE0E
:1053000088ED84BFE0E5F0E080818460808385E003
:105310008093430081E080930004E0E0F4E0818129
:1053200080FDFDCFE0E0F4E0E287F38782818360D7
:1053300082831086118682E090E0848795870895A5
:105340001F920F920FB60F9211248F939F9380910B
:10535000342D9091352D892B49F08091322D9091EB
:10536000332D01968093322D9093332D9F918F9101
:105370000F900FBE0F901F9018950895EF92FF9217
:105380000F930E9480290E942C300E943C1680932B
:10539000812D9093822D0E94BF250E94022B0E9496
:1053A00011150F2EFFE7EF2EFDE2FF2EF02D02E08C
:1053B00020E030E044EF51E064E370E287EF95E2F3
:1053C0000E94FD1D20E030E044EF51E06CE370E20C
:1053D00088E597E20E94FD1D01E020E030E044EF07
:1053E00051E063E470E288E997E20E94FD1D0E94AB
:1053F0007E2C0E94121F80E090E00F91FF90EF90B2
:1054000008951F920F920FB60F9211240BB60F92B0
:105410002F933F934F935F936F937F938F939F93BC
:10542000AF93BF93EF93FF93CF93DF931F92CDB7CB
:10543000DEB719829E012F5F3F4F41E050E060E0F0
:1054400070E08091852D9091862D0E94CC1760E0B0
:1054500080E09BE00E9420161092060B0F90DF91D7
:10546000CF91FF91EF91BF91AF919F918F917F91DC
:105470006F915F914F913F912F910F900BBE0F90C5
:105480000FBE0F901F901895CF92DF92EF92FF9270
:105490000F936B017C0182E0C816D104E104F10492
:1054A00008F44EC0E0E0FBE081E0868310A211A288
:1054B00060E080E09BE00E9426168EEFC8168FEF1A
:1054C000D806E104F10470F4F694E794D794C794F5
:1054D000C092260BD092270B65E080E09BE00E94F3
:1054E000201619C080E4C81682E4D8068FE0E806CA
:1054F000F10488F4689414F8F694E794D794C79468
:105500001694D1F7C092260BD092270B67E080E06B
:105510009BE00E9420160F2EF4EFCF2EDD24D394B3
:10552000E12CF12CF02D00E021E041E050E060E0C2
:1055300070E08091852D9091862D0E94511611C0AA
:10554000E0E0FBE081E0868310A211A260E080E051
:105550009BE00E942616C12CD12C76016894C1F8DC
:10556000B3CF0F91FF90EF90DF90CF900895829589
:10557000807FE0E0F6E09481282F2F6092239483CF
:105580009481892B848308951F93CF93DF93C0E682
:10559000D6E014E01D8361E070E080E090E00E94BE
:1055A000442A1E83DF91CF911F910895CF93C82F76
:1055B00082958F700E94B72AE0E6F6E081E086834C
:1055C00082E086830E94C42A8C2F8F700E94B72AA3
:1055D0000E94C42ACF910895CF93C82F82958F70CF
:1055E0000E94B72AE0E6F6E081E0858382E08683C8
:1055F0000E94C42A8C2F8F700E94B72A0E94C42A4E
:10560000CF910895EF92FF920F93E0E0F6E080E1F2
:10561000818380E2818380E4818380E88183A0E6C6
:10562000B6E081E011968C93119782E011968C93ED
:10563000119784E011968C93119784818F708483E5
:1056400014968C911497887F14968C9340E066E1B1
:1056500088E00E94631B8093832D9093842D0E9489
:105660003C168093852D9093862DE12CF12C01E042
:1056700020E030E04EE551E06AE470E280EA9BE22F
:105680000E94FD1D0F91FF90EF90089581309105CC
:1056900079F01CF4892B39F019C08230910569F03A
:1056A000039781F013C080E8860F0E94D62A0EC0AF
:1056B00080EC860F0E94D62A09C084E9860F0E94DA
:1056C000D62A04C084ED860F0E94D62A67E270E0D5
:1056D00080E090E00E94442A08950E94EC2A6BE248
:1056E00070E080E090E00E94442A08950F931F9399
:1056F000CF93DF93FC01808181110AC011C0899191
:10570000882371F00E946D2B0C171D07C1F708C08C
:105710008F010E946D2BE80121960C5E1F4FEFCF89
:10572000DF91CF911F910F910895CF93DF93EA01FD
:105730000E94462BCE010E94762BDF91CF910895D7
:10574000CF93DF93CDB7DEB7C656D109CDBFDEBF4D
:105750005E0141E5A40EB11CFE01319620E208C0B5
:105760002193E817F907E1F7FC01A816B90619F02B
:10577000CF014496F5CF60E47CE980E090E00E94A0
:10578000442A83E00E94B72A68E873E180E090E051
:105790000E94442A0E94C42A60EA70E080E090E0FF
:1057A0000E94442A0E94C42A60EA70E080E090E0EF
:1057B0000E94442A0E94C42A60EA70E080E090E0DF
:1057C0000E94442A82E00E94B72A0E94C42A88E2EA
:1057D0000E94D62A80E10E94D62A8CE00E94D62A16
:1057E00086E00E94D62A10E26E0151E5C50ED11C5A
:1057F0000F2EF4E14F2EF02D0F2EF6E18F2E912C6F
:10580000F02D5C2C0D2D68EC70E080E090E00E94A3
:10581000BA2040E050E0BA018091852D9091862D0C
:105820000E941617672B682B692B09F449C042E0C8
:1058300050E060E070E08091852D9091862D0E946F
:105840001617FE01319608C01193E817F907E1F722
:10585000FC018A159B05A1F1CF014496F5CF2FEFEE
:105860003FEFA901652D702F8091832D9091842D9C
:105870000E947F1C882321F1F6012181822F90E074
:105880004497F4F482818823D9F0908130E0D901E3
:10589000499EA00DB11D112441E050E04C0F5D1F49
:1058A000A40FB51F3396A401421B530B9A012C0D74
:1058B0003D1D8D93E217F30719F081918111F9CF06
:1058C0008091832D9091842D0E94251D8111C7CF39
:1058D000CE0101967C01612C712CA70160E070E083
:1058E000C3010E94952B9FEF691A790AE4E1EE0E3D
:1058F000F11CF4E06F16710481F785CF42E050E0AF
:1059000060E070E08091852D9091862D0E94371780
:1059100008952F923F924F925F926F927F928F9253
:105920009F92AF92BF92CF92DF92EF92FF920F932E
:105930001F93CF93DF93CDB7DEB76D97CDBFDEBF9B
:105940002BA92B8FAFA9B8AD7E0139E3E30EF11C73
:1059500026E63DE2E2E5FDE21192E217F307E1F708
:105960000F2EFEE3AF2EFDE2BF2EF02D22E53DE22D
:10597000F5011192E217F307E1F7812C912C0F2E1C
:10598000F2E5CF2EFDE2DF2EF02DFCC2853209F0CC
:10599000E8C22D0182E0480E511C11968C9185368B
:1059A00009F4DBC138F48336C1F008F048C0853211
:1059B00051F0E7C28337F9F0883709F468C08636BA
:1059C00009F0DFC28CC0F401E25CF24D95E29083F5
:1059D000AFEF8A1A9A0AD201D5C2F401E25CF24D05
:1059E000D7018C918083BFEF8B1A9B0AF701329607
:1059F0007F01D201C7C2A7014E5F5F4FD7018D91D2
:105A00009C919C01B401F401E25CF24D00E010E0D5
:105A100006C0D901FD909D01F1920F5F1F4FDC017F
:105A20000D900020E9F71197A81BB90B0A171B0767
:105A300080F34D01860E971E7A01D201A3C2870121
:105A40000E5F1F4F4AE0B601F701808191810E94ED
:105A500041389401D401A25CB24D42E55DE280E0A0
:105A600090E005C0FA016191AF016D930196F601D6
:105A700001900020E9F73197E255FD428E179F070C
:105A800088F34F01820E931E7801D2017BC28701F9
:105A90000E5F1F4F40E1B601D7018D919C910E948E
:105AA00041389401F401E25CF24D42E55DE280E0B0
:105AB00090E005C0DA016D91AD0161930196D601C8
:105AC0000D900020E9F71197A255BD428A179B0758
:105AD00088F34D01820E931E7801D20153C2170143
